:020000040800F2
:10000000B8190020650100086D0100086F010008A3
:10001000710100087301000875010008000000006C
:100020000000000000000000000000007701000850
:1000300079010008000000007B010008E944000885
:100040007F0100087F0100087F0100087F01000890
:100050007F0100087F0100087F0100087F01000880
:100060001D0700087F0100087F0100087F010008CC
:100070007F0100087F0100087F0100087F01000860
:100080007F0100087F0100087F0100087F01000850
:100090007F0100087F0100087F0100087F01000840
:1000A0007F010008B14500087F0100087F010008BA
:1000B000ED4500087F010008994600087F0100080F
:1000C0007F0100087F0100087F0100087F01000810
:1000D0007F010008894800087F0100087F010008AF
:1000E0007F0100087F0100087F0100087F010008F0
:1000F0007F0100087F0100087F0100080000000068
:100100007F01000800000000BD4600087F010008D4
:100110007F0100087F0100087F0100087F010008BF
:100120007F010008E90600087F0100087F01000840
:100130007F01000800000000000000007F010008AF
:100140007F0100087F0100087F0100087F0100088F
:10015000DFF80CD000F048FA004800478954000846
:10016000B81900200648804706480047FEE7FEE72A
:10017000FEE7FEE7FEE7FEE7FEE7FEE7FEE7FEE757
:10018000594500085101000840EA01039B0703D0CC
:1001900009E008C9121F08C0042AFAD203E011F8C6
:1001A000013B00F8013B521EF9D27047D2B201E088
:1001B00000F8012B491EFBD270470022F6E710B56C
:1001C00013460A4604461946FFF7F0FF204610BDC5
:1001D00030B504460020034600E05B1C934203D286
:1001E000E05CCD5C401BF8D030BD000070B50F4D19
:1001F00000B92868002412E00A4602E09E4203D0BB
:10020000521C1378002BF9D1DAB2224305D02BB15E
:1002100024B1002100F8011B04E00446401C0678CC
:10022000002EE9D12860204670BD000000000020AB
:100230002DE9FE4F804681EA0300C00F0C46009076
:1002400021F0004123F00045B8EB0200A94105D29E
:100250004046214690461C460B46024623F000408D
:10026000104347D0270DC7F30A00C3F30A51029089
:10027000401A019040286BDAC3F3130040F4801B4E
:100280000098924620B10023D2EB030A63EB0B0BDC
:1002900001985946C0F14002504600F016F9064652
:1002A0000D4650465946019A00F02EF910EB080011
:1002B0006141002487EA115284EAE7731A4340D06F
:1002C000009A62B3019A012A4FEA075215DC001B1B
:1002D00061EB02014FF0004202EA0752CDE9004211
:1002E000001C41F5801132462B4600F02EF903B078
:1002F000BDE8F08F40462146F9E7001B61EB0201A3
:10030000001C41F5801300185B412018A2F500176E
:1003100047EB030140EAD570B6196D4111E06D0855
:100320004FEA360645EAC0754FEA0752001B61EBFB
:100330000201001C41F5801149084FEA3000001904
:10034000514132462B4603B0BDE8F04F00F0EEB805
:100350000098012240000023D0EB020263EBE0731F
:10036000009821464FEAE074B8EB000061EB04010D
:10037000E9E783F000435BE781F0004158E72DE9AE
:10038000F04D81EA030404F0004B21F000451446CF
:100390004FF0000A23F0004150EA050220D054EA51
:1003A00001021DD0C5F30A570246C5F31303C1F37A
:1003B0001300C1F30A5640F4801543F48013A7EBF1
:1003C0000608101BD64608F2FD3873EB050002D371
:1003D00008F1010801E092185B41B8F1000F03DA5F
:1003E00000200146BDE8F08D00204FF48011064644
:1003F00084460EE0171B73EB050705D3121B63EB56
:10040000050306434CEA010C49084FEA30009218F4
:100410005B4150EA0107EDD152EA030012D082EAB3
:10042000040083EA0501084305D0101BAB4106D246
:100430000122002306E000224FF0004302E06FF0AB
:10044000010253101AEB06004CEB085110EB0A00A6
:1004500041EB0B01BDE8F04D00F068B80EB5C10FDF
:1004600080EAE0700844CA07002140F233438DE877
:100470000E000A460B4600F068F803B000BD0EB54A
:1004800040F2334102910021CDE900110A460B46AA
:1004900000F05BF803B000BDC1F30A5210B5C1F320
:1004A000130140F2FF3341F480119A4201DA002037
:1004B00010BD40F233439A42A2F2334203DC52426F
:1004C00000F012F810BD904010BD202A04DB203A45
:1004D00000FA02F1002070479140C2F1200320FA97
:1004E00003F3194390407047202A04DB203A21FA95
:1004F00002F00021704721FA02F3D040C2F120023D
:100500009140084319467047202A06DBCB17203A52
:1005100041FA02F043EAE07306E041FA02F3D04008
:10052000C2F12002914008431946704710B5141ECD
:1005300073F1000408DA401C41F1000192185B419C
:100540001A4301D120F0010010BD2DE9F04D924673
:100550009B4611B1B1FA81F202E0B0FA80F220328A
:100560009046FFF7B2FF04460F4640EA0A0041EA10
:100570000B0153465A46084313D0114653EA010073
:1005800019D0C8F140025046FFF7AEFF05460E46AF
:10059000504659464246FFF798FF084305D00120D0
:1005A00004E020463946BDE8F08D0020054346EAC8
:1005B000E0762C4337430A986305E40AA0EB080071
:1005C0000022FD0A44EA47540A3002D500200146C1
:1005D000E9E7010510196941DDE90845001969419C
:1005E000BDE8F04DA2E70000064C074D06E0E068CC
:1005F00040F0010394E8070098471034AC42F6D36A
:10060000FFF7AAFD546600087466000810B540F2B2
:10061000B010C2F20000007801281DD0002818BFD9
:1006200010BD42F60000C4F201000024A0F5806075
:100630000121C4F2020404F01FFA00BF2046002189
:10064000022204F031FD0028F8D0204600210222C9
:10065000BDE8104004F020BD42F60004C4F20104DD
:100660002046012104F008FA2046022104F0ACF9EA
:100670000028F9D042F64C00C4F20100006840F2B4
:100680001001C2F20001086010BD0000B0B50146C3
:10069000B0F8A0000022C1E9000246F2004491F83F
:1006A000A400C4F200040A818872204604F04CFBC6
:1006B00041F25051C2F2000141F23C5508704FF432
:1006C0000071C2F20005022898BF01EBC001296049
:1006D0002988204604F086FA0128F9D02988204686
:1006E000BDE8B04004F072BA10B540F20044C4F264
:1006F000020420460121022204F032FD012818BF25
:1007000010BDA4F574404FF4804104F0DFFD204695
:1007100001210222BDE8104004F01ABD70B504208A
:1007200004F0C4FD012818BF70BD41F24850C2F268
:100730000000007801282BD0022846D0032862D17F
:10074000FFF764FF42F60045C4F20105A5F5E05449
:1007500020464FF4804104F0BBFD40F21000C2F28D
:100760000000008840F2FD0600BAC2F20006000C4C
:10077000A6F8070020464FF4804104F0A7FDF17968
:10078000A5F5704005F02EFA012000F031FF3AE0A7
:1007900042F60044C4F201042046002105F088FC22
:1007A00020460021042205F0FDFA20460121042202
:1007B00005F0F8FA20460021012205F053FC2046FE
:1007C0000121012205F04EFC1DE042F60040C4F27A
:1007D000010000F500642046002105F069FC204678
:1007E0000121042205F0DEFA20460221042205F050
:1007F000D9FA20460121012205F034FC20460221CD
:10080000012205F02FFC0420BDE8704004F048BD33
:100810002DE9F04144F6D353C1F26203A2FB033C3D
:100820004FEA9C1E4CF6CD4C48F21F53CCF6CC4CF4
:10083000C5F2EB13A2FB0334AEFB0C386309A2FB39
:100840000C46A3FB0C47F408A4FB0C654FEAD80642
:1008500006EB8606AEEB460646F0300646540844E4
:10086000F90801EB8101A3EB410141F03001417036
:10087000E90801EB8101A4EB410141F030018170F5
:1008800004EB8401A2EB410141F03001C170BDE8ED
:10089000F0810000B0B588B000208DF81E0040F255
:1008A0001000C2F2000042F6000403904FF4006012
:1008B000C4F201040490A4F56D7001904FF48070AF
:1008C000ADF81C004FF40070029001200025059047
:1008D0004FF44050C4F20205069001AA28460021B8
:1008E00004F0EAFB2846002104F0C4FB284600215E
:1008F00004F09CFB002004F06DF842F20045C4F2C5
:10090000010528464FF48071012204F0C3F82846FF
:100910000221002204F0BEF82846002104F008F865
:100920002846002104F09CF828460121012203F00A
:10093000E1FF20464FF48071012204F0ABF820461D
:100940000221002204F0A6F82046002103F0F0FF67
:100950002046002104F084F820460121002203F003
:10096000C9FF284601214FF4602204F01BF82846F5
:100970000121012203F0F6FF204601214FF46022FD
:1009800004F010F820460121012203F0EBFF284675
:1009900000210022022304F029F8284603F0D8FFA2
:1009A000284603F097FF204603F0D2FF204603F0CD
:1009B00091FF284603F0C6FF45F20000CFF6FF7016
:1009C0002958002241F0010129500020002104F0A3
:1009D00095FA002004F0D4FA08B0B0BD10B588B084
:1009E00000208DF81E0040F21000C2F200000390BB
:1009F0004FF40060049042F24C40C4F201000190B8
:100A00004FF48070ADF81C004FF40070029001208C
:100A1000002405904FF44050C4F20204069001AA4D
:100A20002046002104F048FB2046002104F022FB70
:100A30002046002104F0FAFA4FF4C02003F0CAFF68
:100A400042F20044C4F2010420464FF480710122B6
:100A500004F020F820460221002204F01BF8204672
:100A6000002103F065FF2046002103F0F9FF204636
:100A70000121012203F03EFF204601214FF46022B4
:100A800003F090FF20460121012203F06BFF204676
:100A900000210022022303F0A9FF204603F058FFA3
:100AA000204603F017FF204603F04CFF45F20000FC
:100AB000CFF6FF702158002241F001112150002093
:100AC000002104F01BFA002004F05AFA0120002152
:100AD000002204F013FA012004F052FA08B010BD0D
:100AE00070B541F20005C4F2010528460421042234
:100AF0004FF4804304F030FC2846042104221023E4
:100B000004F02AFCA5F58064204604210422042375
:100B100004F022FC284604210422402304F01CFC9B
:100B20002846042104224FF4007304F015FC2846E3
:100B3000042104224FF4806304F00EFC28460421B3
:100B400004224FF4006304F007FC28460421042229
:100B50004FF4805304F000FC2846042104224FF493
:100B6000005304F0F9FB2846042104224FF400430B
:100B700004F0F2FBA5F50066304604210422402370
:100B800004F0EAFB284604210422202304F0E4FBBD
:100B90002046042104224FF4805304F0DDFB30464C
:100BA000042104224FF4007304F0D6FB30460421E4
:100BB00004224FF4807304F0CFFB28460421042262
:100BC0004FF4807304F0C8FB2846042104228023DC
:100BD00004F0C2FB2046042104224FF4807304F089
:100BE000BBFB284604210422012304F0B5FB284660
:100BF00004210422022304F0AFFB2846042104222E
:100C0000042304F0A9FB284604210422082304F04D
:100C1000A3FB304604210422012304F09DFB30464F
:100C200004210422022304F097FB3046042104220D
:100C3000042304F091FB304604210422082304F02D
:100C40008BFB304604210422102304F085FB304640
:100C500004210422202304F07FFB204604210422E7
:100C60004FF4806304F078FB2046042104224FF403
:100C7000006304F071FB3046042104224FF48053DA
:100C800004F06AFB3046042104224FF40063BDE8FF
:100C9000704004F061BB0000B0B588B0044646F275
:100CA000004540F21970C4F2000504F04FFF2846D9
:100CB00003F01EFF4FF40130CDF815000020CDF8F1
:100CC000190021798DF81D008DF8141005A928460A
:100CD00003F0B8FF2068FA2818BFB0F57A7F17D163
:100CE0004FF47A714143284603F084FF0020CDF889
:100CF0000A00CDE9000060790121ADF80E10ADF8D1
:100D0000080068468DF8101003F006FF08B0B0BD6B
:100D1000B0F5FA7FE4D04EF64801C0F20101E2E7F7
:100D200010B54FF4C06004F011FF40F2026004F00F
:100D30000DFF40F60004C4F20104204648210322BE
:100D40004FF4006304F008FB2046182103224FF4FF
:100D50008053BDE8104004F0FFBA000080B541F2B6
:100D60000040C4F2010028210422042304F0F4FA14
:100D70000320022104F0AEFA04200021002204F036
:100D800039FA08200021012204F0D0FD0420BDE83A
:100D9000804004F07DBA000070B541F20005C4F255
:100DA00001052846042104224FF4804304F0D4FABC
:100DB000284604210422102304F0CEFAA5F580640D
:100DC000204604210422042304F0C6FA2846042104
:100DD0000422402304F0C0FA2846042104224FF4E0
:100DE000007304F0B9FA2846042104224FF480630A
:100DF00004F0B2FA2846042104224FF4006304F000
:100E0000ABFA2846042104224FF4805304F0A4FADC
:100E10002846042104224FF4005304F09DFA28468A
:100E2000042104224FF4004304F096FAA5F500666D
:100E3000304604210422402304F08EFA284604217F
:100E40000422202304F088FA2046042104224FF4CF
:100E5000805304F081FA3046042104224FF40073D9
:100E600004F07AFA3046042104224FF4807304F02F
:100E700073FA2846042104224FF4807304F06CFABC
:100E8000284610210422802304F066FA204610210F
:100E900004224FF4807304F05FFA284610210422E4
:100EA000012304F059FA284610210422022304F0F9
:100EB00053FA284610210422042304F04DFA284650
:100EC00010210422082304F047FA3046102104229E
:100ED000012304F041FA304610210422022304F0D9
:100EE0003BFA304610210422042304F035FA304640
:100EF00010210422082304F02FFA30461021042286
:100F0000102304F029FA304610210422202304F093
:100F100023FA2046102104224FF4806304F01CFAC7
:100F20002046102104224FF4006304F015FA3046E5
:100F3000102104224FF4805304F00EFA30461021A1
:100F400004224FF4006304F007FA40F20020C0F2DC
:100F500030000121BDE8704004F05EBA70B541F286
:100F60000005C4F201052846102104224FF48043F5
:100F700004F0F2F9284610210422102304F0ECF9C1
:100F8000A5F58064204610210422042304F0E4F92E
:100F9000284610210422402304F0DEF928461021BF
:100FA00004224FF4007304F0D7F9284610210422DC
:100FB0004FF4806304F0D0F92846102104224FF446
:100FC000006304F0C9F92846102104224FF480532D
:100FD00004F0C2F92846102104224FF4005304F013
:100FE000BBF92846102104224FF4004304F0B4F961
:100FF000A5F50066304610210422402304F0ACF928
:10100000284610210422202304F0A6F920461021AE
:1010100004224FF4805304F09FF93046102104223B
:101020004FF4007304F098F93046102104224FF475
:10103000807304F091F92846102104224FF4807344
:1010400004F08AF9284604210422802304F084F95C
:101050002046042104224FF4807304F07DF92846D1
:1010600004210422012304F077F9284604210422F4
:10107000022304F071F9284604210422042304F019
:101080006BF9284604210422082304F065F9304650
:1010900004210422012304F05FF9304604210422D4
:1010A000022304F059F9304604210422042304F0F9
:1010B00053F9304604210422082304F04DF9304648
:1010C00004210422102304F047F9304604210422AD
:1010D000202304F041F92046042104224FF48063C8
:1010E00004F03AF92046042104224FF4006304F08E
:1010F00033F93046042104224FF4805304F02CF9D4
:101100003046042104224FF4006304F025F940F234
:101110000020C0F230000121BDE8704004F07CB92D
:1011200070B540F2026004F011FD40F2036004F07B
:101130000DFD40F2046004F009FD40F2096004F086
:1011400005FD40F20A6004F001FD012004F038FCC6
:101150004FF4A06004F0FAFC40F21D7004F0F6FCBD
:101160004FF4C06004F0F2FC41F20004C4F2010448
:101170002046102104224FF4804304F0EDF820466D
:1011800010210422102304F0E7F8A4F5806630460D
:1011900010210422042304F0DFF820461021042249
:1011A000402304F0D9F82046102104224FF40073A4
:1011B00004F0D2F82046102104224FF4806304F09A
:1011C000CBF82046102104224FF4006304F0C4F849
:1011D0002046102104224FF4805304F0BDF820462D
:1011E000042104224FF4005304F0B6F820460421F1
:1011F00004224FF4004304F0AFF8A4F5006528463C
:1012000004210422402304F0A7F8204604210422EC
:10121000202304F0A1F83046042104224FF4805327
:1012200004F09AF83046102104224FF4007304F0C1
:1012300093F82846182104224FF4007304F08CF828
:101240002846182104224FF4807304F085F82046C4
:10125000182104224FF4807304F07EF820461821F0
:101260000422802304F078F83046182104224FF439
:10127000807304F071F8204600210422012304F059
:101280006BF8204600210422022304F065F8204672
:1012900000210422042304F05FF8204600210422E8
:1012A000082304F059F8284600210422012304F001
:1012B00053F8284600210422022304F04DF8284662
:1012C00000210422042304F047F8284600210422C8
:1012D000082304F041F8284600210422102304F0DA
:1012E0003BF82846002104222023BDE8704004F08A
:1012F00033B8000070B544F60004C4F2000404F5ED
:10130000DC36054630460121022203F0C5FE304698
:10131000012103F079FE304601212A4603F04CFFFB
:101320002046802105F076F83046012103F07EFE4C
:101330002046062105F086F838B900BF2046062170
:1013400000BF05F07FF80028F8D02046062105F000
:101350006DF820460021BDE8704005F05BB8000044
:101360002DE9F04F87B005464FF4A06004F0EEFB86
:1013700040F2127004F0EAFB40F2065004F0E6FB83
:1013800044F600046869C4F20004002704F5DC3662
:10139000E8468DF81A70CDE9020704F104094FF40C
:1013A000807A4FF4805B304602214246CDF80090AF
:1013B000ADF818A001970497CDF814B003F07CFEA7
:1013C0003046022103F056FE3046022103F02EFE85
:1013D000296901208DF81A00CDE902173046012154
:1013E0004246CDF80090ADF818A00197CDE9047BF6
:1013F00003F062FE3046012103F02AFE304601214F
:1014000003F014FE204604F0C1FF2968204604F0D2
:101410007FFF6968204605F035F8E968204605F049
:1014200061F8A968204605F04FF82046002104F035
:10143000A5FF2046002105F013F82046002105F005
:1014400009F8204605F02CF82046322105F030F846
:101450002046402104F0D8FF2046802104F0DAFF26
:101460002046082105F038F82046042105F012F83E
:10147000204604F0D5FF07B0BDE8F08FB0B544F6C4
:1014800000050446C4F20005284642F2102104F08B
:10149000D9FF0028F8D12046BDE8B040FFF72ABFA9
:1014A00010B54FF4C06004F051FB40F2036004F04B
:1014B0004DFB40F60044C4F20104204618210322EB
:1014C0004FF4806303F048FF2046042103224FF4C9
:1014D0000063BDE8104003F03FBF00002DE9F04F6E
:1014E0008FB0054640F2015004F030FB40F20F701F
:1014F00004F02CFB43F60048A868C4F2000800245E
:1015000008F5E4360DF120098DF83A40CDE90A04DA
:1015100008F10C074FF4807A4FF4405B304600210D
:101520004A460897ADF838A009940C94CDF834B029
:1015300003F0C2FD3046002103F09CFD304600213F
:1015400003F074FD696801208DF83A00CDE90A14B2
:10155000304601214A460897ADF838A00994CDE9F4
:101560000C4B03F0A9FD404604F03EFB01AF3846AA
:1015700004F08AFB28680C352ECDCDE9011403A9AF
:1015800031C140463946CDE9063204F057FB4046AA
:1015900004F074FB404604F06BFB3046012102224C
:1015A00003F0C4FD39200121002204F0BFF94046B8
:1015B00004F012FB0FB0BDE8F08F0000B0B540F2B0
:1015C0000045C4F2020504462846002103F01CFD34
:1015D00028460021224603F0EFFDA5F5E430012165
:1015E00004F0F0FA28460021BDE8B04003F01EBD2B
:1015F000B0B540F20045C4F2020504462846012178
:1016000003F002FD28460121224603F0D5FDA5F591
:10161000E430002104F0D6FA28460121BDE8B040AC
:1016200003F004BDB0B540F20044C4F20204054624
:101630002046012103F0E8FC204601212A4603F060
:10164000BBFDA4F5E4352846002104F0BBFA204692
:10165000012103F0EBFC00BF20460121022203F030
:1016600023FD0028F8D020460121022203F014FDBA
:1016700028460021BDE8B04004F098BA0220FFF7E8
:101680009DBF0000B0B543F600450446C4F2000516
:101690002846022104F0CCFA0028F9D02046BDE803
:1016A000B040FFF7BFBF000010B54FF4C06004F0BA
:1016B0004DFA40F2036004F049FA40F2026004F08F
:1016C00045FA40F60044C4F20104204618210322E2
:1016D000102303F041FE204604210322202303F0BF
:1016E0003BFE204604210322082303F035FEA4F527
:1016F0008060042103224FF4004303F02DFE40F2EA
:101700000020C0F230000121BDE8104003F084BE8B
:10171000F0B58BB00646450840F20B6004F016FAAF
:1017200042F60044C4F20104204604F0C3FC002742
:10173000FF200996ADF81C70ADF82870CDF81E702A
:101740008DF82A0007A9204604F05EFD0120C0F2B2
:10175000040004AE0697CDE9040720460021324676
:1017600004F03EFB204601213246012604F038FBFE
:1017700020460021002204F075FC204600210022B2
:1017800004F010FB20460121002204F06BFC2046EF
:101790000121002204F006FB204600212A4604F025
:1017A0003DFC20460021602204F01AFC2046002166
:1017B000002204F039FC204601212A4604F02EFCC8
:1017C00020460121702204F00BFC2046012100225A
:1017D00004F02AFC4FF48040CDE90076029069467F
:1017E0002046ADF80C7004F0C9FA1920022100223D
:1017F00004F09CF82046012104F06AFD204604F024
:10180000FDFC0BB0F0BD000010B584B004464FF4F1
:10181000E06004F09BF94FF0804004F04BFC0020A6
:101820000294ADF80000ADF80C00CDF802008DF880
:101830000E0069464FF0804004F0E6FC1C200121B8
:10184000002204F073F84FF08040012104F040FDC5
:101850004FF08040012104F051FD4FF0804004F032
:1018600087FA4FF0804004F0C9FC04B010BD0000BE
:1018700070B588B00646450840F2027004F066F97B
:1018800040F60004C4F20004204604F013FC06965F
:101890000026FF20ADF81060ADF81C60CDF8126096
:1018A0008DF81E0004A9204604F0AEFC0120C0F211
:1018B00004000396CDE9010601AA2046022104F0A6
:1018C0008FFA20460221002204F0CCFB20460221A0
:1018D000002204F067FA204602212A4604F09EFB0B
:1018E00020460221602204F07BFB204602210122D7
:1018F00004F0B8FB20460221002204F095FB1E20D4
:101900000221002204F012F82046012104F0E0FC3C
:10191000204604F073FC08B070BD0000B0B584B080
:10192000054640F2037004F011F940F60044C4F299
:101930000004204604F0BEFB00200295ADF8000034
:10194000ADF80C00CDF80200FF208DF80E006946BE
:10195000204604F059FC2046012104F0B9FC322055
:1019600002F094FF204604F049FC04B0B0BD000032
:101970002DE9F0418CB00646450840F20D6004F0B8
:10198000E5F843F20044C4F20104204604F092FB5F
:101990000027FF200A96ADF82070ADF82C70CDF826
:1019A00022708DF82E0008A9204604F02DFC01209D
:1019B000C0F2040005AE0797CDE9050720460121D6
:1019C00032464FF0010804F00BFA2046022132465D
:1019D00004F006FA20460121002204F043FB2046D1
:1019E0000121002204F0DEF920460221002204F049
:1019F00039FB20460221002204F0D4F920460121BF
:101A00002A4604F00BFB20460121602204F0E8FA8C
:101A100020460121002204F007FB204602212A462D
:101A200004F0FCFA20460221702204F0D9FA204684
:101A30000221002204F0F8FA4FF48040CDE9017849
:101A4000039001A92046ADF8107004F097F9192011
:101A50000221002203F06AFF2046012104F038FC35
:101A6000204604F0CBFB0CB0BDE8F081B0B50025FA
:101A7000C4F2020504462846042103F0C5FA2846AC
:101A80000421224603F098FBA5F54840402104F0CC
:101A9000BBFC28460421BDE8B04003F0C7BA0000F3
:101AA00070B543F60004C4F2010404F54846054647
:101AB00030460321022203F0EFFA3046032103F0FF
:101AC000A3FA304603212A4603F076FB2046802104
:101AD00004F0A0FC3046032103F0A8FA20460621BA
:101AE00004F0B0FC38B900BF2046062100BF04F066
:101AF000A9FC0028F8D02046062104F097FC2046D7
:101B00000021BDE8704004F085BC00002DE9F047DD
:101B100088B005464FF4A06004F018F840F20E605B
:101B200004F014F840F2065004F010F8686943F627
:101B300000040027C4F201048DF81E70CDE90307EC
:101B400004F104094FF4807A3220CDF80490ADF806
:101B50001CA0029705904FF4405004F548460DF143
:101B60000408069030460421424603F0A5FA3046A8
:101B7000042103F07FFA3046042103F057FA0120D4
:101B800029698DF81E004FF40050CDE90317CDF8F8
:101B90000490ADF81CA002970597069030460321EB
:101BA000424603F089FA3046032103F051FA3046E9
:101BB000032103F03BFA204604F0E8FB29682046A5
:101BC00004F0A6FB6968204604F05CFCE968204646
:101BD00004F088FCA968204604F076FC2046002129
:101BE00004F0CCFB2046002104F03AFC2046002102
:101BF00004F030FC204604F053FC2046FF2104F0A2
:101C000057FC2046402104F0FFFB2046802104F0D1
:101C100001FC204640F2053104F028FC252001217A
:101C2000002203F083FE2046082104F055FC2046E4
:101C3000042104F02FFC204604F0F2FB08B0BDE8BC
:101C4000F0870000B0B543F600050446C4F2010574
:101C5000284642F2102104F0F5FB0028F8D1204676
:101C6000BDE8B040FFF71CBF10B54FF4C06003F0F3
:101C70006DFF40F2036003F069FF0420C4F201002D
:101C8000016840F6004441F00401C4F2010401601F
:101C9000204618210322402303F05EFB2046042146
:101CA00003228023BDE8104003F056BB0000000073
:101CB0002DE9F04F81B02DED048B40F2181BC2F2DC
:101CC000000B9BF89700002800F0908700208BF80D
:101CD00097001C2002F0DAFD41F2545ADBE908506B
:101CE000C2F2000ADBE90A12DBE900E8DBE9029351
:101CF000DBE90476CAE90850BBF83000DBE9064CA2
:101D0000CAE90A1246F21951CAE900E8CAE902937F
:101D1000CAE90476AAF83000C0F600015046CAF8B5
:101D20001840CAF81CC0FEF761FA41F2A458C2F28A
:101D300000080FF6DC7103220646C8F80000FEF723
:101D400047FA00285CD09AF80070102F58D00FF690
:101D5000C47130460322FEF73BFA112F18BF00284A
:101D600040F09E8046F21951C0F600010020FEF7B7
:101D70003DFAC8F800000646008844F64F69484519
:101D800000F040819AF80170052F00F03B8146F287
:101D90002E51C0F6000130460322FEF719FA0A2F31
:101DA00018BF002840F0FA8143F20045C4F2010553
:101DB00028460121002204F055F92846002100227E
:101DC00003F0F0FF28460221002204F04BF92846D8
:101DD0000221002203F0E6FFD8F8000046F22E515F
:101DE000C0F600010322FEF7F3F9002800F0E185B8
:101DF000AC208BF832000120FFF724FF02F0F1B98C
:101E000046F21951C0F600010020FEF7EFF9C8F8BC
:101E100000000646008844F64F64A04200F0CA80E5
:101E20009AF80170052F00F0C58046F22E51C0F6D9
:101E3000000130460322FEF7CBF90A2F18BF002815
:101E400040F00C8141F20000C4F2010000F5E055C1
:101E500028460021002204F005F92846002100222E
:101E600003F0A0FF28460121002204F0FBF82846D9
:101E70000121002203F096FFD8F8000046F22E510F
:101E8000C0F600010322FEF7A3F9002800F0BB8290
:101E9000AC208BF832000120FFF7D4FE02F0A1B98C
:101EA0000FF6746130460322FEF792F9AD2F18BF8A
:101EB000002840F0208141F20006C4F201063046BD
:101EC000102104224FF4804303F046FA46F21951E0
:101ED000C0F600010020FEF789F9C8F800000746A7
:101EE000006844F25259C4F24149484500F0A181CA
:101EF0009AF80140FD2C00F09C810FF620613846D5
:101F00000722FEF765F95A2C18BF002840F0B2826C
:101F1000002800F07086FFF7C7FB9AF802009AF8D5
:101F2000031041F2A85841EA002041F24655C2F29E
:101F30000008C2F2000500210028A8F8000029804E
:101F400002F04F8140F2100640F2FD07C2F2000697
:101F5000C2F200074FF40454FEF758FB3088B188F2
:101F600000BA000CA7F8070008BA3189000CA7F8DE
:101F7000090008BAB189000CA7F80B0008BA318A29
:101F8000000CA7F80D0008BA7169000CA7F80F0043
:101F9000080A78740E20B974A7F81340FFF772FB93
:101FA0002888B8F80010013082B28A422880D3D342
:101FB00002F017B941F20000C4F2010000F5E0554B
:101FC00028460021012204F04DF828460021042271
:101FD00003F0E8FE28460121012204F043F82846D8
:101FE0000121042203F0DEFED8F800000088A042A0
:101FF00000F0BD80AC208BF832000120FFF722FEFC
:1020000002F0EFB843F20045C4F201052846012171
:10201000012204F027F841F20000C4F2010000F5AB
:10202000E05630460121042203F0BCFE284602217E
:10203000012204F017F830460221042203F0B2FE18
:10204000D8F800000088484500F0F281AC208BF8F9
:1020500032000120FFF7F6FD02F0C3B8306845F208
:102060004629C5F24519B0EB090018BF0120FC2F25
:1020700018BF002840F04481002800F070839AF8CF
:1020800002009AF8031041EA0020FEF7E7F99FEDFD
:10209000F40B02460B4651EC100BFEF770F99FED66
:1020A000F20B53EC102BFEF7C3F8FEF7F5F9FFF730
:1020B0002FFB41F20000C4F2010000F5E055284674
:1020C0000021012203F0CEFF28460021042203F064
:1020D00069FE28460121012203F0C4FF28460121A0
:1020E000042203F05FFEAC208BF832000120FFF7E2
:1020F000A9FD02F076B8306844F24419C3F24309EE
:10210000B0EB090018BF0120DC2F18BF002840F0F9
:102110004181FEF763FCFFF7B1FAD8F8000041F205
:10212000AB510068C2F20001012248450A7000F07C
:10213000668340F20400BAF80120C2F200000021D8
:10214000017010BA020C41F24E50C2F2000002803F
:102150000020002102F0D2FE002002F011FFFFF764
:10216000A3FAAC2001268BF8320000F035BD45F211
:102170005240C0F60D20CBF8390045F25340C5F26D
:102180004120CBF8360045F25070C2F24D00CBF83A
:1021900032000B20FFF756FD02F023B8306845F2FD
:1021A0004629C5F24519B0EB090018BF0120FC2FE4
:1021B00018BF002840F08481002800F054859AF868
:1021C00002009AF8031041EA0020FEF747F99FED5C
:1021D000A40B02460B4651EC100BFEF7D0F89FED16
:1021E000A20B53EC102BFEF723F8FEF755F9FFF77F
:1021F000BFFB43F20045C4F201052846012101223C
:1022000003F030FF28460121042203F0CBFD2846CD
:102210000221012203F026FF28460221042203F0B6
:10222000C1FDAC208BF832000120FFF70BFD01F05F
:10223000D8BF40F21000C2F2000041F288560024DC
:10224000051FC2F2000600BFFEF7E0F96FF00300C1
:10225000294600BF331851F8042F5F6804303A4410
:1022600014285A60F6D101340A2CEDD3D8F80000B6
:102270000068484500F0D58296E88E004CF6CD40C7
:10228000CCF6CC40A1FB0051A2FB0052A3FB0035D1
:10229000A7FB00373369A3FB00347369A3FB00037A
:1022A000C80A8BF83200C8088BF83300D00A8BF8C4
:1022B00035002020D1088BF834008BF83610E9085F
:1022C000EA0A8BF837008BF838208BF83910F908B8
:1022D000FA0A8BF83A008BF83B208BF83C10E108A7
:1022E000E20A8BF83D008BF83E208BF83F108BF80C
:1022F0004000D80800BA000C1125ABF841004CE3AF
:10230000308845F24449B0EB090018BF0120D12FB5
:1023100018BF002840F01D8141F20000C4F2010006
:1023200000F5E05630460021002203F09BFE3046C7
:102330000021002203F036FD304601210022012752
:1023400003F090FE30460121002203F02BFDFEF742
:1023500005FDD8F800000088484500F0E38342F608
:102360002C40C4F20100816940F2FF329143816147
:102370009AF8021082691143816141F24850C2F219
:1023800000000770AC208BF832000120FFF75AFCE8
:1023900001F027BF306844F24419C3F24319B0EB8F
:1023A000090018BF0120DD2F18BF002840F011815F
:1023B000FEF714FBFFF762F9D8F8000041F2AB51C9
:1023C0000068C2F20001012648450E7000F0DE836D
:1023D00040F20400BAF80110C2F20000067008BA18
:1023E000020C41F24E50C2F2000002800120002196
:1023F00002F084FD012002F0C3FDFFF755F9AC2087
:102400008BF83200E8E340F60D20ABF83A0045F2D5
:102410005340C5F24F00CBF8360045F25070C2F27F
:102420004D00CBF832000A20FFF70CFC01F0D9BEBA
:1024300040F65450C0F20A00CBF8390044F2541070
:10244000C5F25240CBF8360045F25320C5F2203099
:10245000CBF832000B20FFF7F5FB01F0C2BE00BF46
:1024600000000000004CFD40000000000000F0BF34
:102470000000C84246F23251C0F600013846082238
:10248000FDF7A6FE372C18BF002840F0A68241F2C7
:102490004850C2F200000321017046F23251C0F6EA
:1024A000000138460822FDF793FE002800F02B8536
:1024B0009AF80250AC2001248BF8320000F039BDAC
:1024C000308845F24449B0EB090018BF0120D12FF4
:1024D00018BF002840F0998243F20046C4F201067A
:1024E000304601210022012703F0BCFD30460121C6
:1024F000002203F057FC30460221002203F0B2FD17
:1025000041F20000C4F2010000F5E0500221002277
:1025100003F048FCFEF722FCD8F80000008848458C
:1025200000F03A85706C40F2FF31884370649AF88D
:102530000200716C0843706441F24850C2F200001E
:102540000770AC208BF832000120FFF77BFB01F015
:1025500048BE308844F24431401A18BF0120DC2FB5
:1025600018BF002841F03D86002800F0808442F624
:102570002C40C4F2010090ED000A1FED432AB8EE92
:10258000400A9AF8021001EE101AB8EE411A81EED4
:10259000021A21EE000ABCEEC00A80ED020A90ED9C
:1025A000000AB8EE400A9AF8021001EE101AB8EECE
:1025B000411A81EE021A21EE000ABCEEC00A80ED3B
:1025C000030AAC208BF832000120FFF73BFB01F03F
:1025D00008BE306845F24701C4F64971401A18BF79
:1025E00001206F2F18BF002840F0538246F2195186
:1025F000C0F600010020FDF7F9FDC8F800000168F1
:1026000044F25252C4F241420646881A18BF0120D1
:10261000914200F095839AF801507D2D00F090834F
:1026200046F23B51C0F6000130460722FDF7D0FDCF
:102630007F2D18BF002840F0DF84FEF751FAD8F84C
:10264000000046F23B51C0F600010722FDF7C0FD35
:1026500041F20005C4F20105002800F0CB870020FC
:10266000CBF8320028464FF4804102F0CFFE9BF8B1
:102670003210002818BF012040EA41008BF83200D8
:102680002846102102F0C2FE9BF83210002818BF25
:10269000012040EA4100A5F580678BF832003846FA
:1026A000042102F0B3FE9BF83210002818BF01206D
:1026B00040EA41008BF832002846402102F0A6FE95
:1026C0009BF83210002818BF012040EA41008BF827
:1026D000320028464FF4007102F098FE9BF8321049
:1026E000002818BF012040EA41008BF8320028463C
:1026F0004FF4806102F08AFE9BF83210002818BF68
:10270000012040EA41008BF8320028464FF4006176
:1027100002F07CFE9BF83210002818BF012040EA2E
:1027200041008BF8320028464FF4805102F06EFED3
:102730009BF83210002818BF012040EA41008BF8B6
:10274000320028464FF4005102F060FE002800F0ED
:10275000BA879BF832004000013000F0B7BF46F264
:102760001951C0F600010020FDF740FDC8F8000037
:1027700001F08CFEFDF783FE1FEDC70B02460B46F2
:1027800051EC100BFDF7FBFD1FEDC90B53EC102BAB
:10279000FDF74EFDFDF780FEFEF7BAFF41F20000A7
:1027A000C4F2010000F5E05528460021012203F0A3
:1027B00059FC28460021042203F0F4FA284601219E
:1027C000012203F04FFC28460121042203F0EAFA1B
:1027D00040F60D20ABF83E0045F24140C4F24540C2
:1027E000CBF83A0045F22050C4F25040CBF8360006
:1027F0000E20CBF83290FFF725FA01F0F2BC46F23A
:102800001951C0F600010020FDF7F0FCC8F80000E7
:1028100001F03CFE02460020002102F06FFB002088
:10282000C5E130684CF6CD48CCF6CC48A0FB080199
:1028300044F25450C5F24D004BF8320F42F23A07C1
:10284000ABF80470C1F3CF0258460621FDF7E0FF54
:1028500040F60D290C20ABF80A900C25FFF7F2F991
:102860007068ABF80470A0FB080144F25620C5F272
:102870005530CBF80000C1F3CF0258460621FDF7D2
:10288000C7FF0C20ABF80A90FFF7DCF9B06844F200
:102890004E1AA0FB080145F24250C2F65310C4F68E
:1028A000281AABF80870CBF80400CBF800A0C1F3ED
:1028B000CF0258460A21FDF7ABFF0A20ABF808907B
:1028C000FFF7C0F9F068ABF80470A0FB080145F20F
:1028D0004900C4F65210CBF80000C1F3CF025846AD
:1028E0000621FDF795FF0C20ABF80A90FFF7AAF937
:1028F0003069ABF80470A0FB080144F25620C5F221
:102900004140CBF80000C1F3CF0258460621FDF745
:102910007FFF0C20ABF80A90FFF794F97069ABF8D1
:102920000470A0FB080144F24920C5F24140CBF8F5
:102930000000C1F3CF0258460621FDF769FF0C20C5
:10294000ABF80A90FFF77EF97069ABF80870A0FB4E
:10295000080144F25350C2F64310CBF80400CBF800
:1029600000A0C1F3CF0258460A21FDF751FF0C2009
:10297000ABF80A90FFF766F97069A0FB080144F212
:102980004E10C2F23A00CBF80000C1F3CF02584615
:102990000421FDF73DFFABF80A902846FFF752F9F6
:1029A0000020C6E90000C6E90200C6E9040001F003
:1029B00018BC0A20ABF83A0044F65470C0F65050E8
:1029C000CBF8360045F25320C5F22030CBF8320068
:1029D0000A20FFF737F901F004BC386845F253418B
:1029E000C5F24F01401A18BF0120302C18BF002833
:1029F00041F0F783002800F09C83AC208BF8320074
:102A00000120FFF71FF901F0ECBB308844F244319C
:102A1000401A18BF0120DC2F18BF002841F0E183C5
:102A2000002800F0948342F62C40C4F2010090ED9F
:102A3000000A9FEDBC2AB8EE400A9AF8021001EE97
:102A4000101AB8EE411A81EE021A43F20041C4F2A4
:102A5000010121EE000ABCEEC00A81ED0D0A90EDE5
:102A6000000AB8EE400A9AF8020001EE100AB8EE29
:102A7000411A81EE021AAC2021EE000ABCEEC00A17
:102A800081ED0E0A8BF832000120FFF7DBF801F030
:102A9000A8BB306844F25511C5F25241401A18BF24
:102AA0000120CA2F18BF002840F0A38146F2195117
:102AB000C0F600010020FDF799FBC8F8000000886F
:102AC00044F65454A04204D09AF80000CA2841F0B9
:102AD000888340F2D00043F2310143F2513242F296
:102AE0004F0344F24857C2F20000C0F60D21C3F272
:102AF0003202C5F24D03C4F64C47C0E90573C0E984
:102B000007211020FEF7BAFCD8F800000088A04288
:102B100000F07184AC208BF832000120FFF792F8AE
:102B200001F05FBB46F21951C0F600010020FDF72D
:102B30005DFB42F62C44C8F80000C4F20104A16910
:102B400040F2FF329143A16101F0A0FCA169C0B243
:102B50000843A06141F24850C2F20000077045F2FC
:102B60004440C5F22050CBF8320044F25040C5F248
:102B70004140CBF8360044F24540C0F60D20CBF87A
:102B80003A000C20FFF75EF801F02BBB46F219511A
:102B9000C0F600010020FDF729FBC8F8000001F095
:102BA00075FC02460120002102F0A8F9012002F084
:102BB000E7F940F60D20ABF83E0045F24140C4F283
:102BC0004540CBF83A0045F22050C4F25040CBF8D3
:102BD0003600CBF832900D263046FFF733F840F23E
:102BE0001810C2F200003221FDF7E7FABDEC048BA9
:102BF00001B0BDE8F08F46F21951C0F60001002087
:102C00000024FDF7F3FAC8F8000001F03FFC41F2A0
:102C1000A85841F24256C2F20008C2F2000600284B
:102C2000A8F80000348001F0DC8240F21007C2F204
:102C300000070BF1320540F60D24FDF7E7FC3A885A
:102C400028460021FDF7E4FD0620ABF83640FEF7EC
:102C5000F9FF3088B8F80010013082B28A42308023
:102C6000EBD301F0BEBA46F21951C0F600010020C4
:102C7000FDF7BCFAC8F8000001F008FCFDF7FFFB07
:102C80009FED290B02460B4651EC100BFDF777FB2D
:102C90009FED270B53EC102BFDF7CAFAFDF7FCFB59
:102CA000FEF736FD43F20045C4F201052846012136
:102CB000012203F0D7F941F20000C4F2010000F54F
:102CC000E05630460121042203F06CF82846022128
:102CD000012203F0C7F930460221042203F062F812
:102CE00040F60D20ABF83E0045F24140C4F24540AD
:102CF000CBF83A0045F22050C4F25040CBF83600F1
:102D00000E20CBF83290FEF79DFF01F06ABA00BFAB
:102D100050574D00535200004144430053414D5021
:102D20004C4553000000C84200000000004CFD402C
:102D3000000000000000F0BF43414E0046414E003D
:102D4000002800F0D38141F200050020C4F2010503
:102D50008BF8320028464FF4005102F057FB01383F
:102D6000B0FA80F09BF83210400940EA41008BF83D
:102D7000320028464FF4004102F048FB9BF8321025
:102D8000002818BF012040EA41008BF83200A5F569
:102D90000060402102F03AFB0138B0FA80F09BF865
:102DA0003210400940EA41008BF8320028462021C9
:102DB00002F02CFB0138B0FA80F09BF83210400989
:102DC00040EA41008BF83200A5F580604FF4805155
:102DD00002F01CFB0138B0FA80F09BF83210400979
:102DE00040EA41008BF832000120FEF72BFF01F092
:102DF000F8B9AFF2BC0130460322FDF7E9F9C52F5F
:102E000018BF002840F0218146F21951C0F6000198
:102E10000020FDF7EBF9C8F80000008844F6545490
:102E2000A04204D09AF80000C52841F0DA8140F2AF
:102E30002800C2F200005521A0F8A010032180F85C
:102E4000A41045F24D01A0F80B1053214173FDF77A
:102E50001DFCD8F800000088A04200F06185AC207D
:102E60008BF832000120FEF7EDFE01F0BAB946F210
:102E70001951C0F600010020FDF7B8F942F62C44C4
:102E8000C8F80000C4F2010494ED000A0546B8EE4B
:102E9000408A01F0FBFA00EE100A1FED5E9AB8EED0
:102EA000400A80EE090A284620EE080ABCEEC00A55
:102EB00084ED020A94ED000AB8EE408A01F0E6FAC9
:102EC00000EE100AB8EE400A80EE090A44F24430DF
:102ED000C5F2205020EE080ABCEEC00A84ED030AB9
:102EE000CBF8320044F25040C5F24140CBF83600F6
:102EF00044F24540C0F60D20CBF83A000C20FEF716
:102F0000A1FE01F06EB946F21951C0F60001002091
:102F1000FDF76CF9C8F8000001F0B8FA46F28851E4
:102F200005460BF13200C0F6000112221224FDF713
:102F30002BF92046FEF786FEFEF7B6FBFDF70EFFE7
:102F40004FF0FF3050FA85F0072800F27C81DFE86F
:102F500010F008009501B001CB01E60101021C024E
:102F6000370240F2B010C2F20000012106F5A05471
:102F7000017020460121012201F0BCFC06F5C05081
:102F80000121002201F0B6FC204600210A22002384
:102F900001F02CFD01F025B946F21951C0F60001EF
:102FA0000020FDF723F9C8F80000716C40F2FF32F1
:102FB0009143716401F06AFA716CC0B208437064A5
:102FC00041F24850C2F20000077045F24440C5F299
:102FD0002050CBF8320044F25040C5F24140CBF8CB
:102FE000360044F24540C0F60D20CBF83A000C20E4
:102FF000FEF728FE01F0F5B846F24351C0F6000195
:1030000030460622FDF7E4F8A42D18BF002840F052
:10301000EE80FEF785F841F24B51C2F2000100222A
:10302000D8F800000A7046F24351C0F600010622AB
:10303000FDF7CEF8002800F07F84AC208BF832003A
:103040000120FEF7FFFD01F0CCB8AFF210313046A1
:103050000322FDF7BDF8FA2F18BF002841F0C18008
:1030600046F21951C0F600010020FDF7BFF8C8F87C
:1030700000000646008844F64F64A04200F0D98262
:103080009AF80170F02F00F0D48246F22E51C0F66B
:10309000000130460322FDF79BF80F2F18BF0028D0
:1030A00041F0AD8041F20004C4F20104A4F5806057
:1030B000102104224FF4807302F04EF9A4F58430FD
:1030C00002F0F8FFD8F8000046F22E51C0F60001D9
:1030D0000322FDF77DF8002801F0DF80AC208BF89B
:1030E00032000120FEF7AEFD01F07BB841F2000591
:1030F000C4F2010528464FF4005102F087F9012877
:1031000040F084810A208BF83E0044F24970C0F6FA
:103110004850CBF83A0043F64520C4F62000CBF8DF
:10312000360045F25340C5F24140CBF832000D2045
:103130007FE146F274510BF13200C0F6000111221A
:10314000FDF722F81120FEF77DFD01F04AB846F2A6
:103150001951C0F600010020FDF748F842F62C4452
:10316000C8F80000C4F2010494ED000A0546B8EE68
:10317000408A01F08BF900EE100A9FEDF09AB8EE4C
:10318000400A80EE090A43F20046C4F201062846CE
:1031900020EE080ABCEEC00A86ED0D0A94ED000A86
:1031A000B8EE408A01F072F900EE100AB8EE400A5B
:1031B00080EE090A44F24430C5F2205020EE080A9D
:1031C000BCEEC00A86ED0E0ACBF8320044F2504045
:1031D000C5F24140CBF8360044F24540C0F60D2020
:1031E000CBF83A000C20FEF72DFD00F0FABF46F2B6
:1031F0001E51C0F6000130460722FCF7E9FF852D7D
:1032000018BF002840F03382FDF7C6FD002001F012
:10321000A7FE41F24B51C2F200010122D8F8000092
:103220000A7046F21E51C0F600010722FCF7D0FFDB
:10323000002801F02880AC208BF832000220FEF735
:1032400001FD00F0CEBF40F2B010C2F2000001213B
:1032500006F5A054017020460121012201F04AFB2D
:1032600006F5C0500121002201F044FB2046002158
:103270000A22002301F0BAFB00F0B3BF40F2B01005
:10328000C2F20000012106F5A05401702046012180
:10329000012201F02FFB06F5C0500121002201F0B0
:1032A00029FB204600210B22002301F09FFB00F0A8
:1032B00098BF40F2B010C2F20000012106F5A05400
:1032C000017020460121012201F014FB06F5C050D7
:1032D0000121002201F00EFB204600210C220023D8
:1032E00001F084FB00F07DBF40F2B010C2F200009C
:1032F0000121017006F5A0500121012201F0FAFA26
:1033000006F5C05420460121002201F0F3FA2046C0
:1033100000210D22002301F069FB00F062BF40F2A2
:10332000B010C2F200000021017006F5A05001218A
:10333000002201F0DFFA06F5C054204601210122E7
:1033400001F0D8FA204600210022002301F04EFBB4
:1033500000F047BF40F2B010C2F20000002101703F
:1033600006F5A0500121002201F0C4FA06F5C05470
:1033700020460121012201F0BDFA20460021012250
:10338000002301F033FB00F02CBF40F2B010C2F27A
:1033900000000021017006F5A0500121002201F07B
:1033A000A9FA06F5C05420460121012201F0A2FA33
:1033B000204600210222002301F018FB00F011BF7B
:1033C00040F2B010C2F200000021017006F5A050DA
:1033D0000121002201F08EFA06F5C0542046012199
:1033E000012201F087FA204600210322002301F088
:1033F000FDFA00F0F6BE0BF1320051A11522FCF7E8
:10340000C3FE1520FEF71EFC00F0EBBE45F24F7028
:10341000C0F60D20CBF83A0043F64520C4F6204014
:10342000CBF8360045F25340C5F24140CBF83200AC
:103430000C20FEF707FC28464FF4004101F0E6FFA0
:10344000012817D140F60D20ABF83E0044F6481095
:10345000C4F64700CBF83A0044F24C50C2F23A00AE
:10346000CBF8360044F64560C4F24120CBF8320078
:103470000E2015E00A208BF83E0044F64C70C0F692
:103480005750CBF83A0044F24C50C2F23A00CBF815
:10349000360044F64560C4F24120CBF832000D20DE
:1034A000FEF7D0FBA5F50060402101F0AFFF012839
:1034B0000AD146F260510BF13200C0F60001112230
:1034C0001126FCF761FE18E045F24F70C0F60D20A2
:1034D000CBF83E0043F62920C4F62040CBF83A0052
:1034E00045F24330C4F24530CBF8360044F24E305A
:1034F000C4F628701026CBF832003046FEF7A2FB47
:103500002846202101F082FF012825D10A208BF8CE
:103510003E0044F24970C0F64850CBF83A0043F6FA
:103520004B20C4F62000CBF8360044F25740C4F6D6
:103530005F70CBF832000D2021E000BF0000C842D0
:1035400055415254322054455354204D5347207313
:10355000656E640D0A00000045F24F70C0F60D2044
:10356000CBF83A0043F64B20C4F62040CBF83600A7
:1035700044F25740C4F65F70CBF832000C20FEF7DF
:1035800061FBA5F580604FF4805101F03FFF0128F9
:1035900019D10A208BF83E0044F24970C0F6485019
:1035A000CBF83A0043F64920C4F62000CBF83600A9
:1035B00044F24F30C5F25020CBF832000D20FEF718
:1035C00041FB00F00EBE45F24F70C0F60D20CBF867
:1035D0003A0043F64920C4F62040CBF8360044F2C6
:1035E0004F30C5F25020CBF832000C20FEF72AFBFA
:1035F00000F0F7BD28464FF4804101F007FF002896
:1036000044F2497844F64140C0F64858C5F241209A
:1036100000F09E810A218BF83E1043F64D21C4F63E
:103620002001CBF83A80CBF83610CBF832000D20D1
:103630009DE141F20000C4F20100A0F58060182174
:1036400004224FF4807301F087FE40F20770FEF70A
:103650000FF9D8F800000088A04200F00486AC20E2
:103660008BF832000120FEF7EDFA00F0BABD46F209
:103670002651C0F6000130460722FCF7A9FD582D5F
:1036800018BF002840F0AD85FDF768FC002001F070
:1036900067FC41F24B51C2F200010222D8F800004F
:1036A0000A7046F22651C0F600010722FCF790FD91
:1036B000002800F00586AC208BF832000220FEF7CF
:1036C000C1FA00F08EBD9BF8330040008BF8330048
:1036D00028464FF4004101F099FE20B19BF83200DA
:1036E0004000013002E09BF833004000A5F5006681
:1036F0008BF833003046402101F088FE20B19BF862
:1037000032004000013002E09BF8330040008BF8AB
:1037100033002846202101F079FE20B19BF83200C9
:103720004000013002E09BF8330040008BF833008A
:1037300038464FF4805101F069FE20B19BF8320009
:103740004000013002E09BF8330040008BF833006A
:1037500030464FF4007101F059FE20B19BF8320061
:103760004000013002E09BF8330040008BF833004A
:1037700030464FF4807101F049FE20B19BF83200D1
:103780004000013002E09BF8330040008BF833002A
:1037900028464FF4807101F039FE20B19BF83200C9
:1037A0004000013002E09BF8330040008BF833000A
:1037B0002846802101F02AFE20B19BF8320040000B
:1037C000013002E09BF8340040008BF834003846AA
:1037D0004FF4807101F01AFE20B19BF832004000D6
:1037E000013002E09BF8340040008BF8340028469A
:1037F000012101F00BFE20B19BF8320040000130A6
:1038000002E09BF8340040008BF834002846022187
:1038100001F0FCFD20B19BF832004000013002E0D5
:103820009BF8340040008BF834002846042101F056
:10383000EDFD20B19BF832004000013002E09BF822
:10384000340040008BF834002846082101F0DEFDEA
:1038500020B19BF832004000013002E09BF83400B8
:1038600040008BF834003046012101F0CFFD20B13B
:103870009BF832004000013002E09BF83400400029
:103880008BF834003046022101F0C0FD20B19BF8D6
:1038900032004000013002E09BF8340040008BF819
:1038A00034003046042101F0B1FD20B19BF8320014
:1038B0004000013002E09BF8350040008BF83500F5
:1038C0003046082101F0A2FD20B19BF832004000F3
:1038D000013002E09BF8350040008BF8350030469F
:1038E000102101F093FD20B19BF83200400001301F
:1038F00002E09BF8350040008BF83500304620216F
:1039000001F084FD20B19BF832004000013002E05C
:103910009BF8350040008BF83500042000F057BCC0
:103920000BF132000FF634211322FCF72DFC13208B
:10393000FEF788F900F055BC0BF132000FF6682154
:103940001F22FCF721FC1F20FEF77CF900F049BC88
:1039500045F24F71C0F60D21CBF83A1043F64D21D8
:10396000C4F62041CBF832000C20CBF83610FEF71D
:1039700069F92846102101F049FD44F6481444F243
:103980005741C4F64704C2F23A0128B10D208BF822
:103990003A00CBF8364006E044F64C70C0F657507B
:1039A000CBF836000C20CBF83210FEF74BF9A5F51A
:1039B00080673846042101F029FD002844F64709B4
:1039C00042F23A0A45F6547145F25530C0F60D29D7
:1039D000C4F6481AC4F24451C5F2412009D0CBF8CC
:1039E0003E90CBF83AA0CBF83610CBF832000D2041
:1039F00010E045F24F72C0F60D22CBF83D2042F2A6
:103A00003A02C4F64C72CBF832000C20CBF83A20C4
:103A1000CBF83610FEF716F92846402101F0F6FCE7
:103A2000002845F25320C4F25F500ED00A218BF8D3
:103A30003E1043F64E21C4F62001CBF83A80CBF875
:103A40003610CBF832000D200EE045F24F71C0F673
:103A50000D21CBF83A1043F64E21C4F62041CBF8A5
:103A600032000C20CBF83610FEF7ECF828464FF465
:103A7000007101F0CBFC002844F6456145F250701E
:103A8000C2F23A01C5F64D700BD040F60D22ABF8EC
:103A90003E20CBF83A40CBF83610CBF832000D2060
:103AA0000DE00A228BF83E2044F64C72C0F65752C5
:103AB000CBF832000C20CBF83A20CBF83610FEF7CA
:103AC000C1F828464FF4806101F0A0FC002844F2C0
:103AD0004C50C3F2441007D0CBF83A90CBF836A044
:103AE000CBF832000D200EE045F24F71C0F60D21EB
:103AF000CBF8391042F23A01C4F64C71CBF83200DF
:103B00000C20CBF83610FEF79DF828464FF40061E4
:103B100001F07CFC002844F24C50C3F2442007D052
:103B2000CBF83A90CBF836A0CBF832000D200EE05F
:103B300045F24F71C0F60D21CBF8391042F23A012F
:103B4000C4F64C71CBF832000C20CBF83610FEF7DF
:103B500079F828464FF4805101F058FC002844F2CF
:103B60004C50C3F2443007D0CBF83A90CBF836A093
:103B7000CBF832000D200EE045F24F71C0F60D215A
:103B8000CBF8391042F23A01C4F64C71CBF832004E
:103B90000C20CBF83610FEF755F828464FF40051AC
:103BA00001F034FC002845F25340C5F241400ED0EC
:103BB0000A218BF83E1043F64521C4F62001CBF8CC
:103BC0003A80CBF83610CBF832000D200EE045F2EB
:103BD0004F71C0F60D21CBF83A1043F64521C4F6DB
:103BE0002041CBF832000C20CBF83610FEF72AF833
:103BF00028464FF4004101F009FC002844F24C51E2
:103C000044F64560C2F23A01C4F241200BD040F6BE
:103C10000D22ABF83E20CBF83A40CBF83610CBF86B
:103C200032000D200DE00A228BF83E2044F64C7243
:103C3000C0F65752CBF832000C20CBF83A20CBF824
:103C40003610FDF7FFFFA5F500663046402101F074
:103C5000DDFB50B146F260510BF13200C0F60001BD
:103C60001122FCF791FA0D2018E045F24F70C0F6D2
:103C70000D20CBF83E0043F62920C4F62040CBF8B7
:103C80003A0045F24330C4F24530CBF8360044F2F6
:103C90004E30C4F62870CBF832000C20FDF7D2FF6E
:103CA0002846202101F0B2FB002844F25740C4F618
:103CB0005F700ED00A218BF83E1043F64B21C4F6FC
:103CC0002001CBF83A80CBF83610CBF832000D202B
:103CD0000EE045F24F71C0F60D21CBF83A1043F6D5
:103CE0004B21C4F62041CBF832000C20CBF8361023
:103CF000FDF7A8FF38464FF4805101F087FB44F2EE
:103D00004F31C5F2502178B10A208BF83E0043F6BE
:103D10004920C4F62000CBF83A80CBF836000C4698
:103D2000CBF832100D200FE045F24F70C0F60D2099
:103D3000CBF83A0043F64920C4F62040CBF83600D1
:103D40000C460C20CBF83210FDF77CFF30464FF4C8
:103D5000007101F05BFB002845F25070C4F64D4045
:103D600007D0CBF83A90CBF836A0CBF832000D2034
:103D70000EE045F24F71C0F60D21CBF8391042F23A
:103D80003A01C4F64C71CBF832000C20CBF8361057
:103D9000FDF758FF30464FF4807101F037FB0028E3
:103DA00045F25070C4F64D0007D0CBF83A90CBF8EE
:103DB00036A0CBF832000D200EE045F24F71C0F670
:103DC0000D21CBF8391042F23A01C4F64C71CBF810
:103DD00032000C20CBF83610FDF734FF28464FF4A4
:103DE000807101F013FB002844F6200845F25320AF
:103DF000C4F24978C3F6482007D0CBF83990CBF805
:103E00003680CBF832000D200CE040F60D21ABF8E7
:103E10003A1044F62041C5F24F71CBF832000C2025
:103E2000CBF83610FDF70EFF2846802101F0EEFAA0
:103E3000002845F25320C3F64C2007D0CBF8399028
:103E4000CBF83680CBF832000D200CE040F60D2187
:103E5000ABF83A1044F62041C5F24F71CBF832006E
:103E60000C20CBF83610FDF7EDFE38464FF480718C
:103E700001F0CCFA002844F24610C3F64E2007D0D9
:103E8000CBF83990CBF83680CBF832000D200CE01F
:103E900040F60D21ABF83A1044F62041C5F24F71BF
:103EA000CBF832000C20CBF83610FDF7CBFE2846BD
:103EB000012101F0ABFA58B144F25450C5F24D0063
:103EC000CBF83A90CBF836A0CBF832000D2012E0B8
:103ED00045F24F70C0F60D20CBF8390042F23A009F
:103EE000C4F64C70CBF8360044F25450C5F24D0085
:103EF000CBF832000C20FDF7A5FE2846022101F088
:103F000085FA58B144F25620C5F25530CBF83A90B4
:103F1000CBF836A0CBF832000D2012E045F24F70FE
:103F2000C0F60D20CBF8390042F23A00C4F64C70CE
:103F3000CBF8360044F25620C5F25530CBF83200AB
:103F40000C20FDF77FFE2846042101F05FFA44F2C1
:103F50004E17C4F6281768B145F24250C2F6531006
:103F6000CBF83E90CBF83AA0CBF83600CBF83270C5
:103F70000D2014E045F24F70C0F60D20CBF83D0047
:103F800042F23A00C4F64C70CBF83A0045F2425087
:103F9000C2F65310CBF836000C20CBF83270FDF788
:103FA00051FE2846082101F031FA58B145F2490086
:103FB000C4F65210CBF83A90CBF836A0CBF83200CA
:103FC0000D2012E045F24F70C0F60D20CBF83900FD
:103FD00042F23A00C4F64C70CBF8360045F2490084
:103FE000C4F65210CBF832000C20FDF72BFE304601
:103FF000012101F00BFA58B144F25620C5F24140BC
:10400000CBF83A90CBF836A0CBF832000D2012E076
:1040100045F24F70C0F60D20CBF8390042F23A005D
:10402000C4F64C70CBF8360044F25620C5F241403D
:10403000CBF832000C20FDF705FE3046022101F0DE
:10404000E5F958B144F24920C5F24140CBF83A9025
:10405000CBF836A0CBF832000D2012E045F24F70BD
:10406000C0F60D20CBF8390042F23A00C4F64C708D
:10407000CBF8360044F24920C5F24140CBF832007B
:104080000C20FDF7DFFD3046042101F0BFF968B1D7
:1040900044F25350C2F64310CBF83E90CBF83AA00E
:1040A000CBF83600CBF832700D2014E045F24F709B
:1040B000C0F60D20CBF83D0042F23A00C4F64C7039
:1040C000CBF83A0044F25350C2F64310CBF8360016
:1040D0000C20CBF83270FDF7B5FD3046082101F019
:1040E00095F988B140F60D20ABF83A0044F6481037
:1040F000C4F64700CBF8360044F24E10C2F23A0044
:10410000CBF832000D200FE00A208BF83A0044F67D
:104110004C70C0F65750CBF8360044F24E10C2F245
:104120003A00CBF832000C20FDF78CFD3046102110
:1041300001F06CF968B145F24940C3F64820CBF86C
:104140003D90CBF83A80CBF83600CBF832400D20CA
:1041500012E040F60D20ABF83E0044F62040C5F2D8
:104160004F70CBF83A0045F24940C3F64820CBF8EF
:1041700036000C20CBF83240FDF764FD304620219C
:1041800001F044F950B146F24C510BF13200C0F647
:1041900000011122FBF7F8FF0D2018E045F24F70E7
:1041A000C0F60D20CBF83E0043F62920C4F620408F
:1041B000CBF83A0045F24330C4F24530CBF8360034
:1041C00044F24E10C4F62870CBF832000C20FDF7F4
:1041D00039FDFCF7A5FFFDF747FDFDF761F9FCF799
:1041E0009FFD40F21810C2F200003221FBF7E5FFFC
:1041F000BDEC048B01B0BDE8F04F00F05BBB308834
:1042000044F24431401A18BF0120DC2F18BF0028A7
:10421000E7D141F200060028C4F201065AD0A6F503
:104220008230A0F5757090ED000A9FED4B2AB8EE34
:10423000400A9AF802004FF63C0101EE100AB8EE6F
:10424000411A81EE021ACFF6FE7121EE000ABCEE91
:10425000C00A10EE100A7050AC208BF8320001201A
:10426000FDF7F0FCBDE744F64F60C0F60D20CBF83B
:10427000360044F24610C2F24E00CBF8320008205D
:10428000FDF7E0FCADE70BF1320040A11B22FBF78C
:104290007BFF1B20FDF7D6FCA3E70A208BF83A0032
:1042A00044F24F60C0F64650CBF8360044F2461058
:1042B000C2F24E00CBF832000920FDF7C3FC90E7B4
:1042C0000BF132002AA11B22FBF75EFF1B20FDF73A
:1042D000B9FC86E746F21951C0F600010020FBF751
:1042E00085FFA6F58231C8F80000A1F5757191ED42
:1042F000000AB8EE408A00F0C9F800EE100A9FEDFF
:10430000161AB8EE400A80EE010A4FF63C01CFF6CD
:10431000FE7120EE080ABCEEC00A10EE100A7050C2
:1043200044F24610C2F24E00CBF8320044F2443060
:10433000C5F22050CBF8360044F25040C5F241405F
:10434000CBF83A0044F24540C0F60D20CBF83E00D1
:104350001020FDF777FC44E70000C84243414E209F
:1043600054455354204D53472073656E640D0A0025
:104370004750494F20736574206173206D696464F0
:104380006C65207465737420320D0A004750494FE4
:1043900020736574206173206D6964646C6520749A
:1043A00065737420310D0A00414C4C204750494F31
:1043B0002053455420544F205354414E44415244BD
:1043C000204D4F44450D0A00F0B595B0FCF7A8FE0E
:1043D000FDF74AFCFDF764F8FCF7A2FC40F2181662
:1043E000C2F200064FF4E135002406F132000F95C9
:1043F000CDE910441294CDE913060FA8FDF786FB12
:104400002027012086F83270FDF71CFCCDE9095405
:1044100040F2D005C2F2000505F11400CDE90B44CD
:10442000CDE90D0509A8FCF79BFF01202F75FDF7CD
:1044300025F840F2FD00C2F2000000F1080105304D
:104440000294CDE90544CDE907440391049002A804
:10445000FDF744F84FF4FA7000906846ADF8044058
:10446000FCF71AFCFCF716FA40F2AF40FDF750F9E2
:104470000E20FDF753FA40F2AF40FDF779FA40F60F
:10448000B730FDF7C1F915B0F0BD00000178A1F11A
:104490003002092A82BF002398B27047002200230D
:1044A00003EB83035B00013253FA81FC91B2415C60
:1044B000A1F130030A2BACF13003F1D398B270476D
:1044C000B0B501380024B4EB106F18BFB0BD4EF288
:1044D0001005CEF2000568600F2000F0F3F9072008
:1044E000AC602860B0BD000010B541F2AC54C2F21F
:1044F0000004206842F647010130CBF2A37141432A
:104500004EF633424FEA3111C0F20A029142206066
:1045100003D9BDE81040FDF7CBBB41F23951C2F2DF
:1045200000010A7840F60040B2FA82F35B09C4F257
:1045300001000B704FF400713AB100F0C7FE00208B
:104540002060BDE81040FDF7B3BB00F0C1FEBDE840
:104550001040FDF7ADBB000080B54EF68850CEF29E
:10456000000001684FF6FF7241F47001016041F2F2
:104570000000C4F202000168CEF6F62241F001010B
:10458000016000214160C1620168114001604FF487
:104590007F018160016821F48021016001F0E6FB68
:1045A0004FF000600021BDE8804001F0FDB900003F
:1045B00010B542F60044C4F201042046012101F086
:1045C00091FE18B12046012101F086FE04F5006439
:1045D0002046012101F086FE002808BF10BD2046BC
:1045E0000121BDE8104001F077BE0000B0B54FF0EA
:1045F0008040012101F076FE002842D04FF080403B
:104600000121012401F068FE41F2AA55C2F2000521
:10461000287848B340F21815C2F20005287898B1FE
:1046200043F60004C4F201042046042101F00AFF0D
:10463000012809D12046042101F0F8FE012085F867
:1046400097001C2000F022F940F20400C2F20000A2
:104650000078022815D12878002818BFB0BD322074
:10466000BDE8B040FDF702BA40F21810C2F20000F7
:10467000323004A11222FBF787FD1220FDF7E2FA87
:104680002C70B0BD5354415254204F4B2056322E03
:1046900032352E31720A000010B540F60004C4F223
:1046A00000042046012101F01DFE002808BF10BDB6
:1046B00020460121BDE8104001F00EBE2DE9F04F6B
:1046C00081B040F60044C4F20104A4F580352846C8
:1046D000012101F007FE002800F081802846012119
:1046E00001F0FAFD41F24A50C2F2000001780029BF
:1046F00075D041F2B05141F2A053C2F20001C2F2B2
:1047000000030A881B884FF4FA570132B7FBF3F312
:1047100097B241F2445641F2A25A9F42C2F20006B9
:10472000C2F2000A0A8055D93288BAF800309A429B
:1047300050D2002004F58065088028464FF40051CF
:1047400000F064FE318840F2B1170138C2F2000770
:10475000B0FA80F07A5C400940EA4200785428467A
:104760004FF4004100F052FE31880138B0FA80F079
:104770007A5C400940EA420078542046022100F069
:1047800045FE31880138B0FA80F07A5C400940EA91
:104790004200785420464FF4805100F037FE3188B3
:1047A0000138B0FA80F07A5C400940EA420078545F
:1047B0002046202100F02AFE31880138B0FA80F02E
:1047C0007A5C400940EA42007854481C308001B0CD
:1047D000BDE8F08F3188BAF80020914202D201B0D2
:1047E000BDE8F08F0024047041F24950C2F200008D
:1047F00004703220348000F049F8BAF800003480A8
:10480000E8B341F24C5740F2181840F2B1194FF09A
:10481000000BC2F20007C2F20008C2F20009002138
:104820000EE000BF481E3870C0B2FDF70BFA3088AA
:1048300000F13201BAF800008AB2824231801ED201
:104840008DB284B2A5424FF0000087F800B0EBD2E1
:10485000EA43224408EB0500312A28BF31223230D6
:1048600009EB05010132FBF78FFC0120312800F133
:104870000101D7D82844A0420846F7D3D2E701B0B7
:10488000BDE8F04F00F016B870470000002848BFA0
:10489000704700F01F01012202FA01F14EF280126E
:1048A0004009CEF2000242F82010BFF34F8FBFF351
:1048B0006F8F70474EF20010CEF200004FF0805123
:1048C000016070474EF623510001CEF200010870DE
:1048D00070470000816841F0080181608168090724
:1048E000FCD4816841F00401816000BF8168490700
:1048F000FCD4704780B5012908D0022918BF80BDBB
:104900004FF4401E6FF4401C382304E04FF4700E47
:104910006FF4700C2C23195801EA0C0119500EEB9E
:1049200002511A5801EA0E011143195080BD0000CE
:104930008268002942F4006308BF22F400638360A8
:1049400070470000816841F4807181607047000009
:104950008168C90718BF7047816841F00101816013
:1049600070470000002A01F0010203D07AB98907DC
:1049700013D470471AB1826822F4801282608907CA
:1049800058BF7047816821F4004181607047826898
:1049900042F4801282608907EBD5816841F40041BE
:1049A00081607047012905D0022918BF70476FF454
:1049B000E04101E06FF46021836819408160816803
:1049C00011438160704700000068084018BF012053
:1049D0007047000042F20441C4F201010A6822F467
:1049E00070220A600A6810430860704710B50529F4
:1049F00004D800F1340C01EB810E10E00B2906D82D
:104A000001EB810100F1300CA1F11E0E07E00F292E
:104A100010D801EB810100F12C0CA1F13C0EDCF867
:104A200000101F2404FA0EF4A14302FA0EF42143ED
:104A3000CCF80010092A03D8103002EB420106E03E
:104A4000112A88BF10BD02EB42010C301E390268EA
:104A500007248C40A24303FA01F11143016010BD09
:104A6000D0F8802022F44052C0F88020D0F8802076
:104A70001143C0F880107047CA0703D0826842F41F
:104A800080028260890758BF7047816841F4001135
:104A900081607047002A01F4807205D0BAB94A05D6
:104AA0001BD489071FD470471AB1426822F4807260
:104AB00042604A0503D5426822F480624260890759
:104AC00058BF7047816821F00201816070474268D9
:104AD00042F4807242604A05E3D5426842F4806243
:104AE00042608907DFD5816841F00201816070472B
:104AF00010B546F20041C4F2000140F21A44884267
:104B000008BF40F21944204601F040F82046BDE8B5
:104B1000104001F02BB80000B0B546F20061C4F2BD
:104B2000000144890A684FF0010C42F001020A605A
:104B3000CB690CFA04F5AB43CB61C3896FEA050C72
:104B4000012B10D023BBCB6803EA0C03CB60B0F879
:104B500006E0438843EA0E434FEAC40E01EBC40467
:104B6000236403460DE0CB682B43CB60B0F800E034
:104B7000438843EA0E434FEAC40E01EBC4042364A6
:104B8000831D84881B8843EA044301EB0E0463649D
:104B900083894C68002B44EA050208BF04EA0C0232
:104BA0004A6002894B69002A43EA050408BF03EA08
:104BB0000C044C61007C012802D1C8692843C861FB
:104BC000086820F001000860B0BD000001F01F027D
:104BD00089094FF0010C0B580CFA02F21A430A50E3
:104BE000704700008A09105801F01F01C84000F00A
:104BF00001007047F0B581B00E4644F24021C0F28A
:104C00000F018E421BD80121044600F02DF900252A
:104C100001284FF0000708D1E06900F04047304616
:104C200000F0BCF938430127E0612046022100F082
:104C30001BF9012808BF3D46284601B0F0BD002001
:104C400001B0F0BDF0B5026840F2010C22F00202A2
:104C500002600268CFF6FF7C42F001026346026008
:104C6000426823B112F0010203F10103F8D0426857
:104C7000D20704BF0020F0BD0A7891F801E08B78DC
:104C80009207CC7803F00F0503F070036EF31C62FB
:104C90004F8942EA831204F0070604F0180442EA3E
:104CA0000542013F42EA84226FF39F2742EA0652FF
:104CB0003A44C2610A790368012A23F0800708BFD9
:104CC00043F0800707604A790368012A23F0400710
:104CD00008BF43F0400707608A790368012A23F080
:104CE000200708BF43F020070760CA790368012A3C
:104CF00043F0100708BF23F0100707600A7A036823
:104D0000012A23F0080708BF43F008070760497A23
:104D10000268012922F0040308BF42F00403036083
:104D2000016821F00101016042686146BCF1000F99
:104D300004D012F0010201F1010CF5D1002918BFD5
:104D400001210846F0BD0000F0B581B0054680683D
:104D5000400108D4A868000107D4A868C00006D4A0
:104D6000032001B0F0BD002002E0012000E002209D
:104D700005EB0013D3F8802102F00102C3F8802173
:104D80000A7A1AB14E6842EAC60201E00A68520580
:104D90004E7A91F84BE0D3F8804132434FEA001C41
:104DA0002243BEF1000FC3F8802104D02A6AD20743
:104DB0001BD100BFFEE70CEB0502D2F8846126F0A0
:104DC0000F06C2F884618E7AD2F884412643C2F875
:104DD0008461D1F80B60C2F88861D1F80F104FF4EC
:104DE000C6720CEB0507B95031E08C7A092C2246CB
:104DF0000CD346F212560022C0F60006B75CBC4245
:104E000003D00132072AF9D1FEE7093291F84C604C
:104E100091F84D7042EACE1242EA461242EA071772
:104E20000CEB0502C2F8847100270B31B7EB940F2D
:104E3000009114D0A10800BF009F01393F680E0601
:104E4000C2F88871009F07F104070097F4D1D3F8E6
:104E5000801141F00101C3F8801101B0F0BD00994B
:104E60004FF4C4720968BCE704291CD0022930D071
:104E700001291CBF00207047016821F00201016078
:104E800002680121CFF6FF7142F00102026000BF0B
:104E9000426821B112F0010201F10101F8D040682D
:104EA00000F001007047016821F001010160026813
:104EB0000121CFF6FF7142F002020260426821B187
:104EC00012F0020201F10101F8D04068C0F3400085
:104ED000704702680121CFF6FF7122F003020260E1
:104EE000426821B112F0030201F10101F8D14068DA
:104EF00000F00300B0FA80F04009704760B1022969
:104F000015D0012919D0002918BF704747F2084071
:104F1000C4F20000C2607047022914D0012918D0E1
:104F200051B947F20840C4F200000260704747F2EE
:104F30000840C4F200004261704747F20840C4F2E2
:104F400000000261704747F20840C4F2000082602E
:104F5000704747F20840C4F200004260704700000A
:104F600047F20041C4F200010A686FF48033002860
:104F700008BF6FF0010302EA0300086070470000F9
:104F800047F20441C4F200010A680223002808BF66
:104F9000012342EA030008607047000010B5044690
:104FA000022000F047FDB0FBF4FE4AF6AB20CAF643
:104FB000AA20AEFB00021009B0EB9E0F12D24FEAFE
:104FC0009E0C831C01301622002400BFD11C5943C3
:104FD000714508D0013C14F11601A2F10102F5D18E
:104FE0006045EED3FEE746F29C51C0F6000101EBAE
:104FF000C401D1E92C216FF39F2002F00F0261F36D
:10500000165040EA024010BDB0B50D46044600F00F
:10501000C5F848B105EB850004EB8000816821F0FC
:1050200001018160B0BD00BFFEE70000B0B50D46D4
:10503000044600F0B3F848B105EB850004EB8000AE
:10504000816841F001018160B0BD00BFFEE7000052
:10505000B0B50D46044600F0A1F848B105EB850057
:1050600004EB8000816821F020018160B0BD00BFA9
:10507000FEE70000B0B50D46044600F08FF848B1D9
:1050800005EB850004EB8000816841F02001816020
:10509000B0BD00BFFEE700008900436802FA01F1DD
:1050A00019434160704700000068890002FA01F16D
:1050B000084018BF0120704770B514460E460546DB
:1050C00000F06CF880B3216806EB860005EB8000E9
:1050D0000161A1684161218AC1608168626821F42F
:1050E0007C51E36866691143194331438160217E35
:1050F0008268012922F0400308BF42F04003836028
:10510000617E8268012922F0800308BF42F080039B
:105110008360A17E8268002942F0100308BF22F05C
:105120001003836070BD00BFFEE7000070B5144639
:105130000E46054600F032F840B106EB860005EB5E
:10514000800081682143816070BD00BFFEE70000E0
:105150008900436802FA01F1194341607047000079
:10516000082A19D80123934013F48A7F14D08B00A6
:1051700001EB8101D0F800C000EB8100806802FAE9
:1051800003F31CEA030100EA020018BF0121002812
:1051900018BF012008407047FEE7000040F20042BF
:1051A000C4F20202801A18BF01200022052938BF6C
:1051B000012210437047000070B516460D460446A4
:1051C000FFF7ECFF30B105EB8501B0B204EB8101D4
:1051D000C86070BDFEE70000B0B50D460446FFF79D
:1051E000DDFF28B105EB850004EB8000C068B0BD91
:1051F000FEE7000040F2084CC4F2010C5CF8083CE9
:10520000012923EA00034CF8083C5CF8043C23EA3B
:1052100000034CF8043CDCF8003023EA0003CCF82F
:105220000030DCF8043023EA0003CCF8043019D055
:1052300021B95CF8081C01434CF8081C022A18D05C
:10524000012A6FEA000118D0002A18BF7047DCF865
:1052500000201043CCF80000DCF804000840CCF833
:10526000040070475CF8041C01434CF8041C022A3B
:10527000E6D1DCF80010014302E0DCF80020114028
:10528000CCF80010DCF804100843CCF80400704798
:1052900040F20041C4F201010A68104308607047FF
:1052A00040F21441C4F201010860704740F200412D
:1052B000C4F201014A690968024000EA010018BF0E
:1052C0000122002818BF012010407047416170473B
:1052D000016170470C2240F2080C02EA81030F22A0
:1052E000C4F2010C032902FA03F20BD8DCF8001017
:1052F00098409143CCF80010DCF800100843CCF83B
:105300000000704707290BD8DCF80410984091433F
:10531000CCF80410DCF804100843CCF80400704703
:105320000B296FEA02010BD8DCF8082098401140E5
:10533000CCF80810DCF808100843CCF808007047D7
:10534000DCF80C2098401140CCF80C10DCF80C1064
:105350000843CCF80C0070472DE9F047CF0601F068
:105360000F0C09D5042A05D1C26B4CF0030C1A436B
:10537000C26301E04CEA020C00F1100E00F1140AC5
:1053800000244FF001094FF00F08002707E000BF8D
:10539000166005600137082F04F1040412D009FAE1
:1053A00007F212EA0306F5D0026808FA04F5AA43E8
:1053B0000CFA04F5154328295246E9D04829E8D1CA
:1053C0007246E5E7082400254FF001094FF00F0869
:1053D00009E000BF176046600134102C05F1040598
:1053E00008BFBDE8F08709FA04F212EA0307F3D018
:1053F000426808FA05F6B2430CFA05F61643282966
:105400005246E7D04829E6D17246E3E78068084073
:1054100018BF012070470000B0B50422C4F2010299
:10542000134602F1180E002848BF73461B6800F4AB
:105430004014C0F30345B4F5401F1FFA80FC07D1A8
:10544000146823F0E06324F0E064146079B915E097
:10545000C40206D46FF00F0404EA50440CFA04F4BA
:1054600001E00324AC40A34343F0E06331B16FF0AB
:105470000F0101EA50410CFA01F10B43002848BF2B
:1054800072461360B0BD000041F20004C4F2010492
:10549000FEF79AFF40F20800C2F20000006841F2F5
:1054A0005971CDF2B711A0FB0101480BFFF708F8C5
:1054B0000220FFF707FA40F2FD0941F24B5841F292
:1054C000405A04F574454FF0000BC2F20009C2F2D5
:1054D0000008A4F58067C2F2000A91E0204680210E
:1054E000FFF794FF20464FF48041FFF7F1FE384666
:1054F0004FF48071FFF78AFF20461021FFF7E8FE86
:1055000020460121FFF782FF38460421FFF7E0FE25
:1055100020460221FFF77AFF20464021FFF7D8FE00
:1055200020460421FFF772FF20464FF40071FFF779
:10553000CFFE20460821FFF769FF20464FF4806127
:10554000FFF7C6FEA4F5006630460121FFF75EFFB7
:1055500020464FF40061FFF7BBFE30460221FFF703
:1055600055FF20464FF48051FFF7B2FE304604212C
:10557000FFF74CFF20464FF40051FFF7A9FE3046DD
:105580000821FFF743FF20464FF40041FFF7A0FE3C
:1055900030461021FFF73AFF30464021FFF798FED2
:1055A00030462021FFF732FF20462021FFF790FEF2
:1055B00038464FF48061FFF729FF38464FF4805199
:1055C000FFF786FE38464FF40061FFF71FFF3046B5
:1055D0004FF40071FFF77CFE30464FF48051FFF727
:1055E00015FF30464FF48071FFF772FE30464FF4DE
:1055F0000061FFF70BFF20464FF48071FFF768FE54
:10560000284600210222FFF74FFD012814D1284629
:105610000021FFF7E1FD14280ED0012089F80200D7
:10562000284600210222FFF737FD43F60040C4F26E
:105630000000012100F0BAFA99F8020000286CD0AD
:1056400099F8050099F80610C72889F802B008BF34
:10565000C72923D0662808BF662932D041F24E52AE
:10566000C2F20002128841EA0020904240D040F28B
:105670000401C2F20001097801292BD0C1BB41F21B
:105680004E51C2F20001088047F20441C4F2000109
:105690004860086840F0010029E000BF40F20401C2
:1056A0000220C2F20001087040F21810C2F200009D
:1056B000DC2180F832100120FCF7C4FAFFF7FAF879
:1056C0002BE0BAF80000400080B2FCF7BBFAAAF861
:1056D00000B020E041F24E51C2F20001088047F2D2
:1056E0000441C4F200010861086840F0020008604B
:1056F000BAF8001040F2181699F8050099F806203B
:105700004B00C2F2000601333236F25406F81100A3
:10571000481CAAF80000FBF7B1FF98F80000022827
:105720003FF4DCAE01287FF46BAF20464FF480419C
:10573000FFF76CFE20B120468021FFF7C9FD03E092
:1057400020468021FFF7C2FD20461021FFF75EFEB4
:1057500028B138464FF48071FFF7BAFD04E03846AF
:105760004FF48071FFF7B2FD38460421FFF74EFE7B
:1057700020B120460121FFF7ABFD03E020460121C7
:10578000FFF7A4FD20464021FFF740FE20B1204650
:105790000221FFF79DFD03E020460221FFF796FD61
:1057A00020464FF40071FFF731FE20B1204604215E
:1057B000FFF78EFD03E020460421FFF787FD20461A
:1057C0004FF48061FFF722FE20B120460821FFF749
:1057D0007FFD03E020460821FFF778FD20464FF4C7
:1057E0000061FFF713FE28B1A4F500600121FFF767
:1057F0006FFD04E0A4F500600121FFF767FD20467E
:105800004FF48051FFF702FE28B1A4F50060022199
:10581000FFF75EFD04E0A4F500600221FFF756FDEE
:1058200020464FF40051FFF7F1FD28B1A4F50060C8
:105830000421FFF74DFD04E0A4F500600421FFF70B
:1058400045FD20464FF40041FFF7E0FD28B1A4F5E7
:1058500000600821FFF73CFD04E0A4F5006008218A
:10586000FFF734FDA4F5006630464021FFF7CEFD7A
:1058700020B130461021FFF72BFD03E03046102108
:10588000FFF724FD20462021FFF7C0FD20B1304660
:105890002021FFF71DFD03E030462021FFF716FD14
:1058A00038464FF48051FFF7B1FD28B138464FF428
:1058B0008061FFF70DFD04E038464FF48061FFF78B
:1058C00005FD30464FF40071FFF7A0FD28B13846C2
:1058D0004FF40061FFF7FCFC04E038464FF4006130
:1058E000FFF7F4FC30464FF48071FFF78FFD28B1CD
:1058F00030464FF48051FFF7EBFC04E030464FF4A4
:105900008051FFF7E3FC20464FF48071FFF77EFDE6
:1059100028B130464FF40061FFF7DAFC70E63046FC
:105920004FF40061FFF7D2FC6AE6000070B515463F
:105930004EF60C52CEF2000212680E4602F4E061FE
:10594000A1F54071B1F5A06F044603D2080AC0F179
:10595000040105E04FF4A06000F01CF802200221D1
:105960000F2222FA01F106FA00F0294008434EF214
:105970000011CEF20001000144EA010282F80003A6
:1059800004F01F00012202FA00F01C2202EAD402F5
:10599000505070BD40F080604EF60C5140F0FD70EC
:1059A000CEF20001086070474FF68072C1F6FF72B8
:1059B000114008434EF60851CEF2000108607047CE
:1059C00010B541F2040CC4F2020CDCF8001043F6EE
:1059D000FF72CEF6FF720A40DCF828100B2821F087
:1059E000005E21D8012383401C070CD113F4706F93
:1059F0000CD04CF20003CFF6FC7303EA8030024374
:105A000041F0005E10E042EA80320DE00121814069
:105A100011F0A00F08D04CF20001CEF6FE7101EAA1
:105A20008030104340F08052CCF80020CCF828E0C1
:105A300010BD000010B541F2040EC4F2020EDEF8F3
:105A4000001001F00C01082941F20021C0F27A0196
:105A500046D1DEF80030DB0304D440F6001CC0F26F
:105A60003D0C25E0DEF82830DEF828C05B0046F665
:105A70000043C0F2DC2358BF0B465FEACC3110D59F
:105A8000DEF82810C1F3031CDEF828100CF1010C1D
:105A9000C1F30321B3FBFCF30231112908BF142128
:105AA0004B43DEF8281001F00F010131B3FBF1FC8C
:105AB000DEF800301022C3F38343DEF8001002EA60
:105AC0005161194401220F2938BF022253180F2BAC
:105AD00011BF03FB0CF10CEB4C01490001EB5C0125
