:020000040800F2
:10000000C0190020650100086D0100086F0100089B
:10001000710100087301000875010008000000006C
:100020000000000000000000000000007701000850
:1000300079010008000000007B0100080944000865
:100040007F0100087F0100087F0100087F01000890
:100050007F0100087F0100087F0100087F01000880
:10006000450700087F0100087F0100087F010008A4
:100070007F0100087F0100087F0100087F01000860
:100080007F0100087F0100087F0100087F01000850
:100090007F0100087F0100087F0100087F01000840
:1000A0007F010008D14400087F0100087F0100089B
:1000B0000D4500087F010008CD4500087F010008BC
:1000C0007F0100087F0100087F0100087F01000810
:1000D0007F010008BD4700087F0100087F0100087C
:1000E0007F0100087F0100087F0100087F010008F0
:1000F0007F0100087F0100087F0100080000000068
:100100007F01000800000000F14500087F010008A1
:100110007F0100087F0100087F0100087F010008BF
:100120007F010008110700087F0100087F01000817
:100130007F01000800000000000000007F010008AF
:100140007F0100087F0100087F0100087F0100088F
:10015000DFF80CD000F048FA00480047BD53000813
:10016000C01900200648804706480047FEE7FEE722
:10017000FEE7FEE7FEE7FEE7FEE7FEE7FEE7FEE757
:10018000794400085101000840EA01039B0703D0AD
:1001900009E008C9121F08C0042AFAD203E011F8C6
:1001A000013B00F8013B521EF9D27047D2B201E088
:1001B00000F8012B491EFBD270470022F6E710B56C
:1001C00013460A4604461946FFF7F0FF204610BDC5
:1001D00030B504460020034600E05B1C934203D286
:1001E000E05CCD5C401BF8D030BD000070B50F4D19
:1001F00000B92868002412E00A4602E09E4203D0BB
:10020000521C1378002BF9D1DAB2224305D02BB15E
:1002100024B1002100F8011B04E00446401C0678CC
:10022000002EE9D12860204670BD000000000020AB
:100230002DE9FE4F804681EA0300C00F0C46009076
:1002400021F0004123F00045B8EB0200A94105D29E
:100250004046214690461C460B46024623F000408D
:10026000104347D0270DC7F30A00C3F30A51029089
:10027000401A019040286BDAC3F3130040F4801B4E
:100280000098924620B10023D2EB030A63EB0B0BDC
:1002900001985946C0F14002504600F016F9064652
:1002A0000D4650465946019A00F02EF910EB080011
:1002B0006141002487EA115284EAE7731A4340D06F
:1002C000009A62B3019A012A4FEA075215DC001B1B
:1002D00061EB02014FF0004202EA0752CDE9004211
:1002E000001C41F5801132462B4600F02EF903B078
:1002F000BDE8F08F40462146F9E7001B61EB0201A3
:10030000001C41F5801300185B412018A2F500176E
:1003100047EB030140EAD570B6196D4111E06D0855
:100320004FEA360645EAC0754FEA0752001B61EBFB
:100330000201001C41F5801149084FEA3000001904
:10034000514132462B4603B0BDE8F04F00F0EEB805
:100350000098012240000023D0EB020263EBE0731F
:10036000009821464FEAE074B8EB000061EB04010D
:10037000E9E783F000435BE781F0004158E72DE9AE
:10038000F04D81EA030404F0004B21F000451446CF
:100390004FF0000A23F0004150EA050220D054EA51
:1003A00001021DD0C5F30A570246C5F31303C1F37A
:1003B0001300C1F30A5640F4801543F48013A7EBF1
:1003C0000608101BD64608F2FD3873EB050002D371
:1003D00008F1010801E092185B41B8F1000F03DA5F
:1003E00000200146BDE8F08D00204FF48011064644
:1003F00084460EE0171B73EB050705D3121B63EB56
:10040000050306434CEA010C49084FEA30009218F4
:100410005B4150EA0107EDD152EA030012D082EAB3
:10042000040083EA0501084305D0101BAB4106D246
:100430000122002306E000224FF0004302E06FF0AB
:10044000010253101AEB06004CEB085110EB0A00A6
:1004500041EB0B01BDE8F04D00F068B80EB5C10FDF
:1004600080EAE0700844CA07002140F233438DE877
:100470000E000A460B4600F068F803B000BD0EB54A
:1004800040F2334102910021CDE900110A460B46AA
:1004900000F05BF803B000BDC1F30A5210B5C1F320
:1004A000130140F2FF3341F480119A4201DA002037
:1004B00010BD40F233439A42A2F2334203DC52426F
:1004C00000F012F810BD904010BD202A04DB203A45
:1004D00000FA02F1002070479140C2F1200320FA97
:1004E00003F3194390407047202A04DB203A21FA95
:1004F00002F00021704721FA02F3D040C2F120023D
:100500009140084319467047202A06DBCB17203A52
:1005100041FA02F043EAE07306E041FA02F3D04008
:10052000C2F12002914008431946704710B5141ECD
:1005300073F1000408DA401C41F1000192185B419C
:100540001A4301D120F0010010BD2DE9F04D924673
:100550009B4611B1B1FA81F202E0B0FA80F220328A
:100560009046FFF7B2FF04460F4640EA0A0041EA10
:100570000B0153465A46084313D0114653EA010073
:1005800019D0C8F140025046FFF7AEFF05460E46AF
:10059000504659464246FFF798FF084305D00120D0
:1005A00004E020463946BDE8F08D0020054346EAC8
:1005B000E0762C4337430A986305E40AA0EB080071
:1005C0000022FD0A44EA47540A3002D500200146C1
:1005D000E9E7010510196941DDE90845001969419C
:1005E000BDE8F04DA2E70000064C074D06E0E068CC
:1005F00040F0010394E8070098471034AC42F6D36A
:10060000FFF7AAFD88650008A865000810B540F24C
:10061000B810C2F200000078022817D001282DD0AF
:10062000002818BF10BD42F200400024C4F20100AF
:100630000121C4F2020404F0B9F900BF20460021F0
:10064000022204F0CBFC0028F8D010E042F2004077
:100650000024C4F201000121C4F2020404F0A6F94E
:1006600020460021022204F0B9FC0028F8D02046E0
:1006700000210222BDE8104004F0A8BC42F2004074
:10068000C4F2010000F580642046012104F08EF9D7
:100690002046022104F032F90028F9D042F64C003D
:1006A000C4F20100006840F21001C2F200010860CB
:1006B00010BD0000B0B50146B0F8A0000022C1E9AD
:1006C000000246F2004491F8A400C4F200040A813A
:1006D0008872204604F0D2FA41F25851C2F2000169
:1006E00041F2445508704FF40071C2F2000502282F
:1006F00098BF01EBC00129602988204604F00CFA5C
:100700000128F9D029882046BDE8B04004F0F8B9A6
:1007100010B540F20044C4F2020420460121022236
:1007200004F0B8FC012818BF10BDA4F574404FF4C4
:10073000804104F065FD204601210222BDE8104001
:1007400004F0A0BC70B5042004F04AFD012818BFD5
:1007500070BD41F25050C2F2000000780138032809
:1007600000F2AD80DFE800F0021F3E6642F6004472
:10077000C4F201042046002105F034FC204600218B
:10078000042205F0A9FA20460121042205F0A4FA6A
:1007900020460021012205F0FFFB20460121012215
:1007A00005F0FAFB8BE042F60040C4F2010000F5D0
:1007B00000642046002105F015FC2046012104229A
:1007C00005F08AFA20460221042205F085FA204627
:1007D0000121012205F0E0FB20460221012205F063
:1007E000DBFB6CE0FFF712FF42F60045C4F20105A7
:1007F000A5F5E05420464FF4804104F003FD40F29B
:100800001000C2F20000008840F2051600BAC2F2E1
:100810000006000CA6F8070020464FF4804104F0C3
:10082000EFFCF179A5F5704005F076F9012000F0B4
:1008300067FF44E0FFF7EAFE42F60040C4F2010021
:10084000A0F5E05420464FF4804104F0DBFC40F278
:100850001001C2F200010A8840F2051012BA8B881A
:10086000C2F20000120CA0F807201ABA0B89120C71
:10087000A0F809201ABA8B89120CA0F80B201ABA1A
:100880000B8A120CA0F80D201ABA8B8A120CA0F851
:100890000F201ABA0B8B898B120CA0F811201ABAF0
:1008A00009BA120C090CA0F81320A0F81510204664
:1008B0004FF4804104F0A4FC082000F021FF042044
:1008C000BDE8704004F086BC2DE9F04144F6D353F6
:1008D000C1F26203A2FB033C4FEA9C1E4CF6CD4CD6
:1008E00048F21F53CCF6CC4CC5F2EB13A2FB0334F9
:1008F000AEFB0C386309A2FB0C46A3FB0C47F408C3
:10090000A4FB0C654FEAD80606EB8606AEEB46065E
:1009100046F0300646540844F90801EB8101A3EB88
:10092000410141F030014170E90801EB8101A4EB84
:10093000410141F03001817004EB8401A2EB4101DF
:1009400041F03001C170BDE8F0810000B0B588B061
:1009500000208DF81E0040F21000C2F2000042F6A6
:10096000000403904FF40060C4F201040490A4F565
:100970006D7001904FF48070ADF81C004FF4007062
:1009800002900420002505904FF44050C4F2020567
:10099000069001AA2846002104F028FB28460021E1
:1009A00004F002FB2846002104F0DAFA4FF4C020DC
:1009B00003F0AAFF42F20045C4F2010528464FF4B5
:1009C0008071012204F000F828460221002203F081
:1009D000FBFF2846002103F045FF2846002103F0D5
:1009E000D9FF28460121042203F01EFF20464FF4C0
:1009F0008071012203F0E8FF20460221002203F06B
:100A0000E3FF2046002103F02DFF2046002103F0E4
:100A1000C1FF20460121042203F006FF28460121E0
:100A20004FF4602203F058FF28460121012203F011
:100A300033FF204601214FF4602203F04DFF204692
:100A40000121012203F028FF284600210A22002369
:100A500003F066FF284600210B22002303F060FF0D
:100A6000284600210C22002303F05AFF28460021CB
:100A70000D22002303F054FF204600210022002312
:100A800003F04EFF204600210122002303F048FF1F
:100A9000204600210222002303F042FF20460021CD
:100AA0000322002303F03CFF284603F0EBFE284618
:100AB00003F0AAFE204603F0E5FE204603F0A4FE64
:100AC000284603F0D9FE45F20000CFF6FF70295802
:100AD000002241F0010129500020002104F0A8F972
:100AE000002004F0E7F908B0B0BD000010B588B0F0
:100AF00000208DF81E0040F21000C2F200000390AA
:100B00004FF40060049042F24C40C4F201000190A6
:100B10004FF48070ADF81C004FF40070029001207B
:100B2000002405904FF44050C4F20204069001AA3C
:100B30002046002104F05AFA2046002104F034FA3D
:100B40002046002104F00CFA4FF4C02003F0DCFE34
:100B500042F20044C4F2010420464FF480710122A5
:100B600003F032FF20460221002203F02DFF204631
:100B7000002103F077FE2046002103F00BFF204602
:100B80000121012203F050FE204601214FF4602292
:100B900003F0A2FE20460121012203F07DFE204643
:100BA00000210022022303F0BBFE204603F06AFE70
:100BB000204603F029FE204603F05EFE45F20000C9
:100BC000CFF6FF702158002241F001112150002082
:100BD000002104F02DF9002004F06CF9012000211F
:100BE000002204F025F9012004F064F908B010BDDA
:100BF00070B541F20005C4F2010528460421042223
:100C00004FF4804304F042FB2846042104221023C1
:100C100004F03CFBA5F58064204604210422042353
:100C200004F034FB284604210422402304F02EFB68
:100C30002846042104224FF4007304F027FB2846C1
:100C4000042104224FF4806304F020FB2846042191
:100C500004224FF4006304F019FB28460421042207
:100C60004FF4805304F012FB2846042104224FF471
:100C7000005304F00BFB2846042104224FF40043E8
:100C800004F004FBA5F5006630460421042240234D
:100C900004F0FCFA284604210422202304F0F6FA8A
:100CA0002046042104224FF4805304F0EFFA30462A
:100CB000042104224FF4007304F0E8FA30460421C2
:100CC00004224FF4807304F0E1FA28460421042240
:100CD0004FF4807304F0DAFA2846042104228023BA
:100CE00004F0D4FA2046042104224FF4807304F067
:100CF000CDFA284604210422012304F0C7FA28462D
:100D000004210422022304F0C1FA2846042104220B
:100D1000042304F0BBFA284604210422082304F02B
:100D2000B5FA304604210422012304F0AFFA30461C
:100D300004210422022304F0A9FA304604210422EB
:100D4000042304F0A3FA304604210422082304F00B
:100D50009DFA304604210422102304F097FA30460D
:100D600004210422202304F091FA204604210422C5
:100D70004FF4806304F08AFA2046042104224FF4E1
:100D8000006304F083FA3046042104224FF48053B8
:100D900004F07CFA3046042104224FF40063BDE8DD
:100DA000704004F073BA0000B0B588B0044646F253
:100DB000004540F21970C4F2000504F061FE2846B7
:100DC00003F030FE4FF40130CDF815000020CDF8CF
:100DD000190021798DF81D008DF8141005A92846F9
:100DE00003F0CAFE2068FA2818BFB0F57A7F17D141
:100DF0004FF47A714143284603F096FE0020CDF867
:100E00000A00CDE9000060790121ADF80E10ADF8BF
:100E1000080068468DF8101003F018FE08B0B0BD49
:100E2000B0F5FA7FE4D04EF64801C0F20101E2E7E6
:100E300010B54FF4C06004F023FE40F2026004F0ED
:100E40001FFE40F60004C4F201042046482103229C
:100E50004FF4006304F01AFA2046182103224FF4DD
:100E60008053BDE8104004F011BA000080B541F293
:100E70000040C4F2010028210422042304F006FAF1
:100E80000320022104F0C0F904200021002204F014
:100E90004BF908200021012204F0E2FC0420BDE807
:100EA000804004F08FB9000070B541F20005C4F233
:100EB00001052846042104224FF4804304F0E6F99A
:100EC000284604210422102304F0E0F9A5F58064EB
:100ED000204604210422042304F0D8F928460421E2
:100EE0000422402304F0D2F92846042104224FF4BE
:100EF000007304F0CBF92846042104224FF48063E8
:100F000004F0C4F92846042104224FF4006304F0DD
:100F1000BDF92846042104224FF4805304F0B6F9A9
:100F20002846042104224FF4005304F0AFF9284668
:100F3000042104224FF4004304F0A8F9A5F500664B
:100F4000304604210422402304F0A0F9284604215D
:100F50000422202304F09AF92046042104224FF4AD
:100F6000805304F093F93046042104224FF40073B7
:100F700004F08CF93046042104224FF4807304F00D
:100F800085F92846042104224FF4807304F07EF989
:100F9000284610210422802304F078F920461021ED
:100FA00004224FF4807304F071F9284610210422C2
:100FB000012304F06BF9284610210422022304F0D7
:100FC00065F9284610210422042304F05FF928461D
:100FD00010210422082304F059F93046102104227C
:100FE000012304F053F9304610210422022304F0B7
:100FF0004DF9304610210422042304F047F930460D
:1010000010210422082304F041F930461021042263
:10101000102304F03BF9304610210422202304F071
:1010200035F92046102104224FF4806304F02EF994
:101030002046102104224FF4006304F027F93046C3
:10104000102104224FF4805304F020F9304610217F
:1010500004224FF4006304F019F940F20020C0F2BA
:1010600030000121BDE8704004F070B970B541F264
:101070000005C4F201052846102104224FF48043E4
:1010800004F004F9284610210422102304F0FEF88D
:10109000A5F58064204610210422042304F0F6F80C
:1010A000284610210422402304F0F0F8284610219D
:1010B00004224FF4007304F0E9F8284610210422BA
:1010C0004FF4806304F0E2F82846102104224FF424
:1010D000006304F0DBF82846102104224FF480530B
:1010E00004F0D4F82846102104224FF4005304F0F1
:1010F000CDF82846102104224FF4004304F0C6F82E
:10110000A5F50066304610210422402304F0BEF805
:10111000284610210422202304F0B8F8204610218C
:1011200004224FF4805304F0B1F830461021042219
:101130004FF4007304F0AAF83046102104224FF453
:10114000807304F0A3F82846102104224FF4807322
:1011500004F09CF8284604210422802304F096F829
:101160002046042104224FF4807304F08FF82846AF
:1011700004210422012304F089F8284604210422D2
:10118000022304F083F8284604210422042304F0F7
:101190007DF8284604210422082304F077F830461D
:1011A00004210422012304F071F8304604210422B2
:1011B000022304F06BF8304604210422042304F0D7
:1011C00065F8304604210422082304F05FF8304615
:1011D00004210422102304F059F83046042104228B
:1011E000202304F053F82046042104224FF48063A6
:1011F00004F04CF82046042104224FF4006304F06C
:1012000045F83046042104224FF4805304F03EF8A0
:101210003046042104224FF4006304F037F840F212
:101220000020C0F230000121BDE8704004F08EB80B
:1012300070B540F2026004F023FC40F2036004F059
:101240001FFC40F2046004F01BFC40F2096004F053
:1012500017FC40F20A6004F013FC012004F04AFB82
:101260004FF4A06004F00CFC40F21D7004F008FC88
:101270004FF4C06004F004FC41F20004C4F2010425
:101280002046102104224FF4804303F0FFFF204644
:1012900010210422102303F0F9FFA4F580663046E4
:1012A00010210422042303F0F1FF20461021042220
:1012B000402303F0EBFF2046102104224FF400737B
:1012C00003F0E4FF2046102104224FF4806303F072
:1012D000DDFF2046102104224FF4006303F0D6FF07
:1012E0002046102104224FF4805303F0CFFF204604
:1012F000042104224FF4005303F0C8FF20460421C8
:1013000004224FF4004303F0C1FFA4F50065284612
:1013100004210422402303F0B9FF204604210422C3
:10132000202303F0B3FF3046042104224FF48053FE
:1013300003F0ACFF3046102104224FF4007303F099
:10134000A5FF2846182104224FF4007303F09EFFE6
:101350002846182104224FF4807303F097FF20469B
:10136000182104224FF4807303F090FF20461821C7
:101370000422802303F08AFF3046182104224FF410
:10138000807303F083FF204600210422012303F031
:101390007DFF204600210422022303F077FF204630
:1013A00000210422042303F071FF204600210422BF
:1013B000082303F06BFF284600210422012303F0D9
:1013C00065FF284600210422022303F05FFF284620
:1013D00000210422042303F059FF2846002104229F
:1013E000082303F053FF284600210422102303F0B2
:1013F0004DFF2846002104222023BDE8704003F061
:1014000045BF000070B544F60004C4F2000404F5C2
:10141000DC36054630460121022203F0D7FD304676
:10142000012103F08BFD304601212A4603F05EFEC8
:101430002046802104F088FF3046012103F090FD12
:101440002046062104F098FF38B900BF2046062147
:1014500000BF04F091FF0028F8D02046062104F0D8
:101460007FFF20460021BDE8704004F06DBF000002
:101470002DE9F04F87B005464FF4A06004F000FB63
:1014800040F2127004F0FCFA40F2065004F0F8FA50
:1014900044F600046869C4F20004002704F5DC3651
:1014A000E8468DF81A70CDE9020704F104094FF4FB
:1014B000807A4FF4805B304602214246CDF800909E
:1014C000ADF818A001970497CDF814B003F08EFD85
:1014D0003046022103F068FD3046022103F040FD52
:1014E000296901208DF81A00CDE902173046012143
:1014F0004246CDF80090ADF818A00197CDE9047BE5
:1015000003F074FD3046012103F03CFD304601211B
:1015100003F026FD204604F0D3FE2968204604F09F
:1015200091FE6968204604F047FFE968204604F010
:1015300073FFA968204604F061FF2046002104F0F3
:10154000B7FE2046002104F025FF2046002104F0CC
:101550001BFF204604F03EFF2046322104F042FFEC
:101560002046402104F0EAFE2046802104F0ECFEF3
:101570002046082104F04AFF2046042104F024FFFD
:10158000204604F0E7FE07B0BDE8F08FB0B544F6A2
:1015900000050446C4F20005284642F2102104F07A
:1015A000EBFE0028F8D12046BDE8B040FFF72ABF87
:1015B00010B54FF4C06004F063FA40F2036004F029
:1015C0005FFA40F60044C4F20104204618210322C9
:1015D0004FF4806303F05AFE2046042103224FF4A7
:1015E0000063BDE8104003F051BE00002DE9F04F4C
:1015F0008FB0054640F2015004F042FA40F20F70FD
:1016000004F03EFA43F60048A868C4F2000800243B
:1016100008F5E4360DF120098DF83A40CDE90A04C9
:1016200008F10C074FF4807A4FF4405B30460021FC
:101630004A460897ADF838A009940C94CDF834B018
:1016400003F0D4FC3046002103F0AEFC304600210C
:1016500003F086FC696801208DF83A00CDE90A1490
:10166000304601214A460897ADF838A00994CDE9E3
:101670000C4B03F0BBFC404604F050FA01AF384677
:1016800004F09CFA28680C352ECDCDE9011403A98D
:1016900031C140463946CDE9063204F069FA404688
:1016A00004F086FA404604F07DFA30460121022219
:1016B00003F0D6FC39200121002204F0D1F8404685
:1016C00004F024FA0FB0BDE8F08F0000B0B540F28E
:1016D0000045C4F2020504462846002103F02EFC12
:1016E00028460021224603F001FDA5F5E430012142
:1016F00004F002FA28460021BDE8B04003F030BCF7
:10170000B0B540F20045C4F2020504462846012166
:1017100003F014FC28460121224603F0E7FCA5F55E
:10172000E430002104F0E8F928460121BDE8B0408A
:1017300003F016BCB0B540F20044C4F20204054602
:101740002046012103F0FAFB204601212A4603F03E
:10175000CDFCA4F5E4352846002104F0CDF920465F
:10176000012103F0FDFB00BF20460121022203F00E
:1017700035FC0028F8D020460121022203F026FC87
:1017800028460021BDE8B04004F0AAB90220FFF7C6
:101790009DBF0000B0B543F600450446C4F2000505
:1017A0002846022104F0DEF90028F9D02046BDE8E1
:1017B000B040FFF7BFBF000010B54FF4C06004F0A9
:1017C0005FF940F2036004F05BF940F2026004F05C
:1017D00057F940F60044C4F20104204618210322C0
:1017E000102303F053FD204604210322202303F09D
:1017F0004DFD204604210322082303F047FDA4F5F4
:101800008060042103224FF4004303F03FFD40F2C7
:101810000020C0F230000121BDE8104003F096BD69
:10182000F0B58BB00646450840F20B6004F028F98D
:1018300042F60044C4F20104204604F0D5FB002720
:10184000FF200996ADF81C70ADF82870CDF81E7019
:101850008DF82A0007A9204604F070FC0120C0F290
:10186000040004AE0697CDE9040720460021324665
:1018700004F050FA204601213246012604F04AFACB
:1018800020460021002204F087FB20460021002290
:1018900004F022FA20460121002204F07DFB2046BC
:1018A0000121002204F018FA204600212A4604F003
:1018B0004FFB20460021602204F02CFB2046002133
:1018C000002204F04BFB204601212A4604F040FB95
:1018D00020460121702204F01DFB20460121002238
:1018E00004F03CFB4FF48040CDE90076029069465D
:1018F0002046ADF80C7004F0DBF91920022100221B
:1019000003F0AEFF2046012104F07CFC204604F0E9
:101910000FFC0BB0F0BD000010B584B004464FF4CE
:10192000E06004F0ADF84FF0804004F05DFB002073
:101930000294ADF80000ADF80C00CDF802008DF86F
:101940000E0069464FF0804004F0F8FB1C20012196
:10195000002203F085FF4FF08040012104F052FC8B
:101960004FF08040012104F063FC4FF0804004F010
:1019700099F94FF0804004F0DBFB04B010BD00008B
:1019800070B588B00646450840F2027004F078F859
:1019900040F60004C4F20004204604F025FB06963D
:1019A0000026FF20ADF81060ADF81C60CDF8126085
:1019B0008DF81E0004A9204604F0C0FB0120C0F2EF
:1019C00004000396CDE9010601AA2046022104F095
:1019D000A1F920460221002204F0DEFA204602216D
:1019E000002204F079F9204602212A4604F0B0FAD8
:1019F00020460221602204F08DFA204602210122B5
:101A000004F0CAFA20460221002204F0A7FA1E20A0
:101A10000221002203F024FF2046012104F0F2FB02
:101A2000204604F085FB08B070BD0000B0B584B05E
:101A3000054640F2037004F023F840F60044C4F277
:101A40000004204604F0D0FA00200295ADF8000012
:101A5000ADF80C00CDF80200FF208DF80E006946AD
:101A6000204604F06BFB2046012104F0CBFB322022
:101A700002F0A6FE204604F05BFB04B0B0BD0000FF
:101A80002DE9F0418CB00646450840F20D6003F0A8
:101A9000F7FF43F20044C4F20104204604F0A4FA24
:101AA0000027FF200A96ADF82070ADF82C70CDF815
:101AB00022708DF82E0008A9204604F03FFB01207B
:101AC000C0F2040005AE0797CDE9050720460121C5
:101AD00032464FF0010804F01DF92046022132463B
:101AE00004F018F920460121002204F055FA20469E
:101AF0000121002204F0F0F820460221002204F027
:101B00004BFA20460221002204F0E6F8204601218B
:101B10002A4604F01DFA20460121602204F0FAF959
:101B200020460121002204F019FA204602212A460B
:101B300004F00EFA20460221702204F0EBF9204650
:101B40000221002204F00AFA4FF48040CDE9017826
:101B5000039001A92046ADF8107004F0A9F81920EF
:101B60000221002203F07CFE2046012104F04AFB02
:101B7000204604F0DDFA0CB0BDE8F081B0B50025D8
:101B8000C4F2020504462846042103F0D7F928468A
:101B90000421224603F0AAFAA5F54840402104F0AA
:101BA000CDFB28460421BDE8B04003F0D9B90000C0
:101BB00070B543F60004C4F2010404F54846054636
:101BC00030460321022203F001FA3046032103F0DC
:101BD000B5F9304603212A4603F088FA20468021D1
:101BE00004F0B2FB3046032103F0BAF92046062187
:101BF00004F0C2FB38B900BF2046062100BF04F044
:101C0000BBFB0028F8D02046062104F0A9FB2046A3
:101C10000021BDE8704004F097BB00002DE9F047BB
:101C200088B005464FF4A06003F02AFF40F20E6032
:101C300003F026FF40F2065003F022FF686943F6E6
:101C400000040027C4F201048DF81E70CDE90307DB
:101C500004F104094FF4807A3220CDF80490ADF8F5
:101C60001CA0029705904FF4405004F548460DF132
:101C70000408069030460421424603F0B7F9304686
:101C8000042103F091F93046042103F069F90120A1
:101C900029698DF81E004FF40050CDE90317CDF8E7
:101CA0000490ADF81CA002970597069030460321DA
:101CB000424603F09BF93046032103F063F93046B6
:101CC000032103F04DF9204604F0FAFA2968204672
:101CD00004F0B8FA6968204604F06EFBE968204613
:101CE00004F09AFBA968204604F088FB20460021F6
:101CF00004F0DEFA2046002104F04CFB20460021CF
:101D000004F042FB204604F065FB2046FF2104F06E
:101D100069FB2046402104F011FB2046802104F09D
:101D200013FB204640F2053104F03AFB2520012147
:101D3000002203F095FD2046082104F067FB2046B1
:101D4000042104F041FB204604F004FB08B0BDE888
:101D5000F0870000B0B543F600050446C4F2010563
:101D6000284642F2102104F007FB0028F8D1204653
:101D7000BDE8B040FFF71CBF10B54FF4C06003F0E2
:101D80007FFE40F2036003F07BFE0420C4F20100FA
:101D9000016840F6004441F00401C4F2010401600E
:101DA000204618210322402303F070FA2046042124
:101DB00003228023BDE8104003F068BA0000000051
:101DC0002DE9F04F81B02DED048B40F2201BC2F2C3
:101DD000000B9BF89700002800F0938700208BF8F9
:101DE00097001C2002F0ECFC41F25C5ADBE9085041
:101DF000C2F2000ADBE90A12DBE900E8DBE9029340
:101E0000DBE90476CAE90850BBF83000DBE9064C90
:101E1000CAE90A1246F24D41CAE900E8CAE902934A
:101E2000CAE90476AAF83000C0F600015046CAF8A4
:101E30001840CAF81CC0FEF7D9F941F2AC58C2F2FA
:101E400000080FF6E07103220646C8F80000FEF70E
:101E5000BFF900285CD09AF80070102F58D00FF608
:101E6000C87130460322FEF7B3F9112F18BF0028BE
:101E700040F09E8046F24D41C0F600010020FEF782
:101E8000B5F9C8F800000646008844F64F69484591
:101E900000F040819AF80170052F00F03B8146F276
:101EA0006241C0F6000130460322FEF791F90A2F85
:101EB00018BF002840F0FA8143F20045C4F2010542
:101EC00028460121002204F067F82846002100225C
:101ED00003F002FF28460221002204F05DF82846A4
:101EE0000221002203F0F8FED8F8000046F2624119
:101EF000C0F600010322FEF76BF9002800F0DD8533
:101F0000AC208BF832000120FFF724FF02F0F9B873
:101F100046F24D41C0F600010020FEF767F9C8F80F
:101F200000000646008844F64F64A04200F0CA80D4
:101F30009AF80170052F00F0C58046F26241C0F6A4
:101F4000000130460322FEF743F90A2F18BF00288C
:101F500040F00C8141F20000C4F2010000F5E055B0
:101F600028460021002204F017F82846002100220C
:101F700003F0B2FE28460121002204F00DF82846A5
:101F80000121002203F0A8FED8F8000046F26241C9
:101F9000C0F600010322FEF71BF9002800F0BB8207
:101FA000AC208BF832000120FFF7D4FE02F0A9B874
:101FB0000FF6786130460322FEF70AF9AD2F18BFFD
:101FC000002840F0208141F20000C4F201001021FD
:101FD00004224FF4804303F059F946F24D41C0F614
:101FE00000010020FEF702F9C8F80000064600686C
:101FF00044F25259C4F24149484500F0A2819AF88E
:102000000140FD2C00F09D810FF62461304607222F
:10201000FEF7DEF85A2C18BF002840F0B3820028E3
:1020200000F07486FFF7C8FB9AF802009AF80310D4
:1020300041F2B05841EA002041F24E55C2F2000888
:10204000C2F2000500210028A8F80000298002F053
:10205000588040F2100640F20517C2F20006C2F2A4
:1020600000074FF4045400BFFEF7D0FA3088B1885F
:1020700000BA000CA7F8070008BA3189000CA7F8CD
:10208000090008BAB189000CA7F80B0008BA318A18
:10209000000CA7F80D0008BA7169000CA7F80F0032
:1020A000080A78740E20B974A7F81340FFF772FB82
:1020B0002888B8F80010013082B28A422880D3D331
:1020C00002F01FB841F20000C4F2010000F5E05533
:1020D00028460021012203F05FFF28460021042248
:1020E00003F0FAFD28460121012203F055FF28469E
:1020F0000121042203F0F0FDD8F800000088A0427E
:1021000000F0BD80AC208BF832000120FFF722FEEA
:1021100001F0F7BF43F20045C4F201052846012152
:10212000012203F039FF41F20000C4F2010000F582
:10213000E05630460121042203F0CEFD284602215C
:10214000012203F029FF30460221042203F0C4FDDE
:10215000D8F800000088484500F0F281AC208BF8E8
:1021600032000120FFF7F6FD01F0CBBF306845F2E9
:102170004629C5F24519B0EB090018BF0120FC2F14
:1021800018BF002840F04481002800F06C839AF8C2
:1021900002009AF8031041EA0020FEF75FF99FED74
:1021A000F40B02460B4651EC100BFEF7E8F89FEDDE
:1021B000F20B53EC102BFEF73BF8FEF76DF9FFF72F
:1021C0002FFB41F20000C4F2010000F5E055284663
:1021D0000021012203F0E0FE28460021042203F042
:1021E0007BFD28460121012203F0D6FE284601216D
:1021F000042203F071FDAC208BF832000120FFF7C0
:10220000A9FD01F07EBF306844F24419C3F24309CE
:10221000B0EB090018BF0120DC2F18BF002840F0E8
:102220004181FEF763FCFFF7B1FAD8F8000041F2F4
:10223000B3510068C2F20001012248450A7000F063
:10224000628340F20400BAF80120C2F200000021CB
:10225000017010BA020C41F25650C2F20000028026
:102260000020002102F0E4FD002002F023FEFFF731
:10227000A3FAAC2001268BF8320000F038BD45F2FD
:102280005240C0F60D20CBF8390045F25340C5F25C
:102290004120CBF8360045F25070C2F24D00CBF829
:1022A00032000B20FFF756FD01F02BBF306845F2DE
:1022B0004629C5F24519B0EB090018BF0120FC2FD3
:1022C00018BF002840F08081002800F057859AF858
:1022D00002009AF8031041EA0020FEF7BFF89FEDD4
:1022E000A40B02460B4651EC100BFEF748F89FED8D
:1022F000A20B53EC102BFDF79BFFFEF7CDF8FFF779
:10230000BFFB43F20045C4F201052846012101222A
:1023100003F042FE28460121042203F0DDFC28469A
:102320000221012203F038FE28460221042203F094
:10233000D3FCAC208BF832000120FFF70BFD01F03D
:10234000E0BE40F21000C2F2000041F290560024BC
:10235000051FC2F2000600BFFEF758F96FF0030038
:10236000294600BF331851F8042F5F6804303A44FF
:1023700014285A60F6D101340A2CEDD3D8F80000A5
:102380000068484500F0D18296E88E004CF6CD40BA
:10239000CCF6CC40A1FB0051A2FB0052A3FB0035C0
:1023A000A7FB00373369A3FB00347369A3FB000369
:1023B000C80A8BF83200C8088BF83300D00A8BF8B3
:1023C00035002020D1088BF834008BF83610E9084E
:1023D000EA0A8BF837008BF838208BF83910F908A7
:1023E000FA0A8BF83A008BF83B208BF83C10E10896
:1023F000E20A8BF83D008BF83E208BF83F108BF8FB
:102400004000D80800BA000C1125ABF8410048E3A1
:10241000308845F24449B0EB090018BF0120D12FA4
:1024200018BF002840F0198141F20000C4F20100F9
:1024300000F5E05630460021002203F0ADFD3046A5
:102440000021002203F048FC304601210022012730
:1024500003F0A2FD30460121002203F03DFCFEF70F
:1024600005FDD8F800000088484500F0E68342F6F4
:102470002C40C4F20100816940F2FF329143816136
:102480009AF8021082691143816141F25050C2F200
:1024900000000770AC208BF832000120FFF75AFCD7
:1024A00001F02FBE306844F24419C3F24319B0EB77
:1024B000090018BF0120DD2F18BF002840F00D8152
:1024C000FEF714FBFFF762F9D8F8000041F2B351B0
:1024D0000068C2F20001012648450E7000F0E18359
:1024E00040F20400BAF80110C2F20000067008BA07
:1024F000020C41F25650C2F200000280012000217D
:1025000002F096FC012002F0D5FCFFF755F9AC2053
:102510008BF83200EBE340F60D20ABF83A0045F2C1
:102520005340C5F24F00CBF8360045F25070C2F26E
:102530004D00CBF832000A20FFF70CFC01F0E1BDA2
:1025400040F65450C0F20A00CBF8390044F254105F
:10255000C5F25240CBF8360045F25320C5F2203088
:10256000CBF832000B20FFF7F5FB01F0CABD00BF2E
:1025700000000000004CFD40000000000000F0BF23
:102580000000C8420FF6B00130460822FDF720FED9
:10259000732C18BF002840F0A48241F25050C2F2C0
:1025A00000000421017046F26641C0F60001304689
:1025B0000822FDF70DFE002800F03585AC2001242F
:1025C0008BF8320000F042BD308845F24449B0EB50
:1025D000090018BF0120D12F18BF002840F0A082A9
:1025E00043F20046C4F201063046012100220127D1
:1025F00003F0D2FC30460121002203F06DFB30468F
:102600000221002203F0C8FC41F20000C4F20100E4
:1026100000F5E0500221002203F05EFBFEF726FCED
:10262000D8F800000088484500F01F85706C40F223
:10263000FF31884370649AF80200716C084370643B
:1026400041F25050C2F200000770AC208BF832000B
:102650000120FFF77FFB01F054BD308844F2443184
:10266000401A18BF0120DC2F18BF002841F049850F
:10267000002800F08C8442F62C40C4F2010090ED5A
:10268000000A1FED412AB8EE400A9AF8021001EE46
:10269000101AB8EE411A81EE021A21EE000ABCEEC1
:1026A000C00A80ED020A90ED000AB8EE400A9AF8DE
:1026B000021001EE101AB8EE411A81EE021A21EE54
:1026C000000ABCEEC00A80ED030AAC208BF8320091
:1026D0000120FFF73FFB01F014BD306845F24701D0
:1026E000C4F64971401A18BF01206F2F18BF002887
:1026F00040F05A8246F24D41C0F600010020FDF73D
:1027000075FDC8F80000016844F25252C4F241421B
:102710000646881A18BF0120914200F0A1839AF85A
:1027200001507D2D00F09C8346F26F41C0F6000100
:1027300030460722FDF74CFD7F2D18BF002840F0E2
:10274000C484FEF755FAD8F8000046F26F41C0F68F
:1027500000010722FDF73CFD41F20005C4F201052E
:10276000002800F0C9860020CBF8320028464FF43C
:10277000804102F0E5FD9BF83210002818BF0120CF
:1027800040EA41008BF832002846102102F0D8FDC3
:102790009BF83210002818BF012040EA4100A5F53F
:1027A00080678BF832003846042102F0C9FD9BF89F
:1027B0003210002818BF012040EA41008BF8320097
:1027C0002846402102F0BCFD9BF83210002818BFBB
:1027D000012040EA41008BF8320028464FF4007196
:1027E00002F0AEFD9BF83210002818BF012040EA2D
:1027F00041008BF8320028464FF4806102F0A0FDC2
:102800009BF83210002818BF012040EA41008BF8E5
:10281000320028464FF4006102F092FD9BF832101E
:10282000002818BF012040EA41008BF832002846FA
:102830004FF4805102F084FD9BF83210002818BF3D
:10284000012040EA41008BF8320028464FF4005145
:1028500002F076FD002800F0B8869BF832004000B8
:10286000013000F0B5BE46F24D41C0F60001002037
:10287000FDF7BCFCC8F8000001F098FDFDF7FFFD76
:102880001FEDC50B02460B4651EC100BFDF777FD13
:102890001FEDC70B53EC102BFDF7CAFCFDF7FCFD39
:1028A000FEF7BEFF41F20000C4F2010000F5E05562
:1028B00028460021012203F06FFB28460021042254
:1028C00003F00AFA28460121012203F065FB28469D
:1028D0000121042203F000FA40F60D20ABF83E007F
:1028E00045F24140C4F24540CBF83A0045F2205051
:1028F000C4F25040CBF836000E20CBF83290FFF7F0
:1029000029FA01F0FEBB46F24D41C0F6000100205D
:10291000FDF76CFCC8F8000001F048FD02460020FD
:10292000002102F085FA0020CCE130684CF6CD4859
:10293000CCF6CC48A0FB080144F25450C5F24D003F
:102940004BF8320F42F23A07ABF80470C1F3CF02F2
:1029500058460621FDF7B8FF40F60D290C20ABF8CC
:102960000A900C25FFF7F6F97068ABF80470A0FB2D
:10297000080144F25620C5F25530CBF80000C1F3EF
:10298000CF0258460621FDF79FFF0C20ABF80A90B6
:10299000FFF7E0F9B06844F24E1AA0FB080145F2D7
:1029A0004250C2F65310C4F6281AABF80870CBF8A0
:1029B0000400CBF800A0C1F3CF0258460A21FDF76E
:1029C00083FF0A20ABF80890FFF7C4F9F068ABF872
:1029D0000470A0FB080145F24900C4F65210CBF880
:1029E0000000C1F3CF0258460621FDF76DFF0C2011
:1029F000ABF80A90FFF7AEF93069ABF80470A0FBB2
:102A0000080144F25620C5F24140CBF80000C1F362
:102A1000CF0258460621FDF757FF0C20ABF80A906D
:102A2000FFF798F97069ABF80470A0FB080144F255
:102A30004920C5F24140CBF80000C1F3CF0258460F
:102A40000621FDF741FF0C20ABF80A90FFF782F951
:102A50007069ABF80870A0FB080144F25350C2F64D
:102A60004310CBF80400CBF800A0C1F3CF025846C6
:102A70000A21FDF729FF0C20ABF80A90FFF76AF94D
:102A80007069A0FB080144F24E10C2F23A00CBF884
:102A90000000C1F3CF0258460421FDF715FFABF843
:102AA0000A902846FFF756F90020C6E90000C6E95B
:102AB0000200C6E9040001F024BB0A20ABF83A008A
:102AC00044F65470C0F65050CBF8360045F253200F
:102AD000C5F22030CBF832000A20FFF73BF901F0B5
:102AE00010BB316845F25340C5F24F00091A18BFB8
:102AF0000121302C18BF002941F00383326841F2D4
:102B00005051C2F20001002382420B7000F07A8320
:102B1000AC208BF832000120FFF71CF901F0F1BA6C
:102B2000308844F24431401A18BF0120DC2F18BF0E
:102B3000002841F0E682002800F0728342F62C4023
:102B4000C4F2010090ED000A9FEDBE2AB8EE400AE3
:102B50009AF8021001EE101AB8EE411A81EE021A2C
:102B600043F20041C4F2010121EE000ABCEEC00AAA
:102B700081ED0D0A90ED000AB8EE400A9AF80200C5
:102B800001EE100AB8EE411A81EE021AAC2021EED5
:102B9000000ABCEEC00A81ED0E0A8BF8320001205B
:102BA000FFF7D8F801F0ADBA306844F25511C5F21C
:102BB0005241401A18BF0120CA2F18BF002840F008
:102BC000A88146F24D41C0F600010020FDF70EFB42
:102BD000C8F80000008844F65454A04204D09AF883
:102BE0000000CA2841F08D8240F2D80043F2310142
:102BF00043F2513242F24F0344F24857C2F200000E
:102C0000C0F60D21C3F23202C5F24D03C4F64C47A3
:102C1000C0E90573C0E907211020FEF7B7FCD8F81A
:102C200000000088A04200F07783AC208BF83200CF
:102C30000120FFF78FF801F064BA46F24D41C0F66B
:102C400000010020FDF7D2FA42F62C44C8F800003B
:102C5000C4F20104A16940F2FF329143A16101F085
:102C6000A5FBA169C0B20843A06141F25050C2F275
:102C70000000077045F24440C5F22050CBF8320006
:102C800044F25040C5F24140CBF8360044F2454092
:102C9000C0F60D20CBF83A000C20FFF75BF801F0EE
:102CA00030BA46F24D41C0F600010020FDF79EFA11
:102CB000C8F8000001F07AFB02460120002102F072
:102CC000B7F8012002F0F6F840F60D20ABF83E0010
:102CD00045F24140C4F24540CBF83A0045F220505D
:102CE000C4F25040CBF83600CBF832900D26304677
:102CF000FFF730F840F22010C2F200003221FDF759
:102D00005CFABDEC048B01B0BDE8F08F46F24D419A
:102D1000C0F6000100200024FDF768FAC8F80000A2
:102D200001F044FB41F2B05841F24A56C2F20008A9
:102D3000C2F200060028A8F80000348001F0E1810A
:102D400040F21007C2F200070BF1320540F60D24E5
:102D5000FDF75CFC3A8828460021FDF7B5FD06200A
:102D6000ABF83640FEF7F6FF3088B8F800100130B7
:102D700082B28A423080EBD301F0C3B946F24D41B2
:102D8000C0F600010020FDF731FAC8F8000001F09C
:102D90000DFBFDF774FB9FED2C0B02460B4651EC2F
:102DA000100BFDF7ECFA9FED2A0B53EC102BFDF7FF
:102DB0003FFAFDF771FBFEF733FD43F20045C4F225
:102DC000010528460121012203F0E6F841F2000046
:102DD000C4F2010000F5E05630460121042202F061
:102DE0007BFF28460221012203F0D6F8304602215B
:102DF000042202F071FF40F60D20ABF83E0045F2D0
:102E00004140C4F24540CBF83A0045F22050C4F2AC
:102E10005040CBF836000E20CBF83290FEF79AFFE8
:102E200001F06FB950574D00535200004144430028
:102E300053414D504C45530053414D504C45535F09
:102E4000535049000000C84200000000004CFD4003
:102E5000000000000000F0BF43414E0046414E001C
:102E6000002800F0AC8141F200050020C4F2010509
:102E70008BF8320028464FF4005102F061FA013815
:102E8000B0FA80F09BF83210400940EA41008BF81C
:102E9000320028464FF4004102F052FA9BF83210FB
:102EA000002818BF012040EA41008BF83200A5F548
:102EB0000060402102F044FA0138B0FA80F09BF83B
:102EC0003210400940EA41008BF8320028462021A8
:102ED00002F036FA0138B0FA80F09BF8321040095F
:102EE00040EA41008BF83200A5F580604FF4805134
:102EF00002F026FA0138B0FA80F09BF8321040094F
:102F000040EA41008BF832000120FEF723FF01F078
:102F1000F8B8AFF2BC0130460322FDF759F9C52FCE
:102F200018BF002840F0FA8046F24D41C0F600017B
:102F30000020FDF75BF9C8F80000008844F65454FF
:102F4000A04204D09AF80000C52841F0DA8040F28F
:102F50003000C2F200005521A0F8A010032180F833
:102F6000A41045F24D01A0F80B1053214173FDF759
:102F7000A1FBD8F800000088A04200F06184AC20DA
:102F80008BF832000120FEF7E5FE01F0BAB846F2F8
:102F90004D41C0F600010020FDF728F942F62C440F
:102FA000C8F80000C4F2010494ED000A0546B8EE2A
:102FB000408A01F0FBF900EE100A1FED5E9AB8EEB0
:102FC000400A80EE090A284620EE080ABCEEC00A34
:102FD00084ED020A94ED000AB8EE408A01F0E6F9A9
:102FE00000EE100AB8EE400A80EE090A44F24430BE
:102FF000C5F2205020EE080ABCEEC00A84ED030A98
:10300000CBF8320044F25040C5F24140CBF83600D4
:1030100044F24540C0F60D20CBF83A000C20FEF7F4
:1030200099FE01F06EB846F24D41C0F60001002055
:10303000FDF7DCF846F2BC41C8F800000BF13200A5
:10304000C0F6000112221224FDF79EF82046FEF77A
:1030500081FEFEF7B1FBFDF709FF40F2B810C2F2A6
:1030600000000221017001F04CB846F24D41C0F65B
:1030700000010020FDF7BAF8C8F80000716C40F2BA
:10308000FF329143716401F091F9716CC0B2084351
:10309000706441F25050C2F20000077045F24440A3
:1030A000C5F22050CBF8320044F25040C5F2414006
:1030B000CBF8360044F24540C0F60D20CBF83A007C
:1030C0000C20FEF747FE01F01CB846F27741C0F62F
:1030D000000130460622FDF77BF8A42D18BF00281A
:1030E00040F0EE80FEF7A4F841F25351C2F2000125
:1030F0000022D8F800000A7046F27741C0F60001BD
:103100000622FDF765F8002800F0A683AC208BF8B6
:1031100032000120FEF71EFE00F0F3BFAFF2C42123
:1031200030460322FDF754F8FA2F18BF002840F06C
:10313000E88746F24D41C0F600010020FDF756F841
:10314000C8F800000646008844F64F64A04200F02C
:10315000F2819AF80170F02F00F0ED8146F26241A1
:10316000C0F6000130460322FDF732F80F2F18BFDA
:10317000002840F0D48741F20004C4F20104A4F511
:103180008060102104224FF4807302F07FF8A4F5D0
:10319000843002F029FFD8F8000046F26241C0F600
:1031A00000010322FDF714F8002801F00680AC208E
:1031B0008BF832000120FEF7CDFD00F0A2BF41F2F6
:1031C0000005C4F2010528464FF4005102F0B8F89A
:1031D000012840F0AC800A208BF83E0044F2497090
:1031E000C0F64850CBF83A0043F64520C4F620001C
:1031F000CBF8360045F25340C5F24140CBF83200DF
:103200000D20A7E046F2A8410BF13200C0F6000104
:103210001122FCF7B9FF1120FEF79CFD00F071BFF1
:1032200046F24D41C0F600010020FCF7DFFF42F6F8
:103230002C44C8F80000C4F2010494ED000A0546CD
:10324000B8EE408A01F0B2F800EE100A9FEDEF9A56
:10325000B8EE400A80EE090A43F20046C4F20106C5
:10326000284620EE080ABCEEC00A86ED0D0A94ED51
:10327000000AB8EE408A01F099F800EE100AB8EEA4
:10328000400A80EE090A44F24430C5F2205020EE94
:10329000080ABCEEC00A86ED0E0ACBF8320044F2F2
:1032A0005040C5F24140CBF8360044F24540C0F6EC
:1032B0000D20CBF83A000C20FEF74CFD00F021BFAA
:1032C00046F25241C0F6000130460722FCF780FF6B
:1032D000852D18BF002840F04C81FDF7E5FD00204A
:1032E00001F0D8FD41F25351C2F200010122D8F899
:1032F00000000A7046F25241C0F600010722FCF7B6
:1033000067FF002800F04F87AC208BF832000220C6
:10331000FEF720FD00F0F5BE0BF13200BCA1152236
:10332000FCF732FF1520FEF715FD00F0EABE45F26E
:103330004F70C0F60D20CBF83A0043F64520C4F696
:103340002040CBF8360045F25340C5F24140CBF85F
:1033500032000C20FEF7FEFC28464FF4004101F03D
:10336000EFFF012817D140F60D20ABF83E0044F6E0
:103370004810C4F64700CBF83A0044F24C50C2F271
:103380003A00CBF8360044F64560C4F24120CBF851
:1033900032000E2015E00A208BF83E0044F64C70F7
:1033A000C0F65750CBF83A0044F24C50C2F23A0003
:1033B000CBF8360044F64560C4F24120CBF8320029
:1033C0000D20FEF7C7FCA5F50060402101F0B8FF15
:1033D00001280AD146F294410BF13200C0F60001F7
:1033E00011221126FCF7D0FE18E045F24F70C0F60E
:1033F0000D20CBF83E0043F62920C4F62040CBF840
:103400003A0045F24330C4F24530CBF8360044F27E
:103410004E30C4F628701026CBF832003046FEF746
:1034200099FC2846202101F08BFF012816D10A20A3
:103430008BF83E0044F24970C0F64850CBF83A0091
:1034400043F64B20C4F62000CBF8360044F2574038
:10345000C4F65F70CBF832000D2012E045F24F70D9
:10346000C0F60D20CBF83A0043F64B20C4F62040BE
:10347000CBF8360044F25740C4F65F70CBF8320008
:103480000C20FEF767FCA5F580604FF4805101F039
:1034900057FF012819D10A208BF83E0044F24970E9
:1034A000C0F64850CBF83A0043F64920C4F6200055
:1034B000CBF8360044F24F30C5F25020CBF8320042
:1034C0000D20FEF747FC00F01CBE45F24F70C0F621
:1034D0000D20CBF83A0043F64920C4F62040CBF843
:1034E000360044F24F30C5F25020CBF832000C20A9
:1034F000FEF730FC00F005BE28464FF4804101F095
:103500001FFF002844F2497844F64140C0F648586D
:10351000C5F2412000F0AC810A218BF83E1043F641
:103520004D21C4F62001CBF83A80CBF83610CBF809
:1035300032000D20ABE141F20000C4F20100A0F521
:103540008060182104224FF4807301F09FFE40F246
:103550000770FEF715FAD8F800000088A04200F0C6
:103560001286AC208BF832000120FEF7F3FB00F04E
:10357000C8BD46F25A41C0F6000130460722FCF7AA
:1035800027FE582D18BF002840F0BB85FDF76EFDC3
:10359000002001F07FFC41F25351C2F200010222EF
:1035A000D8F800000A7046F25A41C0F6000107221E
:1035B000FCF70EFE002800F01386AC208BF83200DA
:1035C0000220FEF7C7FB00F09CBD9BF833004000D3
:1035D0008BF8330028464FF4004101F0B1FE20B1D2
:1035E0009BF832004000013002E09BF833004000BD
:1035F000A5F500668BF833003046402101F0A0FEAF
:1036000090B19BF832004000013010E00000C84249
:1036100055415254322054455354204D5347207342
:10362000656E640D0A0000009BF8330040008BF8C3
:1036300033002846202101F083FE20B19BF83200A0
:103640004000013002E09BF8330040008BF833006B
:1036500038464FF4805101F073FE20B19BF83200E0
:103660004000013002E09BF8330040008BF833004B
:1036700030464FF4007101F063FE20B19BF8320038
:103680004000013002E09BF8330040008BF833002B
:1036900030464FF4807101F053FE20B19BF83200A8
:1036A0004000013002E09BF8330040008BF833000B
:1036B00028464FF4807101F043FE20B19BF83200A0
:1036C0004000013002E09BF8330040008BF83300EB
:1036D0002846802101F034FE20B19BF832004000E2
:1036E000013002E09BF8340040008BF8340038468B
:1036F0004FF4807101F024FE20B19BF832004000AD
:10370000013002E09BF8340040008BF8340028467A
:10371000012101F015FE20B19BF83200400001307C
:1037200002E09BF8340040008BF834002846022168
:1037300001F006FE20B19BF832004000013002E0AB
:103740009BF8340040008BF834002846042101F037
:10375000F7FD20B19BF832004000013002E09BF8F9
:10376000340040008BF834002846082101F0E8FDC1
:1037700020B19BF832004000013002E09BF8340099
:1037800040008BF834003046012101F0D9FD20B112
:103790009BF832004000013002E09BF8340040000A
:1037A0008BF834003046022101F0CAFD20B19BF8AD
:1037B00032004000013002E09BF8340040008BF8FA
:1037C00034003046042101F0BBFD20B19BF83200EB
:1037D0004000013002E09BF8350040008BF83500D6
:1037E0003046082101F0ACFD20B19BF832004000CA
:1037F000013002E09BF8350040008BF83500304680
:10380000102101F09DFD20B19BF8320040000130F5
:1038100002E09BF8350040008BF83500304620214F
:1038200001F08EFD20B19BF832004000013002E033
:103830009BF8350040008BF83500042000F057BCA1
:103840000BF132000FF634211322FCF79DFC1320FC
:10385000FEF780FA00F055BC0BF132000FF668213C
:103860001F22FCF791FC1F20FEF774FA00F049BC00
:1038700045F24F71C0F60D21CBF83A1043F64D21B9
:10388000C4F62041CBF832000C20CBF83610FEF7FE
:1038900061FA2846102101F053FD44F6481444F221
:1038A0005741C4F64704C2F23A0128B10D208BF803
:1038B0003A00CBF8364006E044F64C70C0F657505C
:1038C000CBF836000C20CBF83210FEF743FAA5F502
:1038D00080673846042101F033FD002844F647098B
:1038E00042F23A0A45F6547145F25530C0F60D29B8
:1038F000C4F6481AC4F24451C5F2412009D0CBF8AD
:103900003E90CBF83AA0CBF83610CBF832000D2021
:1039100010E045F24F72C0F60D22CBF83D2042F286
:103920003A02C4F64C72CBF832000C20CBF83A20A5
:10393000CBF83610FEF70EFA2846402101F000FDC4
:10394000002845F25320C4F25F500ED00A218BF8B4
:103950003E1043F64E21C4F62001CBF83A80CBF856
:103960003610CBF832000D200EE045F24F71C0F654
:103970000D21CBF83A1043F64E21C4F62041CBF886
:1039800032000C20CBF83610FEF7E4F928464FF44D
:10399000007101F0D5FC002844F6456145F25070F5
:1039A000C2F23A01C5F64D700BD040F60D22ABF8CD
:1039B0003E20CBF83A40CBF83610CBF832000D2041
:1039C0000DE00A228BF83E2044F64C72C0F65752A6
:1039D000CBF832000C20CBF83A20CBF83610FEF7AB
:1039E000B9F928464FF4806101F0AAFC002844F29E
:1039F0004C50C3F2441007D0CBF83A90CBF836A025
:103A0000CBF832000D200EE045F24F71C0F60D21CB
:103A1000CBF8391042F23A01C4F64C71CBF83200BF
:103A20000C20CBF83610FEF795F928464FF40061CC
:103A300001F086FC002844F24C50C3F2442007D029
:103A4000CBF83A90CBF836A0CBF832000D200EE040
:103A500045F24F71C0F60D21CBF8391042F23A0110
:103A6000C4F64C71CBF832000C20CBF83610FEF7C0
:103A700071F928464FF4805101F062FC002844F2AD
:103A80004C50C3F2443007D0CBF83A90CBF836A074
:103A9000CBF832000D200EE045F24F71C0F60D213B
:103AA000CBF8391042F23A01C4F64C71CBF832002F
:103AB0000C20CBF83610FEF74DF928464FF4005194
:103AC00001F03EFC002845F25340C5F241400ED0C3
:103AD0000A218BF83E1043F64521C4F62001CBF8AD
:103AE0003A80CBF83610CBF832000D200EE045F2CC
:103AF0004F71C0F60D21CBF83A1043F64521C4F6BC
:103B00002041CBF832000C20CBF83610FEF722F91A
:103B100028464FF4004101F013FC002844F24C51B8
:103B200044F64560C2F23A01C4F241200BD040F69F
:103B30000D22ABF83E20CBF83A40CBF83610CBF84C
:103B400032000D200DE00A228BF83E2044F64C7224
:103B5000C0F65752CBF832000C20CBF83A20CBF805
:103B60003610FEF7F7F8A5F500663046402101F063
:103B7000E7FB50B146F294410BF13200C0F6000170
:103B80001122FCF701FB0D2018E045F24F70C0F642
:103B90000D20CBF83E0043F62920C4F62040CBF898
:103BA0003A0045F24330C4F24530CBF8360044F2D7
:103BB0004E30C4F62870CBF832000C20FEF7CAF85D
:103BC0002846202101F0BCFB002844F25740C4F6EF
:103BD0005F700ED00A218BF83E1043F64B21C4F6DD
:103BE0002001CBF83A80CBF83610CBF832000D200C
:103BF0000EE045F24F71C0F60D21CBF83A1043F6B6
:103C00004B21C4F62041CBF832000C20CBF8361003
:103C1000FEF7A0F838464FF4805101F091FB44F2D2
:103C20004F31C5F2502178B10A208BF83E0043F69F
:103C30004920C4F62000CBF83A80CBF836000C4679
:103C4000CBF832100D200FE045F24F70C0F60D207A
:103C5000CBF83A0043F64920C4F62040CBF83600B2
:103C60000C460C20CBF83210FEF774F830464FF4B7
:103C7000007101F065FB002845F25070C4F64D401C
:103C800007D0CBF83A90CBF836A0CBF832000D2015
:103C90000EE045F24F71C0F60D21CBF8391042F21B
:103CA0003A01C4F64C71CBF832000C20CBF8361038
:103CB000FEF750F830464FF4807101F041FB0028C8
:103CC00045F25070C4F64D0007D0CBF83A90CBF8CF
:103CD00036A0CBF832000D200EE045F24F71C0F651
:103CE0000D21CBF8391042F23A01C4F64C71CBF8F1
:103CF00032000C20CBF83610FEF72CF828464FF493
:103D0000807101F01DFB002844F6200845F2532085
:103D1000C4F24978C3F6482007D0CBF83990CBF8E5
:103D20003680CBF832000D200CE040F60D21ABF8C8
:103D30003A1044F62041C5F24F71CBF832000C2006
:103D4000CBF83610FEF706F82846802101F0F8FA85
:103D5000002845F25320C3F64C2007D0CBF8399009
:103D6000CBF83680CBF832000D200CE040F60D2168
:103D7000ABF83A1044F62041C5F24F71CBF832004F
:103D80000C20CBF83610FDF7E5FF38464FF4807174
:103D900001F0D6FA002844F24610C3F64E2007D0B0
:103DA000CBF83990CBF83680CBF832000D200CE000
:103DB00040F60D21ABF83A1044F62041C5F24F71A0
:103DC000CBF832000C20CBF83610FDF7C3FF2846A5
:103DD000012101F0B5FA58B144F25450C5F24D003A
:103DE000CBF83A90CBF836A0CBF832000D2012E099
:103DF00045F24F70C0F60D20CBF8390042F23A0080
:103E0000C4F64C70CBF8360044F25450C5F24D0065
:103E1000CBF832000C20FDF79DFF2846022101F06F
:103E20008FFA58B144F25620C5F25530CBF83A908B
:103E3000CBF836A0CBF832000D2012E045F24F70DF
:103E4000C0F60D20CBF8390042F23A00C4F64C70AF
:103E5000CBF8360044F25620C5F25530CBF832008C
:103E60000C20FDF777FF2846042101F069FA44F29F
:103E70004E17C4F6281768B145F24250C2F65310E7
:103E8000CBF83E90CBF83AA0CBF83600CBF83270A6
:103E90000D2014E045F24F70C0F60D20CBF83D0028
:103EA00042F23A00C4F64C70CBF83A0045F2425068
:103EB000C2F65310CBF836000C20CBF83270FDF769
:103EC00049FF2846082101F03BFA58B145F2490064
:103ED000C4F65210CBF83A90CBF836A0CBF83200AB
:103EE0000D2012E045F24F70C0F60D20CBF83900DE
:103EF00042F23A00C4F64C70CBF8360045F2490065
:103F0000C4F65210CBF832000C20FDF723FF3046E8
:103F1000012101F015FA58B144F25620C5F2414092
:103F2000CBF83A90CBF836A0CBF832000D2012E057
:103F300045F24F70C0F60D20CBF8390042F23A003E
:103F4000C4F64C70CBF8360044F25620C5F241401E
:103F5000CBF832000C20FDF7FDFE3046022101F0C7
:103F6000EFF958B144F24920C5F24140CBF83A90FC
:103F7000CBF836A0CBF832000D2012E045F24F709E
:103F8000C0F60D20CBF8390042F23A00C4F64C706E
:103F9000CBF8360044F24920C5F24140CBF832005C
:103FA0000C20FDF7D7FE3046042101F0C9F968B1B5
:103FB00044F25350C2F64310CBF83E90CBF83AA0EF
:103FC000CBF83600CBF832700D2014E045F24F707C
:103FD000C0F60D20CBF83D0042F23A00C4F64C701A
:103FE000CBF83A0044F25350C2F64310CBF83600F7
:103FF0000C20CBF83270FDF7ADFE3046082101F001
:104000009FF988B140F60D20ABF83A0044F648100D
:10401000C4F64700CBF8360044F24E10C2F23A0024
:10402000CBF832000D200FE00A208BF83A0044F65E
:104030004C70C0F65750CBF8360044F24E10C2F226
:104040003A00CBF832000C20FDF784FE30461021F8
:1040500001F076F968B145F24940C3F64820CBF843
:104060003D90CBF83A80CBF83600CBF832400D20AB
:1040700012E040F60D20ABF83E0044F62040C5F2B9
:104080004F70CBF83A0045F24940C3F64820CBF8D0
:1040900036000C20CBF83240FDF75CFE3046202184
:1040A00001F04EF950B146F280410BF13200C0F6FA
:1040B00000011122FCF768F80D2018E045F24F705E
:1040C000C0F60D20CBF83E0043F62920C4F6204070
:1040D000CBF83A0045F24330C4F24530CBF8360015
:1040E00044F24E10C4F62870CBF832000C20FDF7D5
:1040F00031FEFDF79DF8FDF73FFEFDF759FAFCF79D
:1041000097FE40F22010C2F200003221FCF755F871
:10411000BDEC048B01B0BDE8F04F00F065BB30880A
:1041200044F24431401A18BF0120DC2F18BF002888
:10413000E7D141F200060028C4F201065AD0A6F5E4
:104140008230A0F5757090ED000A9FED4B2AB8EE15
:10415000400A9AF802004FF63C0101EE100AB8EE50
:10416000411A81EE021ACFF6FE7121EE000ABCEE72
:10417000C00A10EE100A7050AC208BF832000120FB
:10418000FDF7E8FDBDE744F64F60C0F60D20CBF823
:10419000360044F24610C2F24E00CBF8320008203E
:1041A000FDF7D8FDADE70BF1320040A11B22FBF774
:1041B000EBFF1B20FDF7CEFDA3E70A208BF83A00AA
:1041C00044F24F60C0F64650CBF8360044F2461039
:1041D000C2F24E00CBF832000920FDF7BBFD90E79C
:1041E0000BF132002AA11B22FBF7CEFF1B20FDF7AB
:1041F000B1FD86E746F24D41C0F600010020FBF715
:10420000F5FFA6F58231C8F80000A1F5757191EDB2
:10421000000AB8EE408A00F0C9F800EE100A9FEDDF
:10422000161AB8EE400A80EE010A4FF63C01CFF6AE
:10423000FE7120EE080ABCEEC00A10EE100A7050A3
:1042400044F24610C2F24E00CBF8320044F2443041
:10425000C5F22050CBF8360044F25040C5F2414040
:10426000CBF83A0044F24540C0F60D20CBF83E00B2
:104270001020FDF76FFD44E70000C84243414E2087
:1042800054455354204D53472073656E640D0A0006
:104290004750494F20736574206173206D696464D1
:1042A0006C65207465737420320D0A004750494FC5
:1042B00020736574206173206D6964646C6520747B
:1042C00065737420310D0A00414C4C204750494F12
:1042D0002053455420544F205354414E444152449E
:1042E000204D4F44450D0A00F0B595B0FCF7A0FFF6
:1042F000FDF742FDFDF75CF9FCF79AFD40F2201650
:10430000C2F200064FF4E135002406F132000F95A9
:10431000CDE910441294CDE913060FA8FDF77EFCF9
:104320002027012086F83270FDF714FDCDE90954ED
:1043300040F2D805C2F2000505F11400CDE90B44A6
:10434000CDE90D0509A8FDF793F801202F75FDF7BC
:104350001DF940F20510C2F2000000F1080105301D
:104360000294CDE90544CDE907440391049002A8E5
:10437000FDF73CF94FF4FA7000906846ADF8044040
:10438000FCF712FDFCF7E2FA40F2AF40FDF748FA05
:104390000E20FDF74BFB40F2AF40FDF771FB40F6FE
:1043A000B730FDF7B9FA15B0F0BD00000178A1F102
:1043B0003002092A82BF002398B2704700220023EE
:1043C00003EB83035B00013253FA81FC91B2415C41
:1043D000A1F130030A2BACF13003F1D398B270474E
:1043E000B0B501380024B4EB106F18BFB0BD4EF269
:1043F0001005CEF2000568600F2000F0FDF90720DF
:10440000AC602860B0BD000010B541F2B454C2F2F7
:104410000004206842F647010130CBF2A37141430A
:104420004EF633424FEA3111C0F20A029142206047
:1044300003D9BDE81040FDF7C3BC41F24151C2F2BF
:1044400000010A7840F60040B2FA82F35B09C4F238
:1044500001000B704FF400713AB100F0D1FE002062
:104460002060BDE81040FDF7ABBC00F0CBFEBDE81E
:104470001040FDF7A5BC000080B54EF68850CEF286
:10448000000001684FF6FF7241F47001016041F2D3
:104490000000C4F202000168CEF6F62241F00101EC
:1044A000016000214160C1620168114001604FF468
:1044B0007F018160016821F48021016001F0F0FB3F
:1044C0004FF000600021BDE8804001F007BA000015
:1044D00010B542F60044C4F201042046012101F067
:1044E0009BFE18B12046012101F090FE04F5006406
:1044F0002046012101F090FE002808BF10BD204693
:104500000121BDE8104001F081BE0000B0B54FF0C0
:104510008040012101F080FE002855D04FF08040FE
:104520000121012401F072FE41F2B255C2F20005F0
:10453000287848B340F22015C2F20005287898B1D7
:1045400043F60004C4F201042046042101F014FFE4
:10455000012809D12046042101F002FF012085F83D
:1045600097001C2000F02CF940F20400C2F2000079
:104570000078022828D12878002818BFB0BD322042
:10458000BDE8B040FDF7FABA40F2201043F22E2108
:10459000C2F20000C0F60D21C0F83D1045F22061C6
:1045A000C2F63161C0F83A1042F25401C4F64F31FC
:1045B000C0F8361045F25341C5F24121C0F832101F
:1045C0001220FDF7C7FB2C70B0BD000010B540F6FF
:1045D0000004C4F200042046012101F01DFE002861
:1045E00008BF10BD20460121BDE8104001F00EBEFD
:1045F0002DE9F04F81B040F60044C4F20104A4F567
:1046000080352846012101F007FE002800F0818056
:104610002846012101F0FAFD41F25250C2F2000099
:104620000178002975D041F2B85141F2A853C2F285
:104630000001C2F200030A881B884FF4FA570132C6
:10464000B7FBF3F397B241F24C5641F2AA5A9F429C
:10465000C2F20006C2F2000A0A8055D93288BAF8BE
:1046600000309A4250D2002004F580650880284628
:104670004FF4005100F064FE318840F2B917013860
:10468000C2F20007B0FA80F07A5C400940EA4200CA
:10469000785428464FF4004100F052FE318801382A
:1046A000B0FA80F07A5C400940EA42007854204633
:1046B000022100F045FE31880138B0FA80F07A5CC2
:1046C000400940EA4200785420464FF4805100F0FF
:1046D00037FE31880138B0FA80F07A5C400940EA50
:1046E000420078542046202100F02AFE318801380B
:1046F000B0FA80F07A5C400940EA42007854481CE5
:10470000308001B0BDE8F08F3188BAF800209142C6
:1047100002D201B0BDE8F08F0024047041F2515084
:10472000C2F2000004703220348000F049F8BAF878
:1047300000003480E8B341F2545740F2201840F2B0
:10474000B9194FF0000BC2F20007C2F20008C2F222
:10475000000900210EE000BF481E3870C0B2FDF70E
:10476000F9FA308800F13201BAF800008AB28242C8
:1047700031801ED28DB284B2A5424FF0000087F87E
:1047800000B0EBD2EA43224408EB0500312A28BFEF
:104790003122323009EB05010132FBF7F5FC012033
:1047A000312800F10101D7D82844A0420846F7D3A8
:1047B000D2E701B0BDE8F04F00F016B87047000036
:1047C000002848BF704700F01F01012202FA01F1E2
:1047D0004EF280124009CEF2000242F82010BFF3E0
:1047E0004F8FBFF36F8F70474EF20010CEF2000074
:1047F0004FF08051016070474EF623510001CEF218
:104800000001087070470000816841F00801816074
:1048100081680907FCD4816841F00401816000BF10
:1048200081684907FCD4704780B5012908D0022966
:1048300018BF80BD4FF4401E6FF4401C382304E0C5
:104840004FF4700E6FF4700C2C23195801EA0C0110
:1048500019500EEB02511A5801EA0E01114319507A
:1048600080BD00008268002942F4006308BF22F482
:104870000063836070470000816841F4807181604B
:10488000704700008168C90718BF7047816841F010
:104890000101816070470000002A01F0010203D08D
:1048A0007AB9890713D470471AB1826822F480124A
:1048B0008260890758BF7047816821F40041816098
:1048C0007047826842F4801282608907EBD5816864
:1048D00041F4004181607047012905D0022918BFC9
:1048E00070476FF4E04101E06FF460218368194084
:1048F0008160816811438160704700000068084052
:1049000018BF01207047000042F20441C4F20101C7
:104910000A6822F470220A600A681043086070472F
:1049200010B5052904D800F1340C01EB810E10E01C
:104930000B2906D801EB810100F1300CA1F11E0E0C
:1049400007E00F2910D801EB810100F12C0CA1F137
:104950003C0EDCF800101F2404FA0EF4A14302FA06
:104960000EF42143CCF80010092A03D8103002EBD2
:10497000420106E0112A88BF10BD02EB42010C3053
:104980001E39026807248C40A24303FA01F1114347
:10499000016010BDD0F8802022F44052C0F8802081
:1049A000D0F880201143C0F880107047CA0703D0A8
:1049B000826842F480028260890758BF704781682C
:1049C00041F4001181607047002A01F4807205D023
:1049D000BAB94A051BD489071FD470471AB1426877
:1049E00022F4807242604A0503D5426822F4806254
:1049F0004260890758BF7047816821F002018160D9
:104A00007047426842F4807242604A05E3D54268CA
:104A100042F4806242608907DFD5816841F002017B
:104A20008160704710B546F20041C4F2000140F2C7
:104A30001A44884208BF40F21944204601F040F869
:104A40002046BDE8104001F02BB80000B0B546F29A
:104A50000061C4F2000144890A684FF0010C42F081
:104A600001020A60CB690CFA04F5AB43CB61C38940
:104A70006FEA050C012B10D023BBCB6803EA0C03B3
:104A8000CB60B0F806E0438843EA0E434FEAC40E19
:104A900001EBC404236403460DE0CB682B43CB60D9
:104AA000B0F800E0438843EA0E434FEAC40E01EB3E
:104AB000C4042364831D84881B8843EA044301EBF8
:104AC0000E04636483894C68002B44EA050208BF26
:104AD00004EA0C024A6002894B69002A43EA050491
:104AE00008BF03EA0C044C61007C012802D1C869AC
:104AF0002843C861086820F001000860B0BD0000CC
:104B000001F01F0289094FF0010C0B580CFA02F258
:104B10001A430A50704700008A09105801F01F011B
:104B2000C84000F001007047F0B581B00E4644F275
:104B30004021C0F20F018E421BD80121044600F033
:104B40002DF9002501284FF0000708D1E06900F099
:104B50004047304600F0BCF938430127E061204669
:104B6000022100F01BF9012808BF3D46284601B08C
:104B7000F0BD002001B0F0BDF0B5026840F2010CBC
:104B800022F0020202600268CFF6FF7C42F00102CE
:104B900063460260426823B112F0010203F101038F
:104BA000F8D04268D20704BF0020F0BD0A7891F81F
:104BB00001E08B789207CC7803F00F0503F07003C7
:104BC0006EF31C624F8942EA831204F0070604F078
:104BD000180442EA0542013F42EA84226FF39F270C
:104BE00042EA06523A44C2610A790368012A23F074
:104BF000800708BF43F0800707604A790368012AED
:104C000023F0400708BF43F0400707608A79036834
:104C1000012A23F0200708BF43F020070760CA7964
:104C20000368012A43F0100708BF23F0100707604C
:104C30000A7A0368012A23F0080708BF43F008072F
:104C40000760497A0268012922F0040308BF42F094
:104C500004030360016821F00101016042686146BC
:104C6000BCF1000F04D012F0010201F1010CF5D1EA
:104C7000002918BF01210846F0BD0000F0B581B041
:104C800005468068400108D4A868000107D4A868D8
:104C9000C00006D4032001B0F0BD002002E00120D6
:104CA00000E0022005EB0013D3F8802102F001029E
:104CB000C3F880210A7A1AB14E6842EAC60201E0BE
:104CC0000A6852054E7A91F84BE0D3F8804132439E
:104CD0004FEA001C2243BEF1000FC3F8802104D02C
:104CE0002A6AD2071BD100BFFEE70CEB0502D2F8FF
:104CF000846126F00F06C2F884618E7AD2F884416E
:104D00002643C2F88461D1F80B60C2F88861D1F8FB
:104D10000F104FF4C6720CEB0507B95031E08C7AD6
:104D2000092C22460CD346F246460022C0F6000665
:104D3000B75CBC4203D00132072AF9D1FEE7093241
:104D400091F84C6091F84D7042EACE1242EA461258
:104D500042EA07170CEB0502C2F8847100270B31F9
:104D6000B7EB940F009114D0A10800BF009F013948
:104D70003F680E06C2F88871009F07F1040700978C
:104D8000F4D1D3F8801141F00101C3F8801101B0D2
:104D9000F0BD00994FF4C4720968BCE704291CD027
:104DA000022930D001291CBF00207047016821F082
:104DB0000201016002680121CFF6FF7142F0010299
:104DC000026000BF426821B112F0010201F101014D
:104DD000F8D0406800F001007047016821F001013F
:104DE000016002680121CFF6FF7142F00202026009
:104DF000426821B112F0020201F10101F8D04068CD
:104E0000C0F34000704702680121CFF6FF7122F025
:104E100003020260426821B112F0030201F10101B4
:104E2000F8D1406800F00300B0FA80F04009704704
:104E300060B1022915D0012919D0002918BF704787
:104E400047F20840C4F20000C2607047022914D043
:104E5000012918D051B947F20840C4F2000002609D
:104E6000704747F20840C4F200004261704747F2C1
:104E70000840C4F200000261704747F20840C4F2E3
:104E800000008260704747F20840C4F200004260B0
:104E90007047000047F20041C4F200010A686FF455
:104EA0008033002808BF6FF0010302EA03000860A6
:104EB0007047000047F20441C4F200010A6802236F
:104EC000002808BF012342EA030008607047000081
:104ED00010B50446022000F047FDB0FBF4FE4AF690
:104EE000AB20CAF6AA20AEFB00021009B0EB9E0F61
:104EF00012D24FEA9E0C831C01301622002400BF00
:104F0000D11C5943714508D0013C14F11601A2F19E
:104F10000102F5D16045EED3FEE746F2D041C0F67E
:104F2000000101EBC401D1E92C216FF39F2002F0B5
:104F30000F0261F3165040EA024010BDB0B50D46B5
:104F4000044600F0C5F848B105EB850004EB80008D
:104F5000816821F001018160B0BD00BFFEE7000063
:104F6000B0B50D46044600F0B3F848B105EB850036
:104F700004EB8000816841F001018160B0BD00BF99
:104F8000FEE70000B0B50D46044600F0A1F848B1B8
:104F900005EB850004EB8000816821F02001816031
:104FA000B0BD00BFFEE70000B0B50D46044600F0FE
:104FB0008FF848B105EB850004EB8000816841F073
:104FC00020018160B0BD00BFFEE70000890043689A
:104FD00002FA01F11943416070470000006889003E
:104FE00002FA01F1084018BF0120704770B514465D
:104FF0000E46054600F06CF880B3216806EB86008B
:1050000005EB80000161A1684161218AC16081686E
:10501000626821F47C51E3686669114319433143A6
:105020008160217E8268012922F0400308BF42F09E
:1050300040038360617E8268012922F0800308BFFB
:1050400042F080038360A17E8268002942F0100351
:1050500008BF22F01003836070BD00BFFEE70000B0
:1050600070B514460E46054600F032F840B106EB26
:10507000860005EB800081682143816070BD00BF20
:10508000FEE700008900436802FA01F1194341601C
:1050900070470000082A19D80123934013F48A7F2F
:1050A00014D08B0001EB8101D0F800C000EB81002F
:1050B000806802FA03F31CEA030100EA020018BF49
:1050C0000121002818BF012008407047FEE70000BA
:1050D00040F20042C4F20202801A18BF01200022EE
:1050E000052938BF012210437047000070B51646ED
:1050F0000D460446FFF7ECFF30B105EB8501B0B279
:1051000004EB8101C86070BDFEE70000B0B50D463C
:105110000446FFF7DDFF28B105EB850004EB8000B6
:10512000C068B0BDFEE7000040F2084CC4F2010CBC
:105130005CF8083C012923EA00034CF8083C5CF8C1
:10514000043C23EA00034CF8043CDCF8003023EA7A
:105150000003CCF80030DCF8043023EA0003CCF87C
:10516000043019D021B95CF8081C01434CF8081C24
:10517000022A18D0012A6FEA000118D0002A18BFAD
:105180007047DCF800201043CCF80000DCF8040085
:105190000840CCF8040070475CF8041C01434CF84C
:1051A000041C022AE6D1DCF80010014302E0DCF81E
:1051B00000201140CCF80010DCF804100843CCF8B3
:1051C0000400704740F20041C4F201010A68104334
:1051D0000860704740F21441C4F201010860704752
:1051E00040F20041C4F201014A690968024000EA44
:1051F000010018BF0122002818BF0120104070478D
:1052000041617047016170470C2240F2080C02EACC
:1052100081030F22C4F2010C032902FA03F20BD816
:10522000DCF8001098409143CCF80010DCF8001036
:105230000843CCF80000704707290BD8DCF80410AD
:1052400098409143CCF80410DCF804100843CCF8E3
:10525000040070470B296FEA02010BD8DCF8082024
:1052600098401140CCF80810DCF808100843CCF83E
:1052700008007047DCF80C2098401140CCF80C1066
:10528000DCF80C100843CCF80C0070472DE9F0470F
:10529000CF0601F00F0C09D5042A05D1C26B4CF0E2
:1052A000030C1A43C26301E04CEA020C00F1100E39
:1052B00000F1140A00244FF001094FF00F080027F5
:1052C00007E000BF166005600137082F04F10404F1
:1052D00012D009FA07F212EA0306F5D0026808FABA
:1052E00004F5AA430CFA04F5154328295246E9D0DF
:1052F0004829E8D17246E5E7082400254FF0010966
:105300004FF00F0809E000BF176046600134102C11
:1053100005F1040508BFBDE8F08709FA04F212EAB6
:105320000307F3D0426808FA05F6B2430CFA05F613
:10533000164328295246E7D04829E6D17246E3E7CA
:105340008068084018BF012070470000B0B50422F3
:10535000C4F20102134602F1180E002848BF73463A
:105360001B6800F44014C0F30345B4F5401F1FFA56
:1053700080FC07D1146823F0E06324F0E06414603B
:1053800079B915E0C40206D46FF00F0404EA504462
:105390000CFA04F401E00324AC40A34343F0E063BF
:1053A00031B16FF00F0101EA50410CFA01F10B43EA
:1053B000002848BF72461360B0BD000041F20004EF
:1053C000C4F20104FEF790FF40F20800C2F20000B0
:1053D000006841F25971CDF2B711A0FB0101480BF1
:1053E000FEF7FEFF0220FFF707FA40F2051941F22F
:1053F000535841F2485A04F574454FF0000BC2F27D
:105400000009C2F20008A4F58067C2F2000A91E028
:1054100020468021FFF794FF20464FF48041FFF79C
:10542000F1FE38464FF48071FFF78AFF20461021C5
:10543000FFF7E8FE20460121FFF782FF38460421EE
:10544000FFF7E0FE20460221FFF77AFF20464021C9
:10545000FFF7D8FE20460421FFF772FF20464FF4E5
:105460000071FFF7CFFE20460821FFF769FF2046B5
:105470004FF48061FFF7C6FEA4F5006630460121B7
:10548000FFF75EFF20464FF40061FFF7BBFE30469A
:105490000221FFF755FF20464FF48051FFF7B2FE7F
:1054A00030460421FFF74CFF20464FF40051FFF730
:1054B000A9FE30460821FFF743FF20464FF4004184
:1054C000FFF7A0FE30461021FFF73AFF304640219B
:1054D000FFF798FE30462021FFF732FF20462021BB
:1054E000FFF790FE38464FF48061FFF729FF3846FA
:1054F0004FF48051FFF786FE38464FF40061FFF706
:105500001FFF30464FF40071FFF77CFE30464FF42A
:105510008051FFF715FF30464FF48071FFF772FEA0
:1055200030464FF40061FFF70BFF20464FF48071C7
:10553000FFF768FE284600210222FFF74FFD0128F1
:1055400014D128460021FFF7E1FD14280ED00120D8
:1055500089F80200284600210222FFF737FD43F6B2
:105560000040C4F20000012100F0BAFA99F80200EC
:1055700000286CD099F8050099F80610C72889F81A
:1055800002B008BFC72923D0662808BF662932D0D9
:1055900041F25652C2F20002128841EA00209042C3
:1055A00040D040F20401C2F20001097801292BD059
:1055B000C1BB41F25651C2F20001088047F20441DA
:1055C000C4F200014860086840F0010029E000BF13
:1055D00040F204010220C2F20001087040F22010E3
:1055E000C2F20000DC2180F832100120FCF7B2FB8F
:1055F000FFF7FAF82BE0BAF80000400080B2FCF7A1
:10560000A9FBAAF800B020E041F25651C2F2000115
:10561000088047F20441C4F200010861086840F0C4
:1056200002000860BAF8001040F2201699F8050050
:1056300099F806204B00C2F2000601333236F254CC
:1056400006F81100481CAAF80000FCF79FF898F82B
:10565000000002283FF4DCAE01287FF46BAF204647
:105660004FF48041FFF76CFE20B120468021FFF708
:10567000C9FD03E020468021FFF7C2FD204610212E
:10568000FFF75EFE28B138464FF48071FFF7BAFD90
:1056900004E038464FF48071FFF7B2FD384604212C
:1056A000FFF74EFE20B120460121FFF7ABFD03E0DE
:1056B00020460121FFF7A4FD20464021FFF740FED0
:1056C00020B120460221FFF79DFD03E02046022184
:1056D000FFF796FD20464FF40071FFF731FE20B131
:1056E00020460421FFF78EFD03E020460421FFF74A
:1056F00087FD20464FF48061FFF722FE20B120464F
:105700000821FFF77FFD03E020460821FFF778FD21
:1057100020464FF40061FFF713FE28B1A4F50060A6
:105720000121FFF76FFD04E0A4F500600121FFF700
:1057300067FD20464FF48051FFF702FE28B1A4F523
:1057400000600221FFF75EFD04E0A4F50060022185
:10575000FFF756FD20464FF40051FFF7F1FD28B149
:10576000A4F500600421FFF74DFD04E0A4F50060FE
:105770000421FFF745FD20464FF40041FFF7E0FD0F
:1057800028B1A4F500600821FFF73CFD04E0A4F572
:1057900000600821FFF734FDA4F500663046402183
:1057A000FFF7CEFD20B130461021FFF72BFD03E0BF
:1057B00030461021FFF724FD20462021FFF7C0FDD1
:1057C00020B130462021FFF71DFD03E030462021A7
:1057D000FFF716FD38464FF48051FFF7B1FD28B1B1
:1057E00038464FF48061FFF70DFD04E038464FF472
:1057F0008061FFF705FD30464FF40071FFF7A0FD13
:1058000028B138464FF40061FFF7FCFC04E038464D
:105810004FF40061FFF7F4FC30464FF48071FFF75E
:105820008FFD28B130464FF48051FFF7EBFC04E0C8
:1058300030464FF48051FFF7E3FC20464FF480716F
:10584000FFF77EFD28B130464FF40061FFF7DAFC28
:1058500070E630464FF40061FFF7D2FC6AE60000C4
:1058600070B515464EF60C52CEF2000212680E4686
:1058700002F4E061A1F54071B1F5A06F044603D2D6
:10588000080AC0F1040105E04FF4A06000F01CF824
:10589000022002210F2222FA01F106FA00F029402B
:1058A00008434EF20011CEF20001000144EA010269
:1058B00082F8000304F01F00012202FA00F01C220B
:1058C00002EAD402505070BD40F080604EF60C5198
:1058D00040F0FD70CEF20001086070474FF6807214
:1058E000C1F6FF72114008434EF60851CEF2000196
:1058F0000860704710B541F2040CC4F2020CDCF8E9
:10590000001043F6FF72CEF6FF720A40DCF8281052
:105910000B2821F0005E21D8012383401C070CD105
:1059200013F4706F0CD04CF20003CFF6FC7303EA53
:105930008030024341F0005E10E042EA80320DE028
:105940000121814011F0A00F08D04CF20001CEF6E9
:10595000FE7101EA8030104340F08052CCF8002004
:10596000CCF828E010BD000010B541F2040EC4F2DE
:10597000020EDEF8001001F00C01082941F20021AE
:10598000C0F27A0146D1DEF80030DB0304D440F6E1
:10599000001CC0F23D0C25E0DEF82830DEF828C0FF
:1059A0005B0046F60043C0F2DC2358BF0B465FEABB
:1059B000CC3110D5DEF82810C1F3031CDEF8281016
:1059C0000CF1010CC1F30321B3FBFCF302311129EB
:1059D00008BF14214B43DEF8281001F00F010131FC
:1059E000B3FBF1FCDEF800301022C3F38343DEF892
:1059F000001002EA5161194401220F2938BF022226
:105A000053180F2B11BF03FB0CF10CEB4C01490099
:105A100001EB5C01DEF800200328C2F30313DEF87B
:105A20000020C2F3022CDEF800400BD80EA2D25C9C
:105A30000FF2440E21FA02F3DFE800F01302070D23
:105A4000184610BD0021084610BD1EF80C0023FAB0
:105A500000F1084610BDC4F3C2201EF8000023FA6E
:105A600000F1084610BD00BF00000000000000006B
:105A700001020304060708090000000001020304F4
:105A800041F2000300F01F018009C4F202034FF04D
:105A9000010CC2580CFA01F11143C15070470000CB
:105AA00041F2000300F01F018009C4F202034FF02D
:105AB000010CC2580CFA01F122EA0101C1507047F1
:105AC00041F2000300F01F018009C4F202034FF00D
:105AD000010CC2580CFA01F11143C150704700008B
