:020000040800F2
:10000000B8190020650100086D0100086F010008A3
:10001000710100087301000875010008000000006C
:100020000000000000000000000000007701000850
:1000300079010008000000007B010008F944000875
:100040007F0100087F0100087F0100087F01000890
:100050007F0100087F0100087F0100087F01000880
:100060001D0700087F0100087F0100087F010008CC
:100070007F0100087F0100087F0100087F01000860
:100080007F0100087F0100087F0100087F01000850
:100090007F0100087F0100087F0100087F01000840
:1000A0007F010008C14500087F0100087F010008AA
:1000B000FD4500087F010008BD4600087F010008DB
:1000C0007F0100087F0100087F0100087F01000810
:1000D0007F010008AD4800087F0100087F0100088B
:1000E0007F0100087F0100087F0100087F010008F0
:1000F0007F0100087F0100087F0100080000000068
:100100007F01000800000000E14600087F010008B0
:100110007F0100087F0100087F0100087F010008BF
:100120007F010008E90600087F0100087F01000840
:100130007F01000800000000000000007F010008AF
:100140007F0100087F0100087F0100087F0100088F
:10015000DFF80CD000F048FA00480047AD54000822
:10016000B81900200648804706480047FEE7FEE72A
:10017000FEE7FEE7FEE7FEE7FEE7FEE7FEE7FEE757
:10018000694500085101000840EA01039B0703D0BC
:1001900009E008C9121F08C0042AFAD203E011F8C6
:1001A000013B00F8013B521EF9D27047D2B201E088
:1001B00000F8012B491EFBD270470022F6E710B56C
:1001C00013460A4604461946FFF7F0FF204610BDC5
:1001D00030B504460020034600E05B1C934203D286
:1001E000E05CCD5C401BF8D030BD000070B50F4D19
:1001F00000B92868002412E00A4602E09E4203D0BB
:10020000521C1378002BF9D1DAB2224305D02BB15E
:1002100024B1002100F8011B04E00446401C0678CC
:10022000002EE9D12860204670BD000000000020AB
:100230002DE9FE4F804681EA0300C00F0C46009076
:1002400021F0004123F00045B8EB0200A94105D29E
:100250004046214690461C460B46024623F000408D
:10026000104347D0270DC7F30A00C3F30A51029089
:10027000401A019040286BDAC3F3130040F4801B4E
:100280000098924620B10023D2EB030A63EB0B0BDC
:1002900001985946C0F14002504600F016F9064652
:1002A0000D4650465946019A00F02EF910EB080011
:1002B0006141002487EA115284EAE7731A4340D06F
:1002C000009A62B3019A012A4FEA075215DC001B1B
:1002D00061EB02014FF0004202EA0752CDE9004211
:1002E000001C41F5801132462B4600F02EF903B078
:1002F000BDE8F08F40462146F9E7001B61EB0201A3
:10030000001C41F5801300185B412018A2F500176E
:1003100047EB030140EAD570B6196D4111E06D0855
:100320004FEA360645EAC0754FEA0752001B61EBFB
:100330000201001C41F5801149084FEA3000001904
:10034000514132462B4603B0BDE8F04F00F0EEB805
:100350000098012240000023D0EB020263EBE0731F
:10036000009821464FEAE074B8EB000061EB04010D
:10037000E9E783F000435BE781F0004158E72DE9AE
:10038000F04D81EA030404F0004B21F000451446CF
:100390004FF0000A23F0004150EA050220D054EA51
:1003A00001021DD0C5F30A570246C5F31303C1F37A
:1003B0001300C1F30A5640F4801543F48013A7EBF1
:1003C0000608101BD64608F2FD3873EB050002D371
:1003D00008F1010801E092185B41B8F1000F03DA5F
:1003E00000200146BDE8F08D00204FF48011064644
:1003F00084460EE0171B73EB050705D3121B63EB56
:10040000050306434CEA010C49084FEA30009218F4
:100410005B4150EA0107EDD152EA030012D082EAB3
:10042000040083EA0501084305D0101BAB4106D246
:100430000122002306E000224FF0004302E06FF0AB
:10044000010253101AEB06004CEB085110EB0A00A6
:1004500041EB0B01BDE8F04D00F068B80EB5C10FDF
:1004600080EAE0700844CA07002140F233438DE877
:100470000E000A460B4600F068F803B000BD0EB54A
:1004800040F2334102910021CDE900110A460B46AA
:1004900000F05BF803B000BDC1F30A5210B5C1F320
:1004A000130140F2FF3341F480119A4201DA002037
:1004B00010BD40F233439A42A2F2334203DC52426F
:1004C00000F012F810BD904010BD202A04DB203A45
:1004D00000FA02F1002070479140C2F1200320FA97
:1004E00003F3194390407047202A04DB203A21FA95
:1004F00002F00021704721FA02F3D040C2F120023D
:100500009140084319467047202A06DBCB17203A52
:1005100041FA02F043EAE07306E041FA02F3D04008
:10052000C2F12002914008431946704710B5141ECD
:1005300073F1000408DA401C41F1000192185B419C
:100540001A4301D120F0010010BD2DE9F04D924673
:100550009B4611B1B1FA81F202E0B0FA80F220328A
:100560009046FFF7B2FF04460F4640EA0A0041EA10
:100570000B0153465A46084313D0114653EA010073
:1005800019D0C8F140025046FFF7AEFF05460E46AF
:10059000504659464246FFF798FF084305D00120D0
:1005A00004E020463946BDE8F08D0020054346EAC8
:1005B000E0762C4337430A986305E40AA0EB080071
:1005C0000022FD0A44EA47540A3002D500200146C1
:1005D000E9E7010510196941DDE90845001969419C
:1005E000BDE8F04DA2E70000064C074D06E0E068CC
:1005F00040F0010394E8070098471034AC42F6D36A
:10060000FFF7AAFD786600089866000810B540F26A
:10061000B010C2F20000007801281DD0002818BFD9
:1006200010BD42F60000C4F201000024A0F5806075
:100630000121C4F2020404F031FA00BF2046002177
:10064000022204F043FD0028F8D0204600210222B7
:10065000BDE8104004F032BD42F60004C4F20104CB
:100660002046012104F01AFA2046022104F0BEF9C6
:100670000028F9D042F64C00C4F20100006840F2B4
:100680001001C2F20001086010BD0000B0B50146C3
:10069000B0F8A0000022C1E9000246F2004491F83F
:1006A000A400C4F200040A818872204604F05EFBB4
:1006B00041F25051C2F2000141F23C5508704FF432
:1006C0000071C2F20005022898BF01EBC001296049
:1006D0002988204604F098FA0128F9D02988204674
:1006E000BDE8B04004F084BA10B540F20044C4F252
:1006F000020420460121022204F044FD012818BF13
:1007000010BDA4F574404FF4804104F0F1FD204683
:1007100001210222BDE8104004F02CBD70B5042078
:1007200004F0D6FD012818BF70BD41F24850C2F256
:100730000000007801282BD0022846D0032862D17F
:10074000FFF764FF42F60045C4F20105A5F5E05449
:1007500020464FF4804104F0CDFD40F21000C2F27B
:100760000000008840F2FD0600BAC2F20006000C4C
:10077000A6F8070020464FF4804104F0B9FDF17956
:10078000A5F5704005F040FA012000F031FF3AE095
:1007900042F60044C4F201042046002105F09AFC10
:1007A00020460021042205F00FFB204601210422EF
:1007B00005F00AFB20460021012205F065FC2046D9
:1007C0000121012205F060FC1DE042F60040C4F268
:1007D000010000F500642046002105F07BFC204666
:1007E0000121042205F0F0FA20460221042205F03E
:1007F000EBFA20460121012205F046FC20460221A9
:10080000012205F041FC0420BDE8704004F05ABD0F
:100810002DE9F04144F6D353C1F26203A2FB033C3D
:100820004FEA9C1E4CF6CD4C48F21F53CCF6CC4CF4
:10083000C5F2EB13A2FB0334AEFB0C386309A2FB39
:100840000C46A3FB0C47F408A4FB0C654FEAD80642
:1008500006EB8606AEEB460646F0300646540844E4
:10086000F90801EB8101A3EB410141F03001417036
:10087000E90801EB8101A4EB410141F030018170F5
:1008800004EB8401A2EB410141F03001C170BDE8ED
:10089000F0810000B0B588B000208DF81E0040F255
:1008A0001000C2F2000042F6000403904FF4006012
:1008B000C4F201040490A4F56D7001904FF48070AF
:1008C000ADF81C004FF40070029001200025059047
:1008D0004FF44050C4F20205069001AA28460021B8
:1008E00004F0FCFB2846002104F0D6FB284600213A
:1008F00004F0AEFB002004F07FF842F20045C4F2A1
:10090000010528464FF48071012204F0D5F82846ED
:100910000221002204F0D0F82846002104F01AF841
:100920002846002104F0AEF828460121012203F0F8
:10093000F3FF20464FF48071012204F0BDF82046F9
:100940000221002204F0B8F82046002104F002F849
:100950002046002104F096F820460121002203F0F1
:10096000DBFF284601214FF4602204F02DF82846D1
:100970000121012204F008F8204601214FF46022F1
:1009800004F022F820460121012203F0FDFF284651
:1009900000210022022304F03BF8284603F0EAFF7E
:1009A000284603F0A9FF204603F0E4FF204603F0A9
:1009B000A3FF284603F0D8FF45F20000CFF6FF70F2
:1009C0002958002241F0010129500020002104F0A3
:1009D000A7FA002004F0E6FA08B0B0BD10B588B060
:1009E00000208DF81E0040F21000C2F200000390BB
:1009F0004FF40060049042F24C40C4F201000190B8
:100A00004FF48070ADF81C004FF40070029001208C
:100A1000002405904FF44050C4F20204069001AA4D
:100A20002046002104F05AFB2046002104F034FB4C
:100A30002046002104F00CFB4FF4C02003F0DCFF43
:100A400042F20044C4F2010420464FF480710122B6
:100A500004F032F820460221002204F02DF820464E
:100A6000002103F077FF2046002104F00BF8204618
:100A70000121012203F050FF204601214FF46022A2
:100A800003F0A2FF20460121012203F07DFF204652
:100A900000210022022303F0BBFF204603F06AFF7F
:100AA000204603F029FF204603F05EFF45F20000D8
:100AB000CFF6FF702158002241F001112150002093
:100AC000002104F02DFA002004F06CFA012000212E
:100AD000002204F025FA012004F064FA08B010BDE9
:100AE00070B541F20005C4F2010528460421042234
:100AF0004FF4804304F042FC2846042104221023D2
:100B000004F03CFCA5F58064204604210422042363
:100B100004F034FC284604210422402304F02EFC77
:100B20002846042104224FF4007304F027FC2846D1
:100B3000042104224FF4806304F020FC28460421A1
:100B400004224FF4006304F019FC28460421042217
:100B50004FF4805304F012FC2846042104224FF481
:100B6000005304F00BFC2846042104224FF40043F8
:100B700004F004FCA5F5006630460421042240235D
:100B800004F0FCFB284604210422202304F0F6FB99
:100B90002046042104224FF4805304F0EFFB30463A
:100BA000042104224FF4007304F0E8FB30460421D2
:100BB00004224FF4807304F0E1FB28460421042250
:100BC0004FF4807304F0DAFB2846042104228023CA
:100BD00004F0D4FB2046042104224FF4807304F077
:100BE000CDFB284604210422012304F0C7FB28463C
:100BF00004210422022304F0C1FB2846042104221C
:100C0000042304F0BBFB284604210422082304F03B
:100C1000B5FB304604210422012304F0AFFB30462B
:100C200004210422022304F0A9FB304604210422FB
:100C3000042304F0A3FB304604210422082304F01B
:100C40009DFB304604210422102304F097FB30461C
:100C500004210422202304F091FB204604210422D5
:100C60004FF4806304F08AFB2046042104224FF4F1
:100C7000006304F083FB3046042104224FF48053C8
:100C800004F07CFB3046042104224FF40063BDE8ED
:100C9000704004F073BB0000B0B588B0044646F263
:100CA000004540F21970C4F2000504F061FF2846C7
:100CB00003F030FF4FF40130CDF815000020CDF8DF
:100CC000190021798DF81D008DF8141005A928460A
:100CD00003F0CAFF2068FA2818BFB0F57A7F17D151
:100CE0004FF47A714143284603F096FF0020CDF877
:100CF0000A00CDE9000060790121ADF80E10ADF8D1
:100D0000080068468DF8101003F018FF08B0B0BD59
:100D1000B0F5FA7FE4D04EF64801C0F20101E2E7F7
:100D200010B54FF4C06004F023FF40F2026004F0FD
:100D30001FFF40F60004C4F20104204648210322AC
:100D40004FF4006304F01AFB2046182103224FF4ED
:100D50008053BDE8104004F011BB000080B541F2A3
:100D60000040C4F2010028210422042304F006FB01
:100D70000320022104F0C0FA04200021002204F024
:100D80004BFA08200021012204F0E2FD0420BDE816
:100D9000804004F08FBA000070B541F20005C4F243
:100DA00001052846042104224FF4804304F0E6FAAA
:100DB000284604210422102304F0E0FAA5F58064FB
:100DC000204604210422042304F0D8FA28460421F2
:100DD0000422402304F0D2FA2846042104224FF4CE
:100DE000007304F0CBFA2846042104224FF48063F8
:100DF00004F0C4FA2846042104224FF4006304F0EE
:100E0000BDFA2846042104224FF4805304F0B6FAB8
:100E10002846042104224FF4005304F0AFFA284678
:100E2000042104224FF4004304F0A8FAA5F500665B
:100E3000304604210422402304F0A0FA284604216D
:100E40000422202304F09AFA2046042104224FF4BD
:100E5000805304F093FA3046042104224FF40073C7
:100E600004F08CFA3046042104224FF4807304F01D
:100E700085FA2846042104224FF4807304F07EFA98
:100E8000284610210422802304F078FA20461021FD
:100E900004224FF4807304F071FA284610210422D2
:100EA000012304F06BFA284610210422022304F0E7
:100EB00065FA284610210422042304F05FFA28462C
:100EC00010210422082304F059FA3046102104228C
:100ED000012304F053FA304610210422022304F0C7
:100EE0004DFA304610210422042304F047FA30461C
:100EF00010210422082304F041FA30461021042274
:100F0000102304F03BFA304610210422202304F081
:100F100035FA2046102104224FF4806304F02EFAA3
:100F20002046102104224FF4006304F027FA3046D3
:100F3000102104224FF4805304F020FA304610218F
:100F400004224FF4006304F019FA40F20020C0F2CA
:100F500030000121BDE8704004F070BA70B541F274
:100F60000005C4F201052846102104224FF48043F5
:100F700004F004FA284610210422102304F0FEF99C
:100F8000A5F58064204610210422042304F0F6F91C
:100F9000284610210422402304F0F0F928461021AD
:100FA00004224FF4007304F0E9F9284610210422CA
:100FB0004FF4806304F0E2F92846102104224FF434
:100FC000006304F0DBF92846102104224FF480531B
:100FD00004F0D4F92846102104224FF4005304F001
:100FE000CDF92846102104224FF4004304F0C6F93D
:100FF000A5F50066304610210422402304F0BEF916
:10100000284610210422202304F0B8F9204610219C
:1010100004224FF4805304F0B1F930461021042229
:101020004FF4007304F0AAF93046102104224FF463
:10103000807304F0A3F92846102104224FF4807332
:1010400004F09CF9284604210422802304F096F938
:101050002046042104224FF4807304F08FF92846BF
:1010600004210422012304F089F9284604210422E2
:10107000022304F083F9284604210422042304F007
:101080007DF9284604210422082304F077F930462C
:1010900004210422012304F071F9304604210422C2
:1010A000022304F06BF9304604210422042304F0E7
:1010B00065F9304604210422082304F05FF9304624
:1010C00004210422102304F059F93046042104229B
:1010D000202304F053F92046042104224FF48063B6
:1010E00004F04CF92046042104224FF4006304F07C
:1010F00045F93046042104224FF4805304F03EF9B0
:101100003046042104224FF4006304F037F940F222
:101110000020C0F230000121BDE8704004F08EB91B
:1011200070B540F2026004F023FD40F2036004F069
:101130001FFD40F2046004F01BFD40F2096004F062
:1011400017FD40F20A6004F013FD012004F04AFC90
:101150004FF4A06004F00CFD40F21D7004F008FD97
:101160004FF4C06004F004FD41F20004C4F2010435
:101170002046102104224FF4804304F0FFF820465B
:1011800010210422102304F0F9F8A4F580663046FB
:1011900010210422042304F0F1F820461021042237
:1011A000402304F0EBF82046102104224FF4007392
:1011B00004F0E4F82046102104224FF4806304F088
:1011C000DDF82046102104224FF4006304F0D6F825
:1011D0002046102104224FF4805304F0CFF820461B
:1011E000042104224FF4005304F0C8F820460421DF
:1011F00004224FF4004304F0C1F8A4F5006528462A
:1012000004210422402304F0B9F8204604210422DA
:10121000202304F0B3F83046042104224FF4805315
:1012200004F0ACF83046102104224FF4007304F0AF
:10123000A5F82846182104224FF4007304F09EF804
:101240002846182104224FF4807304F097F82046B2
:10125000182104224FF4807304F090F820461821DE
:101260000422802304F08AF83046182104224FF427
:10127000807304F083F8204600210422012304F047
:101280007DF8204600210422022304F077F820464E
:1012900000210422042304F071F8204600210422D6
:1012A000082304F06BF8284600210422012304F0EF
:1012B00065F8284600210422022304F05FF828463E
:1012C00000210422042304F059F8284600210422B6
:1012D000082304F053F8284600210422102304F0C8
:1012E0004DF82846002104222023BDE8704004F078
:1012F00045B8000070B544F60004C4F2000404F5DB
:10130000DC36054630460121022203F0D7FE304686
:10131000012103F08BFE304601212A4603F05EFFD7
:101320002046802105F088F83046012103F090FE28
:101330002046062105F098F838B900BF204606215E
:1013400000BF05F091F80028F8D02046062105F0EE
:101350007FF820460021BDE8704005F06DB8000020
:101360002DE9F04F87B005464FF4A06004F000FC73
:1013700040F2127004F0FCFB40F2065004F0F8FB5F
:1013800044F600046869C4F20004002704F5DC3662
:10139000E8468DF81A70CDE9020704F104094FF40C
:1013A000807A4FF4805B304602214246CDF80090AF
:1013B000ADF818A001970497CDF814B003F08EFE95
:1013C0003046022103F068FE3046022103F040FE61
:1013D000296901208DF81A00CDE902173046012154
:1013E0004246CDF80090ADF818A00197CDE9047BF6
:1013F00003F074FE3046012103F03CFE304601212B
:1014000003F026FE204604F0D3FF2968204604F0AE
:1014100091FF6968204605F047F8E968204605F025
:1014200073F8A968204605F061F82046002104F011
:10143000B7FF2046002105F025F82046002105F0E1
:101440001BF8204605F03EF82046322105F042F810
:101450002046402104F0EAFF2046802104F0ECFF02
:101460002046082105F04AF82046042105F024F81A
:10147000204604F0E7FF07B0BDE8F08FB0B544F6B2
:1014800000050446C4F20005284642F2102104F08B
:10149000EBFF0028F8D12046BDE8B040FFF72ABF97
:1014A00010B54FF4C06004F063FB40F2036004F039
:1014B0005FFB40F60044C4F20104204618210322D9
:1014C0004FF4806303F05AFF2046042103224FF4B7
:1014D0000063BDE8104003F051BF00002DE9F04F5C
:1014E0008FB0054640F2015004F042FB40F20F700D
:1014F00004F03EFB43F60048A868C4F2000800244C
:1015000008F5E4360DF120098DF83A40CDE90A04DA
:1015100008F10C074FF4807A4FF4405B304600210D
:101520004A460897ADF838A009940C94CDF834B029
:1015300003F0D4FD3046002103F0AEFD304600211B
:1015400003F086FD696801208DF83A00CDE90A14A0
:10155000304601214A460897ADF838A00994CDE9F4
:101560000C4B03F0BBFD404604F050FB01AF384686
:1015700004F09CFB28680C352ECDCDE9011403A99D
:1015800031C140463946CDE9063204F069FB404698
:1015900004F086FB404604F07DFB30460121022228
:1015A00003F0D6FD39200121002204F0D1F9404694
:1015B00004F024FB0FB0BDE8F08F0000B0B540F29E
:1015C0000045C4F2020504462846002103F02EFD22
:1015D00028460021224603F001FEA5F5E430012152
:1015E00004F002FB28460021BDE8B04003F030BD06
:1015F000B0B540F20045C4F2020504462846012178
:1016000003F014FD28460121224603F0E7FDA5F56D
:10161000E430002104F0E8FA28460121BDE8B0409A
:1016200003F016BDB0B540F20044C4F20204054612
:101630002046012103F0FAFC204601212A4603F04E
:10164000CDFDA4F5E4352846002104F0CDFA20466E
:10165000012103F0FDFC00BF20460121022203F01E
:1016600035FD0028F8D020460121022203F026FD96
:1016700028460021BDE8B04004F0AABA0220FFF7D6
:101680009DBF0000B0B543F600450446C4F2000516
:101690002846022104F0DEFA0028F9D02046BDE8F1
:1016A000B040FFF7BFBF000010B54FF4C06004F0BA
:1016B0005FFA40F2036004F05BFA40F2026004F06B
:1016C00057FA40F60044C4F20104204618210322D0
:1016D000102303F053FE204604210322202303F0AD
:1016E0004DFE204604210322082303F047FEA4F503
:1016F0008060042103224FF4004303F03FFE40F2D8
:101700000020C0F230000121BDE8104003F096BE79
:10171000F0B58BB00646450840F20B6004F028FA9D
:1017200042F60044C4F20104204604F0D5FC002730
:10173000FF200996ADF81C70ADF82870CDF81E702A
:101740008DF82A0007A9204604F070FD0120C0F2A0
:10175000040004AE0697CDE9040720460021324676
:1017600004F050FB204601213246012604F04AFBDA
:1017700020460021002204F087FC204600210022A0
:1017800004F022FB20460121002204F07DFC2046CB
:101790000121002204F018FB204600212A4604F013
:1017A0004FFC20460021602204F02CFC2046002142
:1017B000002204F04BFC204601212A4604F040FCA4
:1017C00020460121702204F01DFC20460121002248
:1017D00004F03CFC4FF48040CDE90076029069466D
:1017E0002046ADF80C7004F0DBFA1920022100222B
:1017F00004F0AEF82046012104F07CFD204604F000
:101800000FFD0BB0F0BD000010B584B004464FF4DE
:10181000E06004F0ADF94FF0804004F05DFC002082
:101820000294ADF80000ADF80C00CDF802008DF880
:101830000E0069464FF0804004F0F8FC1C200121A6
:10184000002204F085F84FF08040012104F052FDA1
:101850004FF08040012104F063FD4FF0804004F020
:1018600099FA4FF0804004F0DBFC04B010BD00009A
:1018700070B588B00646450840F2027004F078F969
:1018800040F60004C4F20004204604F025FC06964D
:101890000026FF20ADF81060ADF81C60CDF8126096
:1018A0008DF81E0004A9204604F0C0FC0120C0F2FF
:1018B00004000396CDE9010601AA2046022104F0A6
:1018C000A1FA20460221002204F0DEFB204602217C
:1018D000002204F079FA204602212A4604F0B0FBE7
:1018E00020460221602204F08DFB204602210122C5
:1018F00004F0CAFB20460221002204F0A7FB1E20B0
:101900000221002204F024F82046012104F0F2FC18
:10191000204604F085FC08B070BD0000B0B584B06E
:10192000054640F2037004F023F940F60044C4F287
:101930000004204604F0D0FB00200295ADF8000022
:10194000ADF80C00CDF80200FF208DF80E006946BE
:10195000204604F06BFC2046012104F0CBFC322031
:1019600002F0A6FF204604F05BFC04B0B0BD00000E
:101970002DE9F0418CB00646450840F20D6004F0B8
:10198000F7F843F20044C4F20104204604F0A4FB3B
:101990000027FF200A96ADF82070ADF82C70CDF826
:1019A00022708DF82E0008A9204604F03FFC01208B
:1019B000C0F2040005AE0797CDE9050720460121D6
:1019C00032464FF0010804F01DFA2046022132464B
:1019D00004F018FA20460121002204F055FB2046AD
:1019E0000121002204F0F0F920460221002204F037
:1019F0004BFB20460221002204F0E6F9204601219B
:101A00002A4604F01DFB20460121602204F0FAFA68
:101A100020460121002204F019FB204602212A461B
:101A200004F00EFB20460221702204F0EBFA20465F
:101A30000221002204F00AFB4FF48040CDE9017836
:101A4000039001A92046ADF8107004F0A9F91920FF
:101A50000221002203F07CFF2046012104F04AFC11
:101A6000204604F0DDFB0CB0BDE8F081B0B50025E8
:101A7000C4F2020504462846042103F0D7FA28469A
:101A80000421224603F0AAFBA5F54840402104F0BA
:101A9000CDFC28460421BDE8B04003F0D9BA0000CF
:101AA00070B543F60004C4F2010404F54846054647
:101AB00030460321022203F001FB3046032103F0EC
:101AC000B5FA304603212A4603F088FB20468021E0
:101AD00004F0B2FC3046032103F0BAFA2046062196
:101AE00004F0C2FC38B900BF2046062100BF04F054
:101AF000BBFC0028F8D02046062104F0A9FC2046B3
:101B00000021BDE8704004F097BC00002DE9F047CB
:101B100088B005464FF4A06004F02AF840F20E6049
:101B200004F026F840F2065004F022F8686943F603
:101B300000040027C4F201048DF81E70CDE90307EC
:101B400004F104094FF4807A3220CDF80490ADF806
:101B50001CA0029705904FF4405004F548460DF143
:101B60000408069030460421424603F0B7FA304696
:101B7000042103F091FA3046042103F069FA0120B0
:101B800029698DF81E004FF40050CDE90317CDF8F8
:101B90000490ADF81CA002970597069030460321EB
:101BA000424603F09BFA3046032103F063FA3046C5
:101BB000032103F04DFA204604F0FAFB2968204681
:101BC00004F0B8FB6968204604F06EFCE968204622
:101BD00004F09AFCA968204604F088FC2046002105
:101BE00004F0DEFB2046002104F04CFC20460021DE
:101BF00004F042FC204604F065FC2046FF2104F07E
:101C000069FC2046402104F011FC2046802104F0AC
:101C100013FC204640F2053104F03AFC2520012156
:101C2000002203F095FE2046082104F067FC2046C0
:101C3000042104F041FC204604F004FC08B0BDE897
:101C4000F0870000B0B543F600050446C4F2010574
:101C5000284642F2102104F007FC0028F8D1204663
:101C6000BDE8B040FFF71CBF10B54FF4C06003F0F3
:101C70007FFF40F2036003F07BFF0420C4F2010009
:101C8000016840F6004441F00401C4F2010401601F
:101C9000204618210322402303F070FB2046042134
:101CA00003228023BDE8104003F068BB0000000061
:101CB0002DE9F04F81B02DED048B40F2181BC2F2DC
:101CC000000B9BF89700002800F0998700208BF804
:101CD00097001C2002F0ECFD41F2545ADBE9085059
:101CE000C2F2000ADBE90A12DBE900E8DBE9029351
:101CF000DBE90476CAE90850BBF83000DBE9064CA2
:101D0000CAE90A1246F23D51CAE900E8CAE902935B
:101D1000CAE90476AAF83000C0F600015046CAF8B5
:101D20001840CAF81CC0FEF761FA41F2A458C2F28A
:101D300000080FF2407103220646C8F80000FEF7C3
:101D400047FA00285CD09AF80070102F58D00FF690
:101D5000D07130460322FEF73BFA112F18BF00283E
:101D600040F09E8046F23D51C0F600010020FEF793
:101D70003DFAC8F800000646008844F64F69484519
:101D800000F040819AF80170052F00F03B8146F287
:101D90005251C0F6000130460322FEF719FA0A2F0D
:101DA00018BF002840F0FA8143F20045C4F2010553
:101DB00028460121002204F067F92846002100226C
:101DC00004F002F828460221002204F05DF92846BA
:101DD0000221002203F0F8FFD8F8000046F2525129
:101DE000C0F600010322FEF7F3F9002800F0E385B6
:101DF000AC208BF832000120FFF724FF02F0F9B984
:101E000046F23D51C0F600010020FEF7EFF9C8F898
:101E100000000646008844F64F64A04200F0CA80E5
:101E20009AF80170052F00F0C58046F25251C0F6B5
:101E3000000130460322FEF7CBF90A2F18BF002815
:101E400040F00C8141F20000C4F2010000F5E055C1
:101E500028460021002204F017F92846002100221C
:101E600003F0B2FF28460121002204F00DF92846B4
:101E70000121002203F0A8FFD8F8000046F25251D9
:101E8000C0F600010322FEF7A3F9002800F0BB8290
:101E9000AC208BF832000120FFF7D4FE02F0A9B984
:101EA0000FF6806130460322FEF792F9AD2F18BF7E
:101EB000002840F0208141F20006C4F201063046BD
:101EC000102104224FF4804303F058FA46F23D51AA
:101ED000C0F600010020FEF789F9C8F800000746A7
:101EE000006844F25259C4F24149484500F0A181CA
:101EF0009AF80140FD2C00F09C810FF62C613846C9
:101F00000722FEF765F95A2C18BF002840F0B4826A
:101F1000002800F07986FFF7C7FB9AF802009AF8CC
:101F2000031041F2A85841EA002041F24655C2F29E
:101F30000008C2F2000500210028A8F8000029804E
:101F400002F0578140F2100640F2FD07C2F200068F
:101F5000C2F200074FF40454FEF758FB3088B188F2
:101F600000BA000CA7F8070008BA3189000CA7F8DE
:101F7000090008BAB189000CA7F80B0008BA318A29
:101F8000000CA7F80D0008BA7169000CA7F80F0043
:101F9000080A78740E20B974A7F81340FFF772FB93
:101FA0002888B8F80010013082B28A422880D3D342
:101FB00002F01FB941F20000C4F2010000F5E05543
:101FC00028460021012204F05FF82846002104225F
:101FD00003F0FAFE28460121012204F055F82846B4
:101FE0000121042203F0F0FED8F800000088A0428E
:101FF00000F0BD80AC208BF832000120FFF722FEFC
:1020000002F0F7B843F20045C4F201052846012169
:10201000012204F039F841F20000C4F2010000F599
:10202000E05630460121042203F0CEFE284602216C
:10203000012204F029F830460221042203F0C4FEF4
:10204000D8F800000088484500F0F281AC208BF8F9
:1020500032000120FFF7F6FD02F0CBB8306845F200
:102060004629C5F24519B0EB090018BF0120FC2F25
:1020700018BF002840F04481002800F072839AF8CD
:1020800002009AF8031041EA0020FEF7E7F99FEDFD
:10209000F40B02460B4651EC100BFEF770F99FED66
:1020A000F20B53EC102BFEF7C3F8FEF7F5F9FFF730
:1020B0002FFB41F20000C4F2010000F5E055284674
:1020C0000021012203F0E0FF28460021042203F052
:1020D0007BFE28460121012203F0D6FF284601217C
:1020E000042203F071FEAC208BF832000120FFF7D0
:1020F000A9FD02F07EB8306844F24419C3F24309E6
:10210000B0EB090018BF0120DC2F18BF002840F0F9
:102110004181FEF763FCFFF7B1FAD8F8000041F205
:10212000AB510068C2F20001012248450A7000F07C
:10213000688340F20400BAF80120C2F200000021D6
:10214000017010BA020C41F24E50C2F2000002803F
:102150000020002102F0E4FE002002F023FFFFF740
:10216000A3FAAC2001268BF8320000F03EBD45F208
:102170005240C0F60D20CBF8390045F25340C5F26D
:102180004120CBF8360045F25070C2F24D00CBF83A
:1021900032000B20FFF756FD02F02BB8306845F2F5
:1021A0004629C5F24519B0EB090018BF0120FC2FE4
:1021B00018BF002840F08681002800F05D859AF85D
:1021C00002009AF8031041EA0020FEF747F99FED5C
:1021D000A40B02460B4651EC100BFEF7D0F89FED16
:1021E000A20B53EC102BFEF723F8FEF755F9FFF77F
:1021F000BFFB43F20045C4F201052846012101223C
:1022000003F042FF28460121042203F0DDFD2846A9
:102210000221012203F038FF28460221042203F0A4
:10222000D3FDAC208BF832000120FFF70BFD01F04D
:10223000E0BF40F21000C2F2000041F288560024D4
:10224000051FC2F2000600BFFEF7E0F96FF00300C1
:10225000294600BF331851F8042F5F6804303A4410
:1022600014285A60F6D101340A2CEDD3D8F80000B6
:102270000068484500F0D78296E88E004CF6CD40C5
:10228000CCF6CC40A1FB0051A2FB0052A3FB0035D1
:10229000A7FB00373369A3FB00347369A3FB00037A
:1022A000C80A8BF83200C8088BF83300D00A8BF8C4
:1022B00035002020D1088BF834008BF83610E9085F
:1022C000EA0A8BF837008BF838208BF83910F908B8
:1022D000FA0A8BF83A008BF83B208BF83C10E108A7
:1022E000E20A8BF83D008BF83E208BF83F108BF80C
:1022F0004000D80800BA000C1125ABF841004EE3AD
:10230000308845F24449B0EB090018BF0120D12FB5
:1023100018BF002840F01F8141F20000C4F2010004
:1023200000F5E05630460021002203F0ADFE3046B5
:102330000021002203F048FD304601210022012740
:1023400003F0A2FE30460121002203F03DFDFEF71E
:1023500005FDD8F800000088484500F0EC8342F6FF
:102360002C40C4F20100816940F2FF329143816147
:102370009AF8021082691143816141F24850C2F219
:1023800000000770AC208BF832000120FFF75AFCE8
:1023900001F02FBF306844F24419C3F24319B0EB87
:1023A000090018BF0120DD2F18BF002840F013815D
:1023B000FEF714FBFFF762F9D8F8000041F2AB51C9
:1023C0000068C2F20001012648450E7000F0E78364
:1023D00040F20400BAF80110C2F20000067008BA18
:1023E000020C41F24E50C2F2000002800120002196
:1023F00002F096FD012002F0D5FDFFF755F9AC2063
:102400008BF83200F1E340F60D20ABF83A0045F2CC
:102410005340C5F24F00CBF8360045F25070C2F27F
:102420004D00CBF832000A20FFF70CFC01F0E1BEB2
:1024300040F65450C0F20A00CBF8390044F2541070
:10244000C5F25240CBF8360045F25320C5F2203099
:10245000CBF832000B20FFF7F5FB01F0CABE00BF3E
:1024600000000000004CFD40000000000000F0BF34
:102470000000C84250574D0046F25651C0F60001C8
:1024800038460822FDF7A4FE372C18BF002840F07C
:10249000A68241F24850C2F200000321017046F2C8
:1024A0005651C0F6000138460822FDF791FE00287B
:1024B00000F031859AF80250AC2001248BF83200EC
:1024C00000F03FBD308845F24449B0EB090018BF29
:1024D0000120D12F18BF002840F0A08243F200460F
:1024E000C4F20106304601210022012703F0CCFD91
:1024F00030460121002203F067FC30460221002211
:1025000003F0C2FD41F20000C4F2010000F5E0500A
:102510000221002203F058FCFEF720FCD8F800004E
:102520000088484500F04085706C40F2FF318843D8
:1025300070649AF80200716C0843706441F248506C
:10254000C2F200000770AC208BF832000120FFF7C8
:1025500079FB01F04EBE308844F24431401A18BF76
:102560000120DC2F18BF002841F04386002800F02E
:10257000868442F62C40C4F2010090ED000A1FED63
:10258000442AB8EE400A9AF8021001EE101AB8EE8A
:10259000411A81EE021A21EE000ABCEEC00A80ED5B
:1025A000020A90ED000AB8EE400A9AF8021001EE15
:1025B000101AB8EE411A81EE021A21EE000ABCEEA2
:1025C000C00A80ED030AAC208BF832000120FFF72F
:1025D00039FB01F00EBE306845F24701C4F649717F
:1025E000401A18BF01206F2F18BF002840F05A82F0
:1025F00046F23D51C0F600010020FDF7F7FDC8F896
:102600000000016844F25252C4F241420646881A60
:1026100018BF0120914200F09B839AF801507D2D54
:1026200000F0968346F25F51C0F600013046072263
:10263000FDF7CEFD7F2D18BF002840F0E584FEF7A2
:102640004FFAD8F8000046F25F51C0F600010722A9
:10265000FDF7BEFD41F20005C4F20105002800F0BF
:10266000D1870020CBF8320028464FF4804102F099
:10267000DFFE9BF83210002818BF012040EA41001D
:102680008BF832002846102102F0D2FE9BF832105F
:10269000002818BF012040EA4100A5F580678BF8AB
:1026A00032003846042102F0C3FE9BF832100028A5
:1026B00018BF012040EA41008BF832002846402133
:1026C00002F0B6FE9BF83210002818BF012040EA45
:1026D00041008BF8320028464FF4007102F0A8FE4A
:1026E0009BF83210002818BF012040EA41008BF807
:1026F000320028464FF4806102F09AFE9BF83210B7
:10270000002818BF012040EA41008BF8320028461B
:102710004FF4006102F08CFE9BF83210002818BFC5
:10272000012040EA41008BF8320028464FF48051E6
:1027300002F07EFE9BF83210002818BF012040EA0C
:1027400041008BF8320028464FF4005102F070FE31
:10275000002800F0C0879BF832004000013000F0F4
:10276000BDBF46F23D51C0F600010020FDF73EFD21
:10277000C8F8000001F092FEFDF781FE1FEDC80BC6
:1027800002460B4651EC100BFDF7F9FD1FEDCA0B8D
:1027900053EC102BFDF74CFDFDF77EFEFEF7B8FF66
:1027A00041F20000C4F2010000F5E0552846002186
:1027B000012203F069FC28460021042203F004FBF7
:1027C00028460121012203F05FFC28460121042252
:1027D00003F0FAFA40F60D20ABF83E0045F2414016
:1027E000C4F24540CBF83A0045F22050C4F25040C4
:1027F000CBF836000E20CBF83290FFF723FA01F029
:10280000F8BC46F23D51C0F600010020FDF7EEFC99
:10281000C8F8000001F042FE02460020002102F04C
:102820007FFB0020CCE130684CF6CD48CCF6CC489C
:10283000A0FB080144F25450C5F24D004BF8320F92
:1028400042F23A07ABF80470C1F3CF0258460621B2
:10285000FDF7DEFF40F60D290C20ABF80A900C25A1
:10286000FFF7F0F97068ABF80470A0FB080144F2C0
:102870005620C5F25530CBF80000C1F3CF025846C0
:102880000621FDF7C5FF0C20ABF80A90FFF7DAF937
:10289000B06844F24E1AA0FB080145F24250C2F65D
:1028A0005310C4F6281AABF80870CBF80400CBF824
:1028B00000A0C1F3CF0258460A21FDF7A9FF0A2064
:1028C000ABF80890FFF7BEF9F068ABF80470A0FB16
:1028D000080145F24900C4F65210CBF80000C1F3DC
:1028E000CF0258460621FDF793FF0C20ABF80A9063
:1028F000FFF7A8F93069ABF80470A0FB080144F2B7
:102900005620C5F24140CBF80000C1F3CF02584633
:102910000621FDF77DFF0C20ABF80A90FFF792F936
:102920007069ABF80470A0FB080144F24920C5F2BD
:102930004140CBF80000C1F3CF0258460621FDF715
:1029400067FF0C20ABF80A90FFF77CF97069ABF8D1
:102950000870A0FB080144F25350C2F64310CBF8B4
:102960000400CBF800A0C1F3CF0258460A21FDF7BE
:102970004FFF0C20ABF80A90FFF764F97069A0FBD9
:10298000080144F24E10C2F23A00CBF80000C1F345
:10299000CF0258460421FDF73BFFABF80A902846CA
:1029A000FFF750F90020C6E90000C6E90200C6E9B9
:1029B000040001F01EBC0A20ABF83A0044F6547043
:1029C000C0F65050CBF8360045F25320C5F2203007
:1029D000CBF832000A20FFF735F901F00ABC39685C
:1029E00045F25340C5F24F00091A18BF0121302C9F
:1029F00018BF002941F0FD833A6841F24851C2F204
:102A00000001002382420B7000F09B83AC208BF806
:102A100032000120FFF716F901F0EBBB308844F2D9
:102A20004431401A18BF0120DC2F18BF002841F0A4
:102A3000E083002800F0938342F62C40C4F20100AA
:102A400090ED000A9FEDBA2AB8EE400A9AF80210FB
:102A500001EE101AB8EE411A81EE021A43F200415B
:102A6000C4F2010121EE000ABCEEC00A81ED0D0A9C
:102A700090ED000AB8EE400A9AF8020001EE100A42
:102A8000B8EE411A81EE021AAC2021EE000ABCEE2B
:102A9000C00A81ED0E0A8BF832000120FFF7D2F850
:102AA00001F0A7BB306844F25511C5F25241401AFB
:102AB00018BF0120CA2F18BF002840F0A28146F29B
:102AC0003D51C0F600010020FDF790FBC8F8000062
:102AD000008844F65454A04204D09AF80000CA2852
:102AE00041F0878340F2D00043F2310143F251328A
:102AF00042F24F0344F24857C2F20000C0F60D21E3
:102B0000C3F23202C5F24D03C4F64C47C0E9057367
:102B1000C0E907211020FEF7B1FCD8F800000088BA
:102B2000A04200F07084AC208BF832000120FFF747
:102B300089F801F05EBB46F23D51C0F6000100206D
:102B4000FDF754FB42F62C44C8F80000C4F201041F
:102B5000A16940F2FF329143A16101F09FFCA1699C
:102B6000C0B20843A06141F24850C2F200000770B1
:102B700045F24440C5F22050CBF8320044F25040B8
:102B8000C5F24140CBF8360044F24540C0F60D2076
:102B9000CBF83A000C20FFF755F801F02ABB46F2BB
:102BA0003D51C0F600010020FDF720FBC8F80000F1
:102BB00001F074FC02460120002102F0B1F901206D
:102BC00002F0F0F940F60D20ABF83E0045F241402E
:102BD000C4F24540CBF83A0045F22050C4F25040D0
:102BE000CBF83600CBF832900D263046FFF72AF8A6
:102BF00040F21810C2F200003221FDF7DEFABDECFF
:102C0000048B01B0BDE8F08F46F23D51C0F60001E3
:102C100000200024FDF7EAFAC8F8000001F03EFCAD
:102C200041F2A85841F24256C2F20008C2F2000630
:102C30000028A8F80000348001F0DB8240F2100781
:102C4000C2F200070BF1320540F60D24FDF7DEFC61
:102C50003A8828460021FDF7DBFD0620ABF8364018
:102C6000FEF7F0FF3088B8F80010013082B28A42D7
:102C70003080EBD301F0BDBA46F23D51C0F6000101
:102C80000020FDF7B3FAC8F8000001F007FCFDF7DB
:102C9000F6FB9FED290B02460B4651EC100BFDF79E
:102CA0006EFB9FED270B53EC102BFDF7C1FAFDF7E0
:102CB000F3FBFEF72DFD43F20045C4F20105284663
:102CC0000121012203F0E0F941F20000C4F2010009
:102CD00000F5E05630460121042203F075F828463D
:102CE0000221012203F0D0F930460221042203F030
:102CF0006BF840F60D20ABF83E0045F24140C4F2BF
:102D00004540CBF83A0045F22050C4F25040CBF891
:102D100036000E20CBF83290FEF794FF01F069BA2E
:102D2000535200004144430053414D504C45530021
:102D30000000C84200BF00BF00000000004CFD4082
:102D4000000000000000F0BF43414E0046414E002D
:102D5000002800F0D38141F200050020C4F20105F3
:102D60008BF8320028464FF4005102F061FB013825
:102D7000B0FA80F09BF83210400940EA41008BF82D
:102D8000320028464FF4004102F052FB9BF832100B
:102D9000002818BF012040EA41008BF83200A5F559
:102DA0000060402102F044FB0138B0FA80F09BF84B
:102DB0003210400940EA41008BF8320028462021B9
:102DC00002F036FB0138B0FA80F09BF8321040096F
:102DD00040EA41008BF83200A5F580604FF4805145
:102DE00002F026FB0138B0FA80F09BF8321040095F
:102DF00040EA41008BF832000120FEF723FF01F08A
:102E0000F8B9AFF2BC0130460322FDF7E1F9C52F56
:102E100018BF002840F0218146F23D51C0F6000164
:102E20000020FDF7E3F9C8F80000008844F6545488
:102E3000A04204D09AF80000C52841F0DA8140F29F
:102E40002800C2F200005521A0F8A010032180F84C
:102E5000A41045F24D01A0F80B1053214173FDF76A
:102E600015FCD8F800000088A04200F06185AC2075
:102E70008BF832000120FEF7E5FE01F0BAB946F208
:102E80003D51C0F600010020FDF7B0F942F62C4498
:102E9000C8F80000C4F2010494ED000A0546B8EE3B
:102EA000408A01F0FBFA00EE100A1FED5F9AB8EEBF
:102EB000400A80EE090A284620EE080ABCEEC00A45
:102EC00084ED020A94ED000AB8EE408A01F0E6FAB9
:102ED00000EE100AB8EE400A80EE090A44F24430CF
:102EE000C5F2205020EE080ABCEEC00A84ED030AA9
:102EF000CBF8320044F25040C5F24140CBF83600E6
:102F000044F24540C0F60D20CBF83A000C20FEF705
:102F100099FE01F06EB946F23D51C0F60001002065
:102F2000FDF764F9C8F8000001F0B8FA46F2AC51B8
:102F300005460BF13200C0F6000112221224FDF703
:102F400023F92046FEF77EFEFEF7AEFBFDF706FFF7
:102F50004FF0FF3050FA85F0072800F27C81DFE85F
:102F600010F008009501B001CB01E60101021C023E
:102F7000370240F2B010C2F20000012106F5A05461
:102F8000017020460121012201F0C6FC06F5C05067
:102F90000121002201F0C0FC204600210A2200236A
:102FA00001F036FD01F025B946F23D51C0F60001B1
:102FB0000020FDF71BF9C8F80000716C40F2FF32E9
:102FC0009143716401F06AFA716CC0B20843706495
:102FD00041F24850C2F20000077045F24440C5F289
:102FE0002050CBF8320044F25040C5F24140CBF8BB
:102FF000360044F24540C0F60D20CBF83A000C20D4
:10300000FEF720FE01F0F5B846F26751C0F6000168
:1030100030460622FDF7DCF8A42D18BF002840F04A
:10302000EE80FEF77DF841F24B51C2F20001002222
:10303000D8F800000A7046F26751C0F60001062277
:10304000FDF7C6F8002800F07F84AC208BF8320032
:103050000120FEF7F7FD01F0CCB8AFF21031304699
:103060000322FDF7B5F8FA2F18BF002841F0C18000
:1030700046F23D51C0F600010020FDF7B7F8C8F850
:1030800000000646008844F64F64A04200F0D98252
:103090009AF80170F02F00F0D48246F25251C0F637
:1030A000000130460322FDF793F80F2F18BF0028C8
:1030B00041F0AD8041F20004C4F20104A4F5806047
:1030C000102104224FF4807302F058F9A4F58430E3
:1030D00003F002F8D8F8000046F25251C0F60001A1
:1030E0000322FDF775F8002801F0DF80AC208BF893
:1030F00032000120FEF7A6FD01F07BB841F2000589
:10310000C4F2010528464FF4005102F091F901285C
:1031100040F084810A208BF83E0044F24970C0F6EA
:103120004850CBF83A0043F64520C4F62000CBF8CF
:10313000360045F25340C5F24140CBF832000D2035
:103140007FE146F298510BF13200C0F600011122E6
:10315000FDF71AF81120FEF775FD01F04AB846F2A6
:103160003D51C0F600010020FDF740F842F62C4426
:10317000C8F80000C4F2010494ED000A0546B8EE58
:10318000408A01F08BF900EE100A9FEDF09AB8EE3C
:10319000400A80EE090A43F20046C4F201062846BE
:1031A00020EE080ABCEEC00A86ED0D0A94ED000A76
:1031B000B8EE408A01F072F900EE100AB8EE400A4B
:1031C00080EE090A44F24430C5F2205020EE080A8D
:1031D000BCEEC00A86ED0E0ACBF8320044F2504035
:1031E000C5F24140CBF8360044F24540C0F60D2010
:1031F000CBF83A000C20FEF725FD00F0FABF46F2AE
:103200004251C0F6000130460722FCF7E1FF852D50
:1032100018BF002840F03382FDF7BEFD002001F00A
:10322000B1FE41F24B51C2F200010122D8F8000078
:103230000A7046F24251C0F600010722FCF7C8FFAF
:10324000002801F02880AC208BF832000220FEF725
:10325000F9FC00F0CEBF40F2B010C2F20000012134
:1032600006F5A054017020460121012201F054FB13
:1032700006F5C0500121002201F04EFB204600213E
:103280000A22002301F0C4FB00F0B3BF40F2B010EB
:10329000C2F20000012106F5A05401702046012170
:1032A000012201F039FB06F5C0500121002201F096
:1032B00033FB204600210B22002301F0A9FB00F084
:1032C00098BF40F2B010C2F20000012106F5A054F0
:1032D000017020460121012201F01EFB06F5C050BD
:1032E0000121002201F018FB204600210C220023BE
:1032F00001F08EFB00F07DBF40F2B010C2F2000082
:103300000121017006F5A0500121012201F004FB0A
:1033100006F5C05420460121002201F0FDFA2046A6
:1033200000210D22002301F073FB00F062BF40F288
:10333000B010C2F200000021017006F5A05001217A
:10334000002201F0E9FA06F5C054204601210122CD
:1033500001F0E2FA204600210022002301F058FB90
:1033600000F047BF40F2B010C2F20000002101702F
:1033700006F5A0500121002201F0CEFA06F5C05456
:1033800020460121012201F0C7FA20460021012236
:10339000002301F03DFB00F02CBF40F2B010C2F260
:1033A00000000021017006F5A0500121002201F06B
:1033B000B3FA06F5C05420460121012201F0ACFA0F
:1033C000204600210222002301F022FB00F011BF61
:1033D00040F2B010C2F200000021017006F5A050CA
:1033E0000121002201F098FA06F5C054204601217F
:1033F000012201F091FA204600210322002301F06E
:1034000007FB00F0F6BE0BF1320051A11522FCF7CC
:10341000BBFE1520FEF716FC00F0EBBE45F24F7028
:10342000C0F60D20CBF83A0043F64520C4F6204004
:10343000CBF8360045F25340C5F24140CBF832009C
:103440000C20FEF7FFFB28464FF4004101F0F0FF8F
:10345000012817D140F60D20ABF83E0044F6481085
:10346000C4F64700CBF83A0044F24C50C2F23A009E
:10347000CBF8360044F64560C4F24120CBF8320068
:103480000E2015E00A208BF83E0044F64C70C0F682
:103490005750CBF83A0044F24C50C2F23A00CBF805
:1034A000360044F64560C4F24120CBF832000D20CE
:1034B000FEF7C8FBA5F50060402101F0B9FF012827
:1034C0000AD146F284510BF13200C0F600011122FC
:1034D0001126FCF759FE18E045F24F70C0F60D209A
:1034E000CBF83E0043F62920C4F62040CBF83A0042
:1034F00045F24330C4F24530CBF8360044F24E304A
:10350000C4F628701026CBF832003046FEF79AFB3E
:103510002846202101F08CFF012825D10A208BF8B4
:103520003E0044F24970C0F64850CBF83A0043F6EA
:103530004B20C4F62000CBF8360044F25740C4F6C6
:103540005F70CBF832000D2021E000BF0000C842C0
:1035500055415254322054455354204D5347207303
:10356000656E640D0A00000045F24F70C0F60D2034
:10357000CBF83A0043F64B20C4F62040CBF8360097
:1035800044F25740C4F65F70CBF832000C20FEF7CF
:1035900059FBA5F580604FF4805101F049FF0128E7
:1035A00019D10A208BF83E0044F24970C0F6485009
:1035B000CBF83A0043F64920C4F62000CBF8360099
:1035C00044F24F30C5F25020CBF832000D20FEF708
:1035D00039FB00F00EBE45F24F70C0F60D20CBF85F
:1035E0003A0043F64920C4F62040CBF8360044F2B6
:1035F0004F30C5F25020CBF832000C20FEF722FBF2
:1036000000F0F7BD28464FF4804101F011FF00287B
:1036100044F2497844F64140C0F64858C5F241208A
:1036200000F09E810A218BF83E1043F64D21C4F62E
:103630002001CBF83A80CBF83610CBF832000D20C1
:103640009DE141F20000C4F20100A0F58060182164
:1036500004224FF4807301F091FE40F20770FEF7F0
:1036600007F9D8F800000088A04200F00486AC20DA
:103670008BF832000120FEF7E5FA00F0BABD46F201
:103680004A51C0F6000130460722FCF7A1FD582D33
:1036900018BF002840F0AD85FDF760FC002001F068
:1036A00071FC41F24B51C2F200010222D8F8000035
:1036B0000A7046F24A51C0F600010722FCF788FD65
:1036C000002800F00586AC208BF832000220FEF7BF
:1036D000B9FA00F08EBD9BF8330040008BF8330040
:1036E00028464FF4004101F0A3FE20B19BF83200C0
:1036F0004000013002E09BF833004000A5F5006671
:103700008BF833003046402101F092FE20B19BF847
:1037100032004000013002E09BF8330040008BF89B
:1037200033002846202101F083FE20B19BF83200AF
:103730004000013002E09BF8330040008BF833007A
:1037400038464FF4805101F073FE20B19BF83200EF
:103750004000013002E09BF8330040008BF833005A
:1037600030464FF4007101F063FE20B19BF8320047
:103770004000013002E09BF8330040008BF833003A
:1037800030464FF4807101F053FE20B19BF83200B7
:103790004000013002E09BF8330040008BF833001A
:1037A00028464FF4807101F043FE20B19BF83200AF
:1037B0004000013002E09BF8330040008BF83300FA
:1037C0002846802101F034FE20B19BF832004000F1
:1037D000013002E09BF8340040008BF8340038469A
:1037E0004FF4807101F024FE20B19BF832004000BC
:1037F000013002E09BF8340040008BF8340028468A
:10380000012101F015FE20B19BF83200400001308B
:1038100002E09BF8340040008BF834002846022177
:1038200001F006FE20B19BF832004000013002E0BA
:103830009BF8340040008BF834002846042101F046
:10384000F7FD20B19BF832004000013002E09BF808
:10385000340040008BF834002846082101F0E8FDD0
:1038600020B19BF832004000013002E09BF83400A8
:1038700040008BF834003046012101F0D9FD20B121
:103880009BF832004000013002E09BF83400400019
:103890008BF834003046022101F0CAFD20B19BF8BC
:1038A00032004000013002E09BF8340040008BF809
:1038B00034003046042101F0BBFD20B19BF83200FA
:1038C0004000013002E09BF8350040008BF83500E5
:1038D0003046082101F0ACFD20B19BF832004000D9
:1038E000013002E09BF8350040008BF8350030468F
:1038F000102101F09DFD20B19BF832004000013005
:1039000002E09BF8350040008BF83500304620215E
:1039100001F08EFD20B19BF832004000013002E042
:103920009BF8350040008BF83500042000F057BCB0
:103930000BF132000FF634211322FCF725FC132083
:10394000FEF780F900F055BC0BF132000FF668214C
:103950001F22FCF719FC1F20FEF774F900F049BC88
:1039600045F24F71C0F60D21CBF83A1043F64D21C8
:10397000C4F62041CBF832000C20CBF83610FEF70D
:1039800061F92846102101F053FD44F6481444F231
:103990005741C4F64704C2F23A0128B10D208BF812
:1039A0003A00CBF8364006E044F64C70C0F657506B
:1039B000CBF836000C20CBF83210FEF743F9A5F512
:1039C00080673846042101F033FD002844F647099A
:1039D00042F23A0A45F6547145F25530C0F60D29C7
:1039E000C4F6481AC4F24451C5F2412009D0CBF8BC
:1039F0003E90CBF83AA0CBF83610CBF832000D2031
:103A000010E045F24F72C0F60D22CBF83D2042F295
:103A10003A02C4F64C72CBF832000C20CBF83A20B4
:103A2000CBF83610FEF70EF92846402101F000FDD4
:103A3000002845F25320C4F25F500ED00A218BF8C3
:103A40003E1043F64E21C4F62001CBF83A80CBF865
:103A50003610CBF832000D200EE045F24F71C0F663
:103A60000D21CBF83A1043F64E21C4F62041CBF895
:103A700032000C20CBF83610FEF7E4F828464FF45D
:103A8000007101F0D5FC002844F6456145F2507004
:103A9000C2F23A01C5F64D700BD040F60D22ABF8DC
:103AA0003E20CBF83A40CBF83610CBF832000D2050
:103AB0000DE00A228BF83E2044F64C72C0F65752B5
:103AC000CBF832000C20CBF83A20CBF83610FEF7BA
:103AD000B9F828464FF4806101F0AAFC002844F2AE
:103AE0004C50C3F2441007D0CBF83A90CBF836A034
:103AF000CBF832000D200EE045F24F71C0F60D21DB
:103B0000CBF8391042F23A01C4F64C71CBF83200CE
:103B10000C20CBF83610FEF795F828464FF40061DC
:103B200001F086FC002844F24C50C3F2442007D038
:103B3000CBF83A90CBF836A0CBF832000D200EE04F
:103B400045F24F71C0F60D21CBF8391042F23A011F
:103B5000C4F64C71CBF832000C20CBF83610FEF7CF
:103B600071F828464FF4805101F062FC002844F2BD
:103B70004C50C3F2443007D0CBF83A90CBF836A083
:103B8000CBF832000D200EE045F24F71C0F60D214A
:103B9000CBF8391042F23A01C4F64C71CBF832003E
:103BA0000C20CBF83610FEF74DF828464FF40051A4
:103BB00001F03EFC002845F25340C5F241400ED0D2
:103BC0000A218BF83E1043F64521C4F62001CBF8BC
:103BD0003A80CBF83610CBF832000D200EE045F2DB
:103BE0004F71C0F60D21CBF83A1043F64521C4F6CB
:103BF0002041CBF832000C20CBF83610FEF722F82B
:103C000028464FF4004101F013FC002844F24C51C7
:103C100044F64560C2F23A01C4F241200BD040F6AE
:103C20000D22ABF83E20CBF83A40CBF83610CBF85B
:103C300032000D200DE00A228BF83E2044F64C7233
:103C4000C0F65752CBF832000C20CBF83A20CBF814
:103C50003610FDF7F7FFA5F500663046402101F06C
:103C6000E7FB50B146F284510BF13200C0F600017F
:103C70001122FCF789FA0D2018E045F24F70C0F6CA
:103C80000D20CBF83E0043F62920C4F62040CBF8A7
:103C90003A0045F24330C4F24530CBF8360044F2E6
:103CA0004E30C4F62870CBF832000C20FDF7CAFF66
:103CB0002846202101F0BCFB002844F25740C4F6FE
:103CC0005F700ED00A218BF83E1043F64B21C4F6EC
:103CD0002001CBF83A80CBF83610CBF832000D201B
:103CE0000EE045F24F71C0F60D21CBF83A1043F6C5
:103CF0004B21C4F62041CBF832000C20CBF8361013
:103D0000FDF7A0FF38464FF4805101F091FB44F2DB
:103D10004F31C5F2502178B10A208BF83E0043F6AE
:103D20004920C4F62000CBF83A80CBF836000C4688
:103D3000CBF832100D200FE045F24F70C0F60D2089
:103D4000CBF83A0043F64920C4F62040CBF83600C1
:103D50000C460C20CBF83210FDF774FF30464FF4C0
:103D6000007101F065FB002845F25070C4F64D402B
:103D700007D0CBF83A90CBF836A0CBF832000D2024
:103D80000EE045F24F71C0F60D21CBF8391042F22A
:103D90003A01C4F64C71CBF832000C20CBF8361047
:103DA000FDF750FF30464FF4807101F041FB0028D1
:103DB00045F25070C4F64D0007D0CBF83A90CBF8DE
:103DC00036A0CBF832000D200EE045F24F71C0F660
:103DD0000D21CBF8391042F23A01C4F64C71CBF800
:103DE00032000C20CBF83610FDF72CFF28464FF49C
:103DF000807101F01DFB002844F6200845F2532095
:103E0000C4F24978C3F6482007D0CBF83990CBF8F4
:103E10003680CBF832000D200CE040F60D21ABF8D7
:103E20003A1044F62041C5F24F71CBF832000C2015
:103E3000CBF83610FDF706FF2846802101F0F8FA8E
:103E4000002845F25320C3F64C2007D0CBF8399018
:103E5000CBF83680CBF832000D200CE040F60D2177
:103E6000ABF83A1044F62041C5F24F71CBF832005E
:103E70000C20CBF83610FDF7E5FE38464FF4807184
:103E800001F0D6FA002844F24610C3F64E2007D0BF
:103E9000CBF83990CBF83680CBF832000D200CE00F
:103EA00040F60D21ABF83A1044F62041C5F24F71AF
:103EB000CBF832000C20CBF83610FDF7C3FE2846B5
:103EC000012101F0B5FA58B144F25450C5F24D0049
:103ED000CBF83A90CBF836A0CBF832000D2012E0A8
:103EE00045F24F70C0F60D20CBF8390042F23A008F
:103EF000C4F64C70CBF8360044F25450C5F24D0075
:103F0000CBF832000C20FDF79DFE2846022101F07F
:103F10008FFA58B144F25620C5F25530CBF83A909A
:103F2000CBF836A0CBF832000D2012E045F24F70EE
:103F3000C0F60D20CBF8390042F23A00C4F64C70BE
:103F4000CBF8360044F25620C5F25530CBF832009B
:103F50000C20FDF777FE2846042101F069FA44F2AF
:103F60004E17C4F6281768B145F24250C2F65310F6
:103F7000CBF83E90CBF83AA0CBF83600CBF83270B5
:103F80000D2014E045F24F70C0F60D20CBF83D0037
:103F900042F23A00C4F64C70CBF83A0045F2425077
:103FA000C2F65310CBF836000C20CBF83270FDF778
:103FB00049FE2846082101F03BFA58B145F2490074
:103FC000C4F65210CBF83A90CBF836A0CBF83200BA
:103FD0000D2012E045F24F70C0F60D20CBF83900ED
:103FE00042F23A00C4F64C70CBF8360045F2490074
:103FF000C4F65210CBF832000C20FDF723FE3046F9
:10400000012101F015FA58B144F25620C5F24140A1
:10401000CBF83A90CBF836A0CBF832000D2012E066
:1040200045F24F70C0F60D20CBF8390042F23A004D
:10403000C4F64C70CBF8360044F25620C5F241402D
:10404000CBF832000C20FDF7FDFD3046022101F0D7
:10405000EFF958B144F24920C5F24140CBF83A900B
:10406000CBF836A0CBF832000D2012E045F24F70AD
:10407000C0F60D20CBF8390042F23A00C4F64C707D
:10408000CBF8360044F24920C5F24140CBF832006B
:104090000C20FDF7D7FD3046042101F0C9F968B1C5
:1040A00044F25350C2F64310CBF83E90CBF83AA0FE
:1040B000CBF83600CBF832700D2014E045F24F708B
:1040C000C0F60D20CBF83D0042F23A00C4F64C7029
:1040D000CBF83A0044F25350C2F64310CBF8360006
:1040E0000C20CBF83270FDF7ADFD3046082101F011
:1040F0009FF988B140F60D20ABF83A0044F648101D
:10410000C4F64700CBF8360044F24E10C2F23A0033
:10411000CBF832000D200FE00A208BF83A0044F66D
:104120004C70C0F65750CBF8360044F24E10C2F235
:104130003A00CBF832000C20FDF784FD3046102108
:1041400001F076F968B145F24940C3F64820CBF852
:104150003D90CBF83A80CBF83600CBF832400D20BA
:1041600012E040F60D20ABF83E0044F62040C5F2C8
:104170004F70CBF83A0045F24940C3F64820CBF8DF
:1041800036000C20CBF83240FDF75CFD3046202194
:1041900001F04EF950B146F270510BF13200C0F609
:1041A00000011122FBF7F0FF0D2018E045F24F70DF
:1041B000C0F60D20CBF83E0043F62920C4F620407F
:1041C000CBF83A0045F24330C4F24530CBF8360024
:1041D00044F24E10C4F62870CBF832000C20FDF7E4
:1041E00031FDFCF79DFFFDF73FFDFDF759F9FCF7A9
:1041F00097FD40F21810C2F200003221FBF7DDFFFC
:10420000BDEC048B01B0BDE8F04F00F065BB308819
:1042100044F24431401A18BF0120DC2F18BF002897
:10422000E7D141F200060028C4F201065AD0A6F5F3
:104230008230A0F5757090ED000A9FED4B2AB8EE24
:10424000400A9AF802004FF63C0101EE100AB8EE5F
:10425000411A81EE021ACFF6FE7121EE000ABCEE81
:10426000C00A10EE100A7050AC208BF8320001200A
:10427000FDF7E8FCBDE744F64F60C0F60D20CBF833
:10428000360044F24610C2F24E00CBF8320008204D
:10429000FDF7D8FCADE70BF1320040A11B22FBF784
:1042A00073FF1B20FDF7CEFCA3E70A208BF83A0032
:1042B00044F24F60C0F64650CBF8360044F2461048
:1042C000C2F24E00CBF832000920FDF7BBFC90E7AC
:1042D0000BF132002AA11B22FBF756FF1B20FDF732
:1042E000B1FC86E746F23D51C0F600010020FBF725
:1042F0007DFFA6F58231C8F80000A1F5757191ED3A
:10430000000AB8EE408A00F0C9F800EE100A9FEDEE
:10431000161AB8EE400A80EE010A4FF63C01CFF6BD
:10432000FE7120EE080ABCEEC00A10EE100A7050B2
:1043300044F24610C2F24E00CBF8320044F2443050
:10434000C5F22050CBF8360044F25040C5F241404F
:10435000CBF83A0044F24540C0F60D20CBF83E00C1
:104360001020FDF76FFC44E70000C84243414E2097
:1043700054455354204D53472073656E640D0A0015
:104380004750494F20736574206173206D696464E0
:104390006C65207465737420320D0A004750494FD4
:1043A00020736574206173206D6964646C6520748A
:1043B00065737420310D0A00414C4C204750494F21
:1043C0002053455420544F205354414E44415244AD
:1043D000204D4F44450D0A00F0B595B0FCF7A0FE06
:1043E000FDF742FCFDF75CF8FCF79AFC40F218166A
:1043F000C2F200064FF4E135002406F132000F95B9
:10440000CDE910441294CDE913060FA8FDF77EFB09
:104410002027012086F83270FDF714FCCDE90954FD
:1044200040F2D005C2F2000505F11400CDE90B44BD
:10443000CDE90D0509A8FCF793FF01202F75FDF7C5
:104440001DF840F2FD00C2F2000000F10801053045
:104450000294CDE90544CDE907440391049002A8F4
:10446000FDF73CF84FF4FA7000906846ADF8044050
:10447000FCF712FCFCF70EFA40F2AF40FDF748F9EA
:104480000E20FDF74BFA40F2AF40FDF771FA40F60F
:10449000B730FDF7B9F915B0F0BD00000178A1F112
:1044A0003002092A82BF002398B2704700220023FD
:1044B00003EB83035B00013253FA81FC91B2415C50
:1044C000A1F130030A2BACF13003F1D398B270475D
:1044D000B0B501380024B4EB106F18BFB0BD4EF278
:1044E0001005CEF2000568600F2000F0FDF90720EE
:1044F000AC602860B0BD000010B541F2AC54C2F20F
:104500000004206842F647010130CBF2A371414319
:104510004EF633424FEA3111C0F20A029142206056
:1045200003D9BDE81040FDF7C3BB41F23951C2F2D7
:1045300000010A7840F60040B2FA82F35B09C4F247
:1045400001000B704FF400713AB100F0D1FE002071
:104550002060BDE81040FDF7ABBB00F0CBFEBDE82E
:104560001040FDF7A5BB000080B54EF68850CEF296
:10457000000001684FF6FF7241F47001016041F2E2
:104580000000C4F202000168CEF6F62241F00101FB
:10459000016000214160C1620168114001604FF477
:1045A0007F018160016821F48021016001F0F0FB4E
:1045B0004FF000600021BDE8804001F007BA000024
:1045C00010B542F60044C4F201042046012101F076
:1045D0009BFE18B12046012101F090FE04F5006415
:1045E0002046012101F090FE002808BF10BD2046A2
:1045F0000121BDE8104001F081BE0000B0B54FF0D0
:104600008040012101F080FE002855D04FF080400D
:104610000121012401F072FE41F2AA55C2F2000507
:10462000287848B340F21815C2F20005287898B1EE
:1046300043F60004C4F201042046042101F014FFF3
:10464000012809D12046042101F002FF012085F84C
:1046500097001C2000F02CF940F20400C2F2000088
:104660000078022828D12878002818BFB0BD322051
:10467000BDE8B040FDF7FAB940F2181043F22E1130
:10468000C2F20000C0F67221C0F83D1045F2206170
:10469000C2F63161C0F83A1042F25401C4F64F310B
:1046A000C0F8361045F25341C5F24121C0F832102E
:1046B0001220FDF7C7FA2C70B0BD000010B540F60F
:1046C0000004C4F200042046012101F01DFE002870
:1046D00008BF10BD20460121BDE8104001F00EBE0C
:1046E0002DE9F04F81B040F60044C4F20104A4F576
:1046F00080352846012101F007FE002800F0818066
:104700002846012101F0FAFD41F24A50C2F20000B0
:104710000178002975D041F2B05141F2A053C2F2A4
:104720000001C2F200030A881B884FF4FA570132D5
:10473000B7FBF3F397B241F2445641F2A25A9F42BB
:10474000C2F20006C2F2000A0A8055D93288BAF8CD
:1047500000309A4250D2002004F580650880284637
:104760004FF4005100F064FE318840F2B117013877
:10477000C2F20007B0FA80F07A5C400940EA4200D9
:10478000785428464FF4004100F052FE3188013839
:10479000B0FA80F07A5C400940EA42007854204642
:1047A000022100F045FE31880138B0FA80F07A5CD1
:1047B000400940EA4200785420464FF4805100F00E
:1047C00037FE31880138B0FA80F07A5C400940EA5F
:1047D000420078542046202100F02AFE318801381A
:1047E000B0FA80F07A5C400940EA42007854481CF4
:1047F000308001B0BDE8F08F3188BAF800209142D6
:1048000002D201B0BDE8F08F0024047041F249509B
:10481000C2F2000004703220348000F049F8BAF887
:1048200000003480E8B341F24C5740F2181840F2CF
:10483000B1194FF0000BC2F20007C2F20008C2F239
:10484000000900210EE000BF481E3870C0B2FDF71D
:10485000F9F9308800F13201BAF800008AB28242D8
:1048600031801ED28DB284B2A5424FF0000087F88D
:1048700000B0EBD2EA43224408EB0500312A28BFFE
:104880003122323009EB05010132FBF77DFC0120BA
:10489000312800F10101D7D82844A0420846F7D3B7
:1048A000D2E701B0BDE8F04F00F016B87047000045
:1048B000002848BF704700F01F01012202FA01F1F1
:1048C0004EF280124009CEF2000242F82010BFF3EF
:1048D0004F8FBFF36F8F70474EF20010CEF2000083
:1048E0004FF08051016070474EF623510001CEF227
:1048F0000001087070470000816841F00801816084
:1049000081680907FCD4816841F00401816000BF1F
:1049100081684907FCD4704780B5012908D0022975
:1049200018BF80BD4FF4401E6FF4401C382304E0D4
:104930004FF4700E6FF4700C2C23195801EA0C011F
:1049400019500EEB02511A5801EA0E011143195089
:1049500080BD00008268002942F4006308BF22F491
:104960000063836070470000816841F4807181605A
:10497000704700008168C90718BF7047816841F01F
:104980000101816070470000002A01F0010203D09C
:104990007AB9890713D470471AB1826822F4801259
:1049A0008260890758BF7047816821F400418160A7
:1049B0007047826842F4801282608907EBD5816873
:1049C00041F4004181607047012905D0022918BFD8
:1049D00070476FF4E04101E06FF460218368194093
:1049E0008160816811438160704700000068084061
:1049F00018BF01207047000042F20441C4F20101D7
:104A00000A6822F470220A600A681043086070473E
:104A100010B5052904D800F1340C01EB810E10E02B
:104A20000B2906D801EB810100F1300CA1F11E0E1B
:104A300007E00F2910D801EB810100F12C0CA1F146
:104A40003C0EDCF800101F2404FA0EF4A14302FA15
:104A50000EF42143CCF80010092A03D8103002EBE1
:104A6000420106E0112A88BF10BD02EB42010C3062
:104A70001E39026807248C40A24303FA01F1114356
:104A8000016010BDD0F8802022F44052C0F8802090
:104A9000D0F880201143C0F880107047CA0703D0B7
:104AA000826842F480028260890758BF704781683B
:104AB00041F4001181607047002A01F4807205D032
:104AC000BAB94A051BD489071FD470471AB1426886
:104AD00022F4807242604A0503D5426822F4806263
:104AE0004260890758BF7047816821F002018160E8
:104AF0007047426842F4807242604A05E3D54268DA
:104B000042F4806242608907DFD5816841F002018A
:104B10008160704710B546F20041C4F2000140F2D6
:104B20001A44884208BF40F21944204601F040F878
:104B30002046BDE8104001F02BB80000B0B546F2A9
:104B40000061C4F2000144890A684FF0010C42F090
:104B500001020A60CB690CFA04F5AB43CB61C3894F
:104B60006FEA050C012B10D023BBCB6803EA0C03C2
:104B7000CB60B0F806E0438843EA0E434FEAC40E28
:104B800001EBC404236403460DE0CB682B43CB60E8
:104B9000B0F800E0438843EA0E434FEAC40E01EB4D
:104BA000C4042364831D84881B8843EA044301EB07
:104BB0000E04636483894C68002B44EA050208BF35
:104BC00004EA0C024A6002894B69002A43EA0504A0
:104BD00008BF03EA0C044C61007C012802D1C869BB
:104BE0002843C861086820F001000860B0BD0000DB
:104BF00001F01F0289094FF0010C0B580CFA02F268
:104C00001A430A50704700008A09105801F01F012A
:104C1000C84000F001007047F0B581B00E4644F284
:104C20004021C0F20F018E421BD80121044600F042
:104C30002DF9002501284FF0000708D1E06900F0A8
:104C40004047304600F0BCF938430127E061204678
:104C5000022100F01BF9012808BF3D46284601B09B
:104C6000F0BD002001B0F0BDF0B5026840F2010CCB
:104C700022F0020202600268CFF6FF7C42F00102DD
:104C800063460260426823B112F0010203F101039E
:104C9000F8D04268D20704BF0020F0BD0A7891F82E
:104CA00001E08B789207CC7803F00F0503F07003D6
:104CB0006EF31C624F8942EA831204F0070604F087
:104CC000180442EA0542013F42EA84226FF39F271B
:104CD00042EA06523A44C2610A790368012A23F083
:104CE000800708BF43F0800707604A790368012AFC
:104CF00023F0400708BF43F0400707608A79036844
:104D0000012A23F0200708BF43F020070760CA7973
:104D10000368012A43F0100708BF23F0100707605B
:104D20000A7A0368012A23F0080708BF43F008073E
:104D30000760497A0268012922F0040308BF42F0A3
:104D400004030360016821F00101016042686146CB
:104D5000BCF1000F04D012F0010201F1010CF5D1F9
:104D6000002918BF01210846F0BD0000F0B581B050
:104D700005468068400108D4A868000107D4A868E7
:104D8000C00006D4032001B0F0BD002002E00120E5
:104D900000E0022005EB0013D3F8802102F00102AD
:104DA000C3F880210A7A1AB14E6842EAC60201E0CD
:104DB0000A6852054E7A91F84BE0D3F880413243AD
:104DC0004FEA001C2243BEF1000FC3F8802104D03B
:104DD0002A6AD2071BD100BFFEE70CEB0502D2F80E
:104DE000846126F00F06C2F884618E7AD2F884417D
:104DF0002643C2F88461D1F80B60C2F88861D1F80B
:104E00000F104FF4C6720CEB0507B95031E08C7AE5
:104E1000092C22460CD346F236560022C0F6000674
:104E2000B75CBC4203D00132072AF9D1FEE7093250
:104E300091F84C6091F84D7042EACE1242EA461267
:104E400042EA07170CEB0502C2F8847100270B3108
:104E5000B7EB940F009114D0A10800BF009F013957
:104E60003F680E06C2F88871009F07F1040700979B
:104E7000F4D1D3F8801141F00101C3F8801101B0E1
:104E8000F0BD00994FF4C4720968BCE704291CD036
:104E9000022930D001291CBF00207047016821F091
:104EA0000201016002680121CFF6FF7142F00102A8
:104EB000026000BF426821B112F0010201F101015C
:104EC000F8D0406800F001007047016821F001014E
:104ED000016002680121CFF6FF7142F00202026018
:104EE000426821B112F0020201F10101F8D04068DC
:104EF000C0F34000704702680121CFF6FF7122F035
:104F000003020260426821B112F0030201F10101C3
:104F1000F8D1406800F00300B0FA80F04009704713
:104F200060B1022915D0012919D0002918BF704796
:104F300047F20840C4F20000C2607047022914D052
:104F4000012918D051B947F20840C4F200000260AC
:104F5000704747F20840C4F200004261704747F2D0
:104F60000840C4F200000261704747F20840C4F2F2
:104F700000008260704747F20840C4F200004260BF
:104F80007047000047F20041C4F200010A686FF464
:104F90008033002808BF6FF0010302EA03000860B5
:104FA0007047000047F20441C4F200010A6802237E
:104FB000002808BF012342EA030008607047000090
:104FC00010B50446022000F047FDB0FBF4FE4AF69F
:104FD000AB20CAF6AA20AEFB00021009B0EB9E0F70
:104FE00012D24FEA9E0C831C01301622002400BF0F
:104FF000D11C5943714508D0013C14F11601A2F1AE
:105000000102F5D16045EED3FEE746F2C051C0F68D
:10501000000101EBC401D1E92C216FF39F2002F0C4
:105020000F0261F3165040EA024010BDB0B50D46C4
:10503000044600F0C5F848B105EB850004EB80009C
:10504000816821F001018160B0BD00BFFEE7000072
:10505000B0B50D46044600F0B3F848B105EB850045
:1050600004EB8000816841F001018160B0BD00BFA8
:10507000FEE70000B0B50D46044600F0A1F848B1C7
:1050800005EB850004EB8000816821F02001816040
:10509000B0BD00BFFEE70000B0B50D46044600F00D
:1050A0008FF848B105EB850004EB8000816841F082
:1050B00020018160B0BD00BFFEE7000089004368A9
:1050C00002FA01F11943416070470000006889004D
:1050D00002FA01F1084018BF0120704770B514466C
:1050E0000E46054600F06CF880B3216806EB86009A
:1050F00005EB80000161A1684161218AC16081687E
:10510000626821F47C51E3686669114319433143B5
:105110008160217E8268012922F0400308BF42F0AD
:1051200040038360617E8268012922F0800308BF0A
:1051300042F080038360A17E8268002942F0100360
:1051400008BF22F01003836070BD00BFFEE70000BF
:1051500070B514460E46054600F032F840B106EB35
:10516000860005EB800081682143816070BD00BF2F
:10517000FEE700008900436802FA01F1194341602B
:1051800070470000082A19D80123934013F48A7F3E
:1051900014D08B0001EB8101D0F800C000EB81003E
:1051A000806802FA03F31CEA030100EA020018BF58
:1051B0000121002818BF012008407047FEE70000C9
:1051C00040F20042C4F20202801A18BF01200022FD
:1051D000052938BF012210437047000070B51646FC
:1051E0000D460446FFF7ECFF30B105EB8501B0B288
:1051F00004EB8101C86070BDFEE70000B0B50D464C
:105200000446FFF7DDFF28B105EB850004EB8000C5
:10521000C068B0BDFEE7000040F2084CC4F2010CCB
:105220005CF8083C012923EA00034CF8083C5CF8D0
:10523000043C23EA00034CF8043CDCF8003023EA89
:105240000003CCF80030DCF8043023EA0003CCF88B
:10525000043019D021B95CF8081C01434CF8081C33
:10526000022A18D0012A6FEA000118D0002A18BFBC
:105270007047DCF800201043CCF80000DCF8040094
:105280000840CCF8040070475CF8041C01434CF85B
:10529000041C022AE6D1DCF80010014302E0DCF82D
:1052A00000201140CCF80010DCF804100843CCF8C2
:1052B0000400704740F20041C4F201010A68104343
:1052C0000860704740F21441C4F201010860704761
:1052D00040F20041C4F201014A690968024000EA53
:1052E000010018BF0122002818BF0120104070479C
:1052F00041617047016170470C2240F2080C02EADC
:1053000081030F22C4F2010C032902FA03F20BD825
:10531000DCF8001098409143CCF80010DCF8001045
:105320000843CCF80000704707290BD8DCF80410BC
:1053300098409143CCF80410DCF804100843CCF8F2
:10534000040070470B296FEA02010BD8DCF8082033
:1053500098401140CCF80810DCF808100843CCF84D
:1053600008007047DCF80C2098401140CCF80C1075
:10537000DCF80C100843CCF80C0070472DE9F0471E
:10538000CF0601F00F0C09D5042A05D1C26B4CF0F1
:10539000030C1A43C26301E04CEA020C00F1100E48
:1053A00000F1140A00244FF001094FF00F08002704
:1053B00007E000BF166005600137082F04F1040400
:1053C00012D009FA07F212EA0306F5D0026808FAC9
:1053D00004F5AA430CFA04F5154328295246E9D0EE
:1053E0004829E8D17246E5E7082400254FF0010975
:1053F0004FF00F0809E000BF176046600134102C21
:1054000005F1040508BFBDE8F08709FA04F212EAC5
:105410000307F3D0426808FA05F6B2430CFA05F622
:10542000164328295246E7D04829E6D17246E3E7D9
:105430008068084018BF012070470000B0B5042202
:10544000C4F20102134602F1180E002848BF734649
:105450001B6800F44014C0F30345B4F5401F1FFA65
:1054600080FC07D1146823F0E06324F0E06414604A
:1054700079B915E0C40206D46FF00F0404EA504471
:105480000CFA04F401E00324AC40A34343F0E063CE
:1054900031B16FF00F0101EA50410CFA01F10B43F9
:1054A000002848BF72461360B0BD000041F20004FE
:1054B000C4F20104FEF790FF40F20800C2F20000BF
:1054C000006841F25971CDF2B711A0FB0101480B00
:1054D000FEF7FEFF0220FFF707FA40F2FD0941F256
:1054E0004B5841F2405A04F574454FF0000BC2F29C
:1054F0000009C2F20008A4F58067C2F2000A91E038
:1055000020468021FFF794FF20464FF48041FFF7AB
:10551000F1FE38464FF48071FFF78AFF20461021D4
:10552000FFF7E8FE20460121FFF782FF38460421FD
:10553000FFF7E0FE20460221FFF77AFF20464021D8
:10554000FFF7D8FE20460421FFF772FF20464FF4F4
:105550000071FFF7CFFE20460821FFF769FF2046C4
:105560004FF48061FFF7C6FEA4F5006630460121C6
:10557000FFF75EFF20464FF40061FFF7BBFE3046A9
:105580000221FFF755FF20464FF48051FFF7B2FE8E
:1055900030460421FFF74CFF20464FF40051FFF73F
:1055A000A9FE30460821FFF743FF20464FF4004193
:1055B000FFF7A0FE30461021FFF73AFF30464021AA
:1055C000FFF798FE30462021FFF732FF20462021CA
:1055D000FFF790FE38464FF48061FFF729FF384609
:1055E0004FF48051FFF786FE38464FF40061FFF715
:1055F0001FFF30464FF40071FFF77CFE30464FF43A
:105600008051FFF715FF30464FF48071FFF772FEAF
:1056100030464FF40061FFF70BFF20464FF48071D6
:10562000FFF768FE284600210222FFF74FFD012800
:1056300014D128460021FFF7E1FD14280ED00120E7
:1056400089F80200284600210222FFF737FD43F6C1
:105650000040C4F20000012100F0BAFA99F80200FB
:1056600000286CD099F8050099F80610C72889F829
:1056700002B008BFC72923D0662808BF662932D0E8
:1056800041F24E52C2F20002128841EA00209042DA
:1056900040D040F20401C2F20001097801292BD068
:1056A000C1BB41F24E51C2F20001088047F20441F1
:1056B000C4F200014860086840F0010029E000BF22
:1056C00040F204010220C2F20001087040F21810FA
:1056D000C2F20000DC2180F832100120FCF7B2FA9F
:1056E000FFF7FAF82BE0BAF80000400080B2FCF7B0
:1056F000A9FAAAF800B020E041F24E51C2F200012E
:10570000088047F20441C4F200010861086840F0D3
:1057100002000860BAF8001040F2181699F8050067
:1057200099F806204B00C2F2000601333236F254DB
:1057300006F81100481CAAF80000FBF79FFF98F834
:10574000000002283FF4DCAE01287FF46BAF204656
:105750004FF48041FFF76CFE20B120468021FFF717
:10576000C9FD03E020468021FFF7C2FD204610213D
:10577000FFF75EFE28B138464FF48071FFF7BAFD9F
:1057800004E038464FF48071FFF7B2FD384604213B
:10579000FFF74EFE20B120460121FFF7ABFD03E0ED
:1057A00020460121FFF7A4FD20464021FFF740FEDF
:1057B00020B120460221FFF79DFD03E02046022193
:1057C000FFF796FD20464FF40071FFF731FE20B140
:1057D00020460421FFF78EFD03E020460421FFF759
:1057E00087FD20464FF48061FFF722FE20B120465E
:1057F0000821FFF77FFD03E020460821FFF778FD31
:1058000020464FF40061FFF713FE28B1A4F50060B5
:105810000121FFF76FFD04E0A4F500600121FFF70F
:1058200067FD20464FF48051FFF702FE28B1A4F532
:1058300000600221FFF75EFD04E0A4F50060022194
:10584000FFF756FD20464FF40051FFF7F1FD28B158
:10585000A4F500600421FFF74DFD04E0A4F500600D
:105860000421FFF745FD20464FF40041FFF7E0FD1E
:1058700028B1A4F500600821FFF73CFD04E0A4F581
:1058800000600821FFF734FDA4F500663046402192
:10589000FFF7CEFD20B130461021FFF72BFD03E0CE
:1058A00030461021FFF724FD20462021FFF7C0FDE0
:1058B00020B130462021FFF71DFD03E030462021B6
:1058C000FFF716FD38464FF48051FFF7B1FD28B1C0
:1058D00038464FF48061FFF70DFD04E038464FF481
:1058E0008061FFF705FD30464FF40071FFF7A0FD22
:1058F00028B138464FF40061FFF7FCFC04E038465D
:105900004FF40061FFF7F4FC30464FF48071FFF76D
:105910008FFD28B130464FF48051FFF7EBFC04E0D7
:1059200030464FF48051FFF7E3FC20464FF480717E
:10593000FFF77EFD28B130464FF40061FFF7DAFC37
:1059400070E630464FF40061FFF7D2FC6AE60000D3
:1059500070B515464EF60C52CEF2000212680E4695
:1059600002F4E061A1F54071B1F5A06F044603D2E5
:10597000080AC0F1040105E04FF4A06000F01CF833
:10598000022002210F2222FA01F106FA00F029403A
:1059900008434EF20011CEF20001000144EA010278
:1059A00082F8000304F01F00012202FA00F01C221A
:1059B00002EAD402505070BD40F080604EF60C51A7
:1059C00040F0FD70CEF20001086070474FF6807223
:1059D000C1F6FF72114008434EF60851CEF20001A5
:1059E0000860704710B541F2040CC4F2020CDCF8F8
:1059F000001043F6FF72CEF6FF720A40DCF8281062
:105A00000B2821F0005E21D8012383401C070CD114
:105A100013F4706F0CD04CF20003CFF6FC7303EA62
:105A20008030024341F0005E10E042EA80320DE037
:105A30000121814011F0A00F08D04CF20001CEF6F8
:105A4000FE7101EA8030104340F08052CCF8002013
:105A5000CCF828E010BD000010B541F2040EC4F2ED
:105A6000020EDEF8001001F00C01082941F20021BD
:105A7000C0F27A0146D1DEF80030DB0304D440F6F0
:105A8000001CC0F23D0C25E0DEF82830DEF828C00E
:105A90005B0046F60043C0F2DC2358BF0B465FEACA
:105AA000CC3110D5DEF82810C1F3031CDEF8281025
:105AB0000CF1010CC1F30321B3FBFCF302311129FA
:105AC00008BF14214B43DEF8281001F00F0101310B
:105AD000B3FBF1FCDEF800301022C3F38343DEF8A1
